{
  "contractName": "FatCats",
  "abi": [
    {
      "inputs": [
        {
          "internalType": "uint256",
          "name": "_mintFee",
          "type": "uint256"
        },
        {
          "internalType": "uint256",
          "name": "_maxMint",
          "type": "uint256"
        }
      ],
      "stateMutability": "nonpayable",
      "type": "constructor"
    },
    {
      "anonymous": false,
      "inputs": [
        {
          "indexed": true,
          "internalType": "address",
          "name": "owner",
          "type": "address"
        },
        {
          "indexed": true,
          "internalType": "address",
          "name": "approved",
          "type": "address"
        },
        {
          "indexed": true,
          "internalType": "uint256",
          "name": "tokenId",
          "type": "uint256"
        }
      ],
      "name": "Approval",
      "type": "event"
    },
    {
      "anonymous": false,
      "inputs": [
        {
          "indexed": true,
          "internalType": "address",
          "name": "owner",
          "type": "address"
        },
        {
          "indexed": true,
          "internalType": "address",
          "name": "operator",
          "type": "address"
        },
        {
          "indexed": false,
          "internalType": "bool",
          "name": "approved",
          "type": "bool"
        }
      ],
      "name": "ApprovalForAll",
      "type": "event"
    },
    {
      "anonymous": false,
      "inputs": [
        {
          "indexed": true,
          "internalType": "address",
          "name": "from",
          "type": "address"
        },
        {
          "indexed": true,
          "internalType": "address",
          "name": "to",
          "type": "address"
        },
        {
          "indexed": true,
          "internalType": "uint256",
          "name": "tokenId",
          "type": "uint256"
        }
      ],
      "name": "Transfer",
      "type": "event"
    },
    {
      "inputs": [
        {
          "internalType": "address",
          "name": "to",
          "type": "address"
        },
        {
          "internalType": "uint256",
          "name": "tokenId",
          "type": "uint256"
        }
      ],
      "name": "approve",
      "outputs": [],
      "stateMutability": "nonpayable",
      "type": "function"
    },
    {
      "inputs": [],
      "name": "assetType",
      "outputs": [
        {
          "internalType": "uint8",
          "name": "",
          "type": "uint8"
        }
      ],
      "stateMutability": "view",
      "type": "function"
    },
    {
      "inputs": [
        {
          "internalType": "address",
          "name": "owner",
          "type": "address"
        }
      ],
      "name": "balanceOf",
      "outputs": [
        {
          "internalType": "uint256",
          "name": "",
          "type": "uint256"
        }
      ],
      "stateMutability": "view",
      "type": "function"
    },
    {
      "inputs": [],
      "name": "baseCID",
      "outputs": [
        {
          "internalType": "string",
          "name": "",
          "type": "string"
        }
      ],
      "stateMutability": "view",
      "type": "function"
    },
    {
      "inputs": [],
      "name": "distributor",
      "outputs": [
        {
          "internalType": "address",
          "name": "",
          "type": "address"
        }
      ],
      "stateMutability": "view",
      "type": "function"
    },
    {
      "inputs": [
        {
          "internalType": "uint256",
          "name": "tokenId",
          "type": "uint256"
        }
      ],
      "name": "getApproved",
      "outputs": [
        {
          "internalType": "address",
          "name": "",
          "type": "address"
        }
      ],
      "stateMutability": "view",
      "type": "function"
    },
    {
      "inputs": [
        {
          "internalType": "address",
          "name": "owner",
          "type": "address"
        },
        {
          "internalType": "address",
          "name": "operator",
          "type": "address"
        }
      ],
      "name": "isApprovedForAll",
      "outputs": [
        {
          "internalType": "bool",
          "name": "",
          "type": "bool"
        }
      ],
      "stateMutability": "view",
      "type": "function"
    },
    {
      "inputs": [],
      "name": "metadataRegister",
      "outputs": [
        {
          "internalType": "address",
          "name": "",
          "type": "address"
        }
      ],
      "stateMutability": "view",
      "type": "function"
    },
    {
      "inputs": [],
      "name": "name",
      "outputs": [
        {
          "internalType": "string",
          "name": "",
          "type": "string"
        }
      ],
      "stateMutability": "view",
      "type": "function"
    },
    {
      "inputs": [
        {
          "internalType": "uint256",
          "name": "tokenId",
          "type": "uint256"
        }
      ],
      "name": "ownerOf",
      "outputs": [
        {
          "internalType": "address",
          "name": "",
          "type": "address"
        }
      ],
      "stateMutability": "view",
      "type": "function"
    },
    {
      "inputs": [
        {
          "internalType": "address",
          "name": "from",
          "type": "address"
        },
        {
          "internalType": "address",
          "name": "to",
          "type": "address"
        },
        {
          "internalType": "uint256",
          "name": "tokenId",
          "type": "uint256"
        }
      ],
      "name": "safeTransferFrom",
      "outputs": [],
      "stateMutability": "nonpayable",
      "type": "function"
    },
    {
      "inputs": [
        {
          "internalType": "address",
          "name": "from",
          "type": "address"
        },
        {
          "internalType": "address",
          "name": "to",
          "type": "address"
        },
        {
          "internalType": "uint256",
          "name": "tokenId",
          "type": "uint256"
        },
        {
          "internalType": "bytes",
          "name": "data",
          "type": "bytes"
        }
      ],
      "name": "safeTransferFrom",
      "outputs": [],
      "stateMutability": "nonpayable",
      "type": "function"
    },
    {
      "inputs": [
        {
          "internalType": "address",
          "name": "operator",
          "type": "address"
        },
        {
          "internalType": "bool",
          "name": "approved",
          "type": "bool"
        }
      ],
      "name": "setApprovalForAll",
      "outputs": [],
      "stateMutability": "nonpayable",
      "type": "function"
    },
    {
      "inputs": [
        {
          "internalType": "bytes4",
          "name": "interfaceId",
          "type": "bytes4"
        }
      ],
      "name": "supportsInterface",
      "outputs": [
        {
          "internalType": "bool",
          "name": "",
          "type": "bool"
        }
      ],
      "stateMutability": "view",
      "type": "function"
    },
    {
      "inputs": [],
      "name": "symbol",
      "outputs": [
        {
          "internalType": "string",
          "name": "",
          "type": "string"
        }
      ],
      "stateMutability": "view",
      "type": "function"
    },
    {
      "inputs": [
        {
          "internalType": "address",
          "name": "from",
          "type": "address"
        },
        {
          "internalType": "address",
          "name": "to",
          "type": "address"
        },
        {
          "internalType": "uint256",
          "name": "tokenId",
          "type": "uint256"
        }
      ],
      "name": "transferFrom",
      "outputs": [],
      "stateMutability": "nonpayable",
      "type": "function"
    },
    {
      "inputs": [
        {
          "internalType": "string",
          "name": "_baseCID",
          "type": "string"
        },
        {
          "internalType": "bytes32",
          "name": "_root",
          "type": "bytes32"
        }
      ],
      "name": "setBaseCID",
      "outputs": [],
      "stateMutability": "nonpayable",
      "type": "function"
    },
    {
      "inputs": [
        {
          "internalType": "address payable",
          "name": "_metadataRegister",
          "type": "address"
        },
        {
          "internalType": "uint256",
          "name": "_gas",
          "type": "uint256"
        }
      ],
      "name": "requestBaseCIDVerification",
      "outputs": [],
      "stateMutability": "payable",
      "type": "function"
    },
    {
      "inputs": [
        {
          "internalType": "uint256[2]",
          "name": "_publicKey",
          "type": "uint256[2]"
        },
        {
          "internalType": "uint256[4]",
          "name": "_proof",
          "type": "uint256[4]"
        },
        {
          "internalType": "bytes",
          "name": "_message",
          "type": "bytes"
        }
      ],
      "name": "verify",
      "outputs": [
        {
          "internalType": "bool",
          "name": "",
          "type": "bool"
        }
      ],
      "stateMutability": "pure",
      "type": "function"
    },
    {
      "inputs": [
        {
          "internalType": "bytes",
          "name": "_proof",
          "type": "bytes"
        }
      ],
      "name": "decodeProof",
      "outputs": [
        {
          "internalType": "uint256[4]",
          "name": "_decodedProof",
          "type": "uint256[4]"
        }
      ],
      "stateMutability": "pure",
      "type": "function"
    },
    {
      "inputs": [
        {
          "internalType": "bytes",
          "name": "_point",
          "type": "bytes"
        }
      ],
      "name": "decodePoint",
      "outputs": [
        {
          "internalType": "uint256[2]",
          "name": "",
          "type": "uint256[2]"
        }
      ],
      "stateMutability": "pure",
      "type": "function"
    },
    {
      "inputs": [],
      "name": "mint",
      "outputs": [],
      "stateMutability": "payable",
      "type": "function"
    },
    {
      "inputs": [
        {
          "internalType": "uint256",
          "name": "tokenId",
          "type": "uint256"
        }
      ],
      "name": "tokenURI",
      "outputs": [
        {
          "internalType": "string",
          "name": "",
          "type": "string"
        }
      ],
      "stateMutability": "view",
      "type": "function"
    }
  ],
  "bytecode": "0x6101006040523480156200001257600080fd5b50604051620054fb380380620054fb833981810160405281019062000038919062000167565b60016040518060400160405280600781526020017f46617443617473000000000000000000000000000000000000000000000000008152506040518060400160405280600281526020017f46430000000000000000000000000000000000000000000000000000000000008152508160009081620000b791906200041e565b508060019081620000c991906200041e565b5050503373ffffffffffffffffffffffffffffffffffffffff1660808173ffffffffffffffffffffffffffffffffffffffff16815250508060ff1660a08160ff1681525050508160c081815250508060e08181525050505062000505565b600080fd5b6000819050919050565b62000141816200012c565b81146200014d57600080fd5b50565b600081519050620001618162000136565b92915050565b6000806040838503121562000181576200018062000127565b5b6000620001918582860162000150565b9250506020620001a48582860162000150565b9150509250929050565b600081519050919050565b7f4e487b7100000000000000000000000000000000000000000000000000000000600052604160045260246000fd5b7f4e487b7100000000000000000000000000000000000000000000000000000000600052602260045260246000fd5b600060028204905060018216806200023057607f821691505b602082108103620002465762000245620001e8565b5b50919050565b60008190508160005260206000209050919050565b60006020601f8301049050919050565b600082821b905092915050565b600060088302620002b07fffffffffffffffffffffffffffffffffffffffffffffffffffffffffffffffff8262000271565b620002bc868362000271565b95508019841693508086168417925050509392505050565b6000819050919050565b6000620002ff620002f9620002f3846200012c565b620002d4565b6200012c565b9050919050565b6000819050919050565b6200031b83620002de565b620003336200032a8262000306565b8484546200027e565b825550505050565b600090565b6200034a6200033b565b6200035781848462000310565b505050565b5b818110156200037f576200037360008262000340565b6001810190506200035d565b5050565b601f821115620003ce5762000398816200024c565b620003a38462000261565b81016020851015620003b3578190505b620003cb620003c28562000261565b8301826200035c565b50505b505050565b600082821c905092915050565b6000620003f360001984600802620003d3565b1980831691505092915050565b60006200040e8383620003e0565b9150826002028217905092915050565b6200042982620001ae565b67ffffffffffffffff811115620004455762000444620001b9565b5b62000451825462000217565b6200045e82828562000383565b600060209050601f83116001811462000496576000841562000481578287015190505b6200048d858262000400565b865550620004fd565b601f198416620004a6866200024c565b60005b82811015620004d057848901518255600182019150602085019450602081019050620004a9565b86831015620004f05784890151620004ec601f891682620003e0565b8355505b6001600288020188555050505b505050505050565b60805160a05160c05160e051614fb46200054760003960005050600050506000610bc001526000818161066c01528181610a270152610e9f0152614fb46000f3fe6080604052600436106101405760003560e01c806351cdea5f116100b6578063b88d4fde1161006f578063b88d4fde14610440578063bbe95b4c14610469578063bfe10928146104a6578063c87b56dd146104d1578063c9d4ef1f1461050e578063e985e9c51461054b57610140565b806351cdea5f1461030a5780636352211e1461034757806370a082311461038457806395d89b41146103c1578063a22cb465146103ec578063a28b33a71461041557610140565b80630e56d2a7116101085780630e56d2a71461022f5780631249c58b1461025857806323b872dd1461026257806325fdfaa21461028b5780633fe3347a146102b657806342842e0e146102e157610140565b806301ffc9a714610145578063060eb60f1461018257806306fdde031461019e578063081812fc146101c9578063095ea7b314610206575b600080fd5b34801561015157600080fd5b5061016c600480360381019061016791906131f9565b610588565b6040516101799190613241565b60405180910390f35b61019c600480360381019061019791906132f0565b61066a565b005b3480156101aa57600080fd5b506101b3610836565b6040516101c091906133c0565b60405180910390f35b3480156101d557600080fd5b506101f060048036038101906101eb91906133e2565b6108c8565b6040516101fd9190613430565b60405180910390f35b34801561021257600080fd5b5061022d60048036038101906102289190613477565b61090e565b005b34801561023b57600080fd5b5061025660048036038101906102519190613622565b610a25565b005b610260610ace565b005b34801561026e57600080fd5b506102896004803603810190610284919061367e565b610ad0565b005b34801561029757600080fd5b506102a0610b30565b6040516102ad91906133c0565b60405180910390f35b3480156102c257600080fd5b506102cb610bbe565b6040516102d891906136ed565b60405180910390f35b3480156102ed57600080fd5b506103086004803603810190610303919061367e565b610be2565b005b34801561031657600080fd5b50610331600480360381019061032c91906137a9565b610c02565b60405161033e919061389d565b60405180910390f35b34801561035357600080fd5b5061036e600480360381019061036991906133e2565b610c1a565b60405161037b9190613430565b60405180910390f35b34801561039057600080fd5b506103ab60048036038101906103a691906138b8565b610ca0565b6040516103b891906138f4565b60405180910390f35b3480156103cd57600080fd5b506103d6610d57565b6040516103e391906133c0565b60405180910390f35b3480156103f857600080fd5b50610413600480360381019061040e919061393b565b610de9565b005b34801561042157600080fd5b5061042a610dff565b6040516104379190613430565b60405180910390f35b34801561044c57600080fd5b506104676004803603810190610462919061397b565b610e25565b005b34801561047557600080fd5b50610490600480360381019061048b9190613b65565b610e87565b60405161049d9190613241565b60405180910390f35b3480156104b257600080fd5b506104bb610e9d565b6040516104c89190613430565b60405180910390f35b3480156104dd57600080fd5b506104f860048036038101906104f391906133e2565b610ec1565b60405161050591906133c0565b60405180910390f35b34801561051a57600080fd5b50610535600480360381019061053091906137a9565b610f43565b6040516105429190613c58565b60405180910390f35b34801561055757600080fd5b50610572600480360381019061056d9190613c73565b610f5b565b60405161057f9190613241565b60405180910390f35b60007f80ac58cd000000000000000000000000000000000000000000000000000000007bffffffffffffffffffffffffffffffffffffffffffffffffffffffff1916827bffffffffffffffffffffffffffffffffffffffffffffffffffffffff1916148061065357507f5b5e139f000000000000000000000000000000000000000000000000000000007bffffffffffffffffffffffffffffffffffffffffffffffffffffffff1916827bffffffffffffffffffffffffffffffffffffffffffffffffffffffff1916145b80610663575061066282610fef565b5b9050919050565b7f000000000000000000000000000000000000000000000000000000000000000073ffffffffffffffffffffffffffffffffffffffff163373ffffffffffffffffffffffffffffffffffffffff16146106f8576040517f08c379a00000000000000000000000000000000000000000000000000000000081526004016106ef90613d25565b60405180910390fd5b81600660006101000a81548173ffffffffffffffffffffffffffffffffffffffff021916908373ffffffffffffffffffffffffffffffffffffffff1602179055508173ffffffffffffffffffffffffffffffffffffffff163460086040516024016107639190613e3e565b6040516020818303038152906040527f95b22143000000000000000000000000000000000000000000000000000000007bffffffffffffffffffffffffffffffffffffffffffffffffffffffff19166020820180517bffffffffffffffffffffffffffffffffffffffffffffffffffffffff83818316178352505050506040516107ed9190613ea7565b60006040518083038185875af1925050503d806000811461082a576040519150601f19603f3d011682016040523d82523d6000602084013e61082f565b606091505b5050505050565b60606000805461084590613d74565b80601f016020809104026020016040519081016040528092919081815260200182805461087190613d74565b80156108be5780601f10610893576101008083540402835291602001916108be565b820191906000526020600020905b8154815290600101906020018083116108a157829003601f168201915b5050505050905090565b60006108d382611059565b6004600083815260200190815260200160002060009054906101000a900473ffffffffffffffffffffffffffffffffffffffff169050919050565b600061091982610c1a565b90508073ffffffffffffffffffffffffffffffffffffffff168373ffffffffffffffffffffffffffffffffffffffff1603610989576040517f08c379a000000000000000000000000000000000000000000000000000000000815260040161098090613f30565b60405180910390fd5b8073ffffffffffffffffffffffffffffffffffffffff166109a86110a4565b73ffffffffffffffffffffffffffffffffffffffff1614806109d757506109d6816109d16110a4565b610f5b565b5b610a16576040517f08c379a0000000000000000000000000000000000000000000000000000000008152600401610a0d90613fc2565b60405180910390fd5b610a2083836110ac565b505050565b7f000000000000000000000000000000000000000000000000000000000000000073ffffffffffffffffffffffffffffffffffffffff163373ffffffffffffffffffffffffffffffffffffffff1614610ab3576040517f08c379a0000000000000000000000000000000000000000000000000000000008152600401610aaa90613d25565b60405180910390fd5b8160089081610ac29190614179565b50806007819055505050565b565b610ae1610adb6110a4565b82611165565b610b20576040517f08c379a0000000000000000000000000000000000000000000000000000000008152600401610b17906142bd565b60405180910390fd5b610b2b8383836111fa565b505050565b60088054610b3d90613d74565b80601f0160208091040260200160405190810160405280929190818152602001828054610b6990613d74565b8015610bb65780601f10610b8b57610100808354040283529160200191610bb6565b820191906000526020600020905b815481529060010190602001808311610b9957829003601f168201915b505050505081565b7f000000000000000000000000000000000000000000000000000000000000000081565b610bfd83838360405180602001604052806000815250610e25565b505050565b610c0a613149565b610c13826114f3565b9050919050565b600080610c268361157d565b9050600073ffffffffffffffffffffffffffffffffffffffff168173ffffffffffffffffffffffffffffffffffffffff1603610c97576040517f08c379a0000000000000000000000000000000000000000000000000000000008152600401610c8e90614329565b60405180910390fd5b80915050919050565b60008073ffffffffffffffffffffffffffffffffffffffff168273ffffffffffffffffffffffffffffffffffffffff1603610d10576040517f08c379a0000000000000000000000000000000000000000000000000000000008152600401610d07906143bb565b60405180910390fd5b600360008373ffffffffffffffffffffffffffffffffffffffff1673ffffffffffffffffffffffffffffffffffffffff168152602001908152602001600020549050919050565b606060018054610d6690613d74565b80601f0160208091040260200160405190810160405280929190818152602001828054610d9290613d74565b8015610ddf5780601f10610db457610100808354040283529160200191610ddf565b820191906000526020600020905b815481529060010190602001808311610dc257829003601f168201915b5050505050905090565b610dfb610df46110a4565b83836115ba565b5050565b600660009054906101000a900473ffffffffffffffffffffffffffffffffffffffff1681565b610e36610e306110a4565b83611165565b610e75576040517f08c379a0000000000000000000000000000000000000000000000000000000008152600401610e6c906142bd565b60405180910390fd5b610e8184848484611726565b50505050565b6000610e94848484611782565b90509392505050565b7f000000000000000000000000000000000000000000000000000000000000000081565b6060610ecc82611943565b610f0b576040517f08c379a0000000000000000000000000000000000000000000000000000000008152600401610f029061444d565b60405180910390fd5b610f13611984565b610f1c836119ac565b604051602001610f2d9291906144a9565b6040516020818303038152906040529050919050565b610f4b61316b565b610f5482611a7a565b9050919050565b6000600560008473ffffffffffffffffffffffffffffffffffffffff1673ffffffffffffffffffffffffffffffffffffffff16815260200190815260200160002060008373ffffffffffffffffffffffffffffffffffffffff1673ffffffffffffffffffffffffffffffffffffffff16815260200190815260200160002060009054906101000a900460ff16905092915050565b60007f01ffc9a7000000000000000000000000000000000000000000000000000000007bffffffffffffffffffffffffffffffffffffffffffffffffffffffff1916827bffffffffffffffffffffffffffffffffffffffffffffffffffffffff1916149050919050565b61106281611943565b6110a1576040517f08c379a000000000000000000000000000000000000000000000000000000000815260040161109890614329565b60405180910390fd5b50565b600033905090565b816004600083815260200190815260200160002060006101000a81548173ffffffffffffffffffffffffffffffffffffffff021916908373ffffffffffffffffffffffffffffffffffffffff160217905550808273ffffffffffffffffffffffffffffffffffffffff1661111f83610c1a565b73ffffffffffffffffffffffffffffffffffffffff167f8c5be1e5ebec7d5bd14f71427d1e84f3dd0314c0f7b2291e5b200ac8c7c3b92560405160405180910390a45050565b60008061117183610c1a565b90508073ffffffffffffffffffffffffffffffffffffffff168473ffffffffffffffffffffffffffffffffffffffff1614806111b357506111b28185610f5b565b5b806111f157508373ffffffffffffffffffffffffffffffffffffffff166111d9846108c8565b73ffffffffffffffffffffffffffffffffffffffff16145b91505092915050565b8273ffffffffffffffffffffffffffffffffffffffff1661121a82610c1a565b73ffffffffffffffffffffffffffffffffffffffff1614611270576040517f08c379a00000000000000000000000000000000000000000000000000000000081526004016112679061453f565b60405180910390fd5b600073ffffffffffffffffffffffffffffffffffffffff168273ffffffffffffffffffffffffffffffffffffffff16036112df576040517f08c379a00000000000000000000000000000000000000000000000000000000081526004016112d6906145d1565b60405180910390fd5b6112ec8383836001611b35565b8273ffffffffffffffffffffffffffffffffffffffff1661130c82610c1a565b73ffffffffffffffffffffffffffffffffffffffff1614611362576040517f08c379a00000000000000000000000000000000000000000000000000000000081526004016113599061453f565b60405180910390fd5b6004600082815260200190815260200160002060006101000a81549073ffffffffffffffffffffffffffffffffffffffff02191690556001600360008573ffffffffffffffffffffffffffffffffffffffff1673ffffffffffffffffffffffffffffffffffffffff168152602001908152602001600020600082825403925050819055506001600360008473ffffffffffffffffffffffffffffffffffffffff1673ffffffffffffffffffffffffffffffffffffffff16815260200190815260200160002060008282540192505081905550816002600083815260200190815260200160002060006101000a81548173ffffffffffffffffffffffffffffffffffffffff021916908373ffffffffffffffffffffffffffffffffffffffff160217905550808273ffffffffffffffffffffffffffffffffffffffff168473ffffffffffffffffffffffffffffffffffffffff167fddf252ad1be2c89b69c2b068fc378daa952ba7f163c4a11628f55a4df523b3ef60405160405180910390a46114ee8383836001611c5b565b505050565b6114fb613149565b602182511461153f576040517f08c379a00000000000000000000000000000000000000000000000000000000081526004016115369061463d565b60405180910390fd5b6000806001840151915060218401519050600061155c8383611c61565b90506040518060400160405280838152602001828152509350505050919050565b60006002600083815260200190815260200160002060009054906101000a900473ffffffffffffffffffffffffffffffffffffffff169050919050565b8173ffffffffffffffffffffffffffffffffffffffff168373ffffffffffffffffffffffffffffffffffffffff1603611628576040517f08c379a000000000000000000000000000000000000000000000000000000000815260040161161f906146a9565b60405180910390fd5b80600560008573ffffffffffffffffffffffffffffffffffffffff1673ffffffffffffffffffffffffffffffffffffffff16815260200190815260200160002060008473ffffffffffffffffffffffffffffffffffffffff1673ffffffffffffffffffffffffffffffffffffffff16815260200190815260200160002060006101000a81548160ff0219169083151502179055508173ffffffffffffffffffffffffffffffffffffffff168373ffffffffffffffffffffffffffffffffffffffff167f17307eab39ab6107e8899845ad3d59bd9653f200f220920489ca2b5937696c31836040516117199190613241565b60405180910390a3505050565b6117318484846111fa565b61173d84848484611c9a565b61177c576040517f08c379a00000000000000000000000000000000000000000000000000000000081526004016117739061473b565b60405180910390fd5b50505050565b60008060006117918685611e21565b91509150600080611846876003600481106117af576117ae61475b565b5b60200201517f79be667ef9dcbbac55a06295ce870b07029bfcdb2dce28d959f2815b16f817987f483ada7726a3c4655da4fbfc0e1108a8fd17b448a68554199c47d08ffb10d4b88a60026004811061180a5761180961475b565b5b60200201518c6000600281106118235761182261475b565b5b60200201518d60016002811061183c5761183b61475b565b5b6020020151611fc2565b915091506000806118bb896003600481106118645761186361475b565b5b602002015187878c60026004811061187f5761187e61475b565b5b60200201518d6000600481106118985761189761475b565b5b60200201518e6001600481106118b1576118b061475b565b5b6020020151611fc2565b91509150600061190187878c6000600481106118da576118d961475b565b5b60200201518d6001600481106118f3576118f261475b565b5b602002015189898989612036565b9050896002600481106119175761191661475b565b5b60200201518160801c6fffffffffffffffffffffffffffffffff16149750505050505050509392505050565b60008073ffffffffffffffffffffffffffffffffffffffff166119658361157d565b73ffffffffffffffffffffffffffffffffffffffff1614159050919050565b6060600860405160200161199891906148a5565b604051602081830303815290604052905090565b6060600060016119bb84612104565b01905060008167ffffffffffffffff8111156119da576119d96134c1565b5b6040519080825280601f01601f191660200182016040528015611a0c5781602001600182028036833780820191505090505b509050600082602001820190505b600115611a6f578080600190039150507f3031323334353637383961626364656600000000000000000000000000000000600a86061a8153600a8581611a6357611a626148d2565b5b04945060008503611a1a575b819350505050919050565b611a8261316b565b6051825114611ac6576040517f08c379a0000000000000000000000000000000000000000000000000000000008152600401611abd9061494d565b60405180910390fd5b600080600080600186015193506021860151925060318601519150605186015190506000611af48585611c61565b90506040518060800160405280858152602001828152602001846fffffffffffffffffffffffffffffffff1681526020018381525095505050505050919050565b6001811115611c5557600073ffffffffffffffffffffffffffffffffffffffff168473ffffffffffffffffffffffffffffffffffffffff1614611bc95780600360008673ffffffffffffffffffffffffffffffffffffffff1673ffffffffffffffffffffffffffffffffffffffff1681526020019081526020016000206000828254611bc1919061499c565b925050819055505b600073ffffffffffffffffffffffffffffffffffffffff168373ffffffffffffffffffffffffffffffffffffffff1614611c545780600360008573ffffffffffffffffffffffffffffffffffffffff1673ffffffffffffffffffffffffffffffffffffffff1681526020019081526020016000206000828254611c4c91906149d0565b925050819055505b5b50505050565b50505050565b6000611c928383600060077ffffffffffffffffffffffffffffffffffffffffffffffffffffffffefffffc2f612257565b905092915050565b6000611cbb8473ffffffffffffffffffffffffffffffffffffffff16612372565b15611e14578373ffffffffffffffffffffffffffffffffffffffff1663150b7a02611ce46110a4565b8786866040518563ffffffff1660e01b8152600401611d069493929190614a4e565b6020604051808303816000875af1925050508015611d4257506040513d601f19601f82011682018060405250810190611d3f9190614aaf565b60015b611dc4573d8060008114611d72576040519150601f19603f3d011682016040523d82523d6000602084013e611d77565b606091505b506000815103611dbc576040517f08c379a0000000000000000000000000000000000000000000000000000000008152600401611db39061473b565b60405180910390fd5b805181602001fd5b63150b7a0260e01b7bffffffffffffffffffffffffffffffffffffffffffffffffffffffff1916817bffffffffffffffffffffffffffffffffffffffffffffffffffffffff191614915050611e19565b600190505b949350505050565b600080600060fe6001611e6487600060028110611e4157611e4061475b565b5b602002015188600160028110611e5a57611e5961475b565b5b6020020151612395565b86604051602001611e789493929190614b12565b604051602081830303815290604052905060005b6101008160ff161015611f7f57600060028383604051602001611eb0929190614b58565b604051602081830303815290604052604051611ecc9190613ea7565b602060405180830381855afa158015611ee9573d6000803e3d6000fd5b5050506040513d601f19601f82011682018060405250810190611f0c9190614b95565b905060008160001c90506000611f23600283611c61565b9050611f548282600060077ffffffffffffffffffffffffffffffffffffffffffffffffffffffffefffffc2f6123df565b15611f69578181965096505050505050611fbb565b5050508080611f7790614bc2565b915050611e8c565b506040517f08c379a0000000000000000000000000000000000000000000000000000000008152600401611fb290614c37565b60405180910390fd5b9250929050565b600080600080611fd38a8a8a6124ad565b91509150600080611fe58989896124ad565b9150915060008061201b8686868660007ffffffffffffffffffffffffffffffffffffffffffffffffffffffffefffffc2f6124ea565b91509150818197509750505050505050965096945050505050565b60008060fe60026120478c8c612395565b6120518b8b612395565b61205b8a8a612395565b6120658989612395565b60405160200161207a96959493929190614c57565b6040516020818303038152906040529050600060028260405161209d9190613ea7565b602060405180830381855afa1580156120ba573d6000803e3d6000fd5b5050506040513d601f19601f820116820180604052508101906120dd9190614b95565b90506000604051826000820152600081015191505080935050505098975050505050505050565b600080600090507a184f03e93ff9f4daa797ed6e38ed64bf6a1f0100000000000000008310612162577a184f03e93ff9f4daa797ed6e38ed64bf6a1f0100000000000000008381612158576121576148d2565b5b0492506040810190505b6d04ee2d6d415b85acef8100000000831061219f576d04ee2d6d415b85acef81000000008381612195576121946148d2565b5b0492506020810190505b662386f26fc1000083106121ce57662386f26fc1000083816121c4576121c36148d2565b5b0492506010810190505b6305f5e10083106121f7576305f5e10083816121ed576121ec6148d2565b5b0492506008810190505b612710831061221c576127108381612212576122116148d2565b5b0492506004810190505b6064831061223f5760648381612235576122346148d2565b5b0492506002810190505b600a831061224e576001810190505b80915050919050565b600060028660ff16148061226e575060038660ff16145b6122ad576040517f08c379a00000000000000000000000000000000000000000000000000000000081526004016122a490614d29565b60405180910390fd5b600082806122be576122bd6148d2565b5b83806122cd576122cc6148d2565b5b8585806122dd576122dc6148d2565b5b888a090884806122f0576122ef6148d2565b5b85806122ff576122fe6148d2565b5b898a09890908905061232a81600460018661231a91906149d0565b6123249190614d49565b8561251e565b905060008060028960ff168461234091906149d0565b61234a9190614d7a565b1461236057818461235b919061499c565b612362565b815b9050809250505095945050505050565b6000808273ffffffffffffffffffffffffffffffffffffffff163b119050919050565b606060006002836123a69190614d7a565b60026123b291906149d0565b905080846040516020016123c7929190614dcc565b60405160208183030381529060405291505092915050565b600085600014806123f05750818610155b806123fb5750846000145b806124065750818510155b1561241457600090506124a4565b60008280612425576124246148d2565b5b86870990506000838061243b5761243a6148d2565b5b88858061244b5761244a6148d2565b5b8a8b090990506000861461247f578380612468576124676148d2565b5b8480612477576124766148d2565b5b878a09820890505b6000851461249c578380612496576124956148d2565b5b85820890505b808214925050505b95945050505050565b6000806124de85858560007ffffffffffffffffffffffffffffffffffffffffffffffffffffffffefffffc2f612616565b91509150935093915050565b6000806000806124fb888887612650565b9150915061250d8a8a84848a8a612677565b935093505050965096945050505050565b6000808203612562576040517f08c379a000000000000000000000000000000000000000000000000000000000815260040161255990614e44565b60405180910390fd5b60008403612573576000905061260f565b60008303612584576001905061260f565b60006001905060007f800000000000000000000000000000000000000000000000000000000000000090505b600081111561260957838186161515870a85848509099150836002820486161515870a85848509099150836004820486161515870a85848509099150836008820486161515870a858485090991506010810490506125b0565b81925050505b9392505050565b600080600080600061262d8a8a8a60018b8b61270a565b92509250925061263f838383896127a9565b945094505050509550959350505050565b60008084838585612661919061499c565b61266b9190614d7a565b91509150935093915050565b6000806000806000888b036126cd5760008680612697576126966148d2565b5b898c08036126ae57600080945094505050506126ff565b6126bc8b8b60018a8a612820565b8093508194508295505050506126eb565b6126de8b8b60018c8c60018c6129de565b8093508194508295505050505b6126f7838383896127a9565b945094505050505b965096945050505050565b60008060008089036127245787878792509250925061279d565b60008990506000806000600190505b6000841461278f5760006001851614612762576127558383838f8f8f8e6129de565b8093508194508295505050505b60028461276f9190614d49565b935061277e8c8c8c8c8c612820565b809c50819d50829e50505050612733565b828282965096509650505050505b96509650969350505050565b60008060006127b8858561305d565b9050600084806127cb576127ca6148d2565b5b8283099050600085806127e1576127e06148d2565b5b828a099050600086806127f7576127f66148d2565b5b8780612806576128056148d2565b5b8486098a0990508181955095505050505094509492505050565b600080600080860361283a578787879250925092506129d3565b6000848061284b5761284a6148d2565b5b898a09905060008580612861576128606148d2565b5b898a09905060008680612877576128766148d2565b5b898a0990506000878061288d5761288c6148d2565b5b888061289c5761289b6148d2565b5b848e096004099050600088806128b5576128b46148d2565b5b89806128c4576128c36148d2565b5b8a806128d3576128d26148d2565b5b8586098c098a806128e7576128e66148d2565b5b8760030908905088806128fd576128fc6148d2565b5b898061290c5761290b6148d2565b5b8384088a61291a919061499c565b8a80612929576129286148d2565b5b838409089450888061293e5761293d6148d2565b5b898061294d5761294c6148d2565b5b8a8061295c5761295b6148d2565b5b8687096008098a61296d919061499c565b8a8061297c5761297b6148d2565b5b8b8061298b5761298a6148d2565b5b888d612997919061499c565b8608840908935088806129ad576129ac6148d2565b5b89806129bc576129bb6148d2565b5b8c8e09600209925084848497509750975050505050505b955095509592505050565b6000806000808a1480156129f25750600089145b15612a0557868686925092509250613050565b600087148015612a155750600086145b15612a2857898989925092509250613050565b612a3061316b565b8480612a3f57612a3e6148d2565b5b898a0981600060048110612a5657612a5561475b565b5b6020020181815250508480612a6e57612a6d6148d2565b5b81600060048110612a8257612a8161475b565b5b60200201518a0981600160048110612a9d57612a9c61475b565b5b6020020181815250508480612ab557612ab46148d2565b5b86870981600260048110612acc57612acb61475b565b5b6020020181815250508480612ae457612ae36148d2565b5b81600260048110612af857612af761475b565b5b6020020151870981600360048110612b1357612b1261475b565b5b60200201818152505060405180608001604052808680612b3657612b356148d2565b5b83600260048110612b4a57612b4961475b565b5b60200201518e0981526020018680612b6557612b646148d2565b5b83600360048110612b7957612b7861475b565b5b60200201518d0981526020018680612b9457612b936148d2565b5b83600060048110612ba857612ba761475b565b5b60200201518b0981526020018680612bc357612bc26148d2565b5b83600160048110612bd757612bd661475b565b5b60200201518a09815250905080600260048110612bf757612bf661475b565b5b602002015181600060048110612c1057612c0f61475b565b5b6020020151141580612c52575080600360048110612c3157612c3061475b565b5b602002015181600160048110612c4a57612c4961475b565b5b602002015114155b612c91576040517f08c379a0000000000000000000000000000000000000000000000000000000008152600401612c8890614eb0565b60405180910390fd5b612c9961316b565b8580612ca857612ca76148d2565b5b82600060048110612cbc57612cbb61475b565b5b602002015187612ccc919061499c565b83600260048110612ce057612cdf61475b565b5b60200201510881600060048110612cfa57612cf961475b565b5b6020020181815250508580612d1257612d116148d2565b5b82600160048110612d2657612d2561475b565b5b602002015187612d36919061499c565b83600360048110612d4a57612d4961475b565b5b60200201510881600160048110612d6457612d6361475b565b5b6020020181815250508580612d7c57612d7b6148d2565b5b81600060048110612d9057612d8f61475b565b5b602002015182600060048110612da957612da861475b565b5b60200201510981600260048110612dc357612dc261475b565b5b6020020181815250508580612ddb57612dda6148d2565b5b81600060048110612def57612dee61475b565b5b602002015182600260048110612e0857612e0761475b565b5b60200201510981600360048110612e2257612e2161475b565b5b60200201818152505060008680612e3c57612e3b6148d2565b5b82600360048110612e5057612e4f61475b565b5b602002015188612e60919061499c565b8880612e6f57612e6e6148d2565b5b84600160048110612e8357612e8261475b565b5b602002015185600160048110612e9c57612e9b61475b565b5b6020020151090890508680612eb457612eb36148d2565b5b8780612ec357612ec26148d2565b5b8880612ed257612ed16148d2565b5b84600260048110612ee657612ee561475b565b5b602002015186600060048110612eff57612efe61475b565b5b60200201510960020988612f13919061499c565b8208905060008780612f2857612f276148d2565b5b8880612f3757612f366148d2565b5b838a612f43919061499c565b8a80612f5257612f516148d2565b5b86600260048110612f6657612f6561475b565b5b602002015188600060048110612f7f57612f7e61475b565b5b6020020151090884600160048110612f9a57612f9961475b565b5b60200201510990508780612fb157612fb06148d2565b5b8880612fc057612fbf6148d2565b5b84600360048110612fd457612fd361475b565b5b602002015186600160048110612fed57612fec61475b565b5b60200201510989612ffe919061499c565b8208905060008880613013576130126148d2565b5b8980613022576130216148d2565b5b8b8f09856000600481106130395761303861475b565b5b602002015109905082828297509750975050505050505b9750975097945050505050565b600080831415801561306f5750818314155b801561307c575060008214155b6130bb576040517f08c379a00000000000000000000000000000000000000000000000000000000081526004016130b290614f1c565b60405180910390fd5b60008060019050600084905060005b6000871461313c5786826130de9190614d49565b90508286806130f0576130ef6148d2565b5b87806130ff576130fe6148d2565b5b8584098861310d919061499c565b860880945081955050508687826131249190614f3c565b8361312f919061499c565b80985081935050506130ca565b8394505050505092915050565b6040518060400160405280600290602082028036833780820191505090505090565b6040518060800160405280600490602082028036833780820191505090505090565b6000604051905090565b600080fd5b600080fd5b60007fffffffff0000000000000000000000000000000000000000000000000000000082169050919050565b6131d6816131a1565b81146131e157600080fd5b50565b6000813590506131f3816131cd565b92915050565b60006020828403121561320f5761320e613197565b5b600061321d848285016131e4565b91505092915050565b60008115159050919050565b61323b81613226565b82525050565b60006020820190506132566000830184613232565b92915050565b600073ffffffffffffffffffffffffffffffffffffffff82169050919050565b60006132878261325c565b9050919050565b6132978161327c565b81146132a257600080fd5b50565b6000813590506132b48161328e565b92915050565b6000819050919050565b6132cd816132ba565b81146132d857600080fd5b50565b6000813590506132ea816132c4565b92915050565b6000806040838503121561330757613306613197565b5b6000613315858286016132a5565b9250506020613326858286016132db565b9150509250929050565b600081519050919050565b600082825260208201905092915050565b60005b8381101561336a57808201518184015260208101905061334f565b60008484015250505050565b6000601f19601f8301169050919050565b600061339282613330565b61339c818561333b565b93506133ac81856020860161334c565b6133b581613376565b840191505092915050565b600060208201905081810360008301526133da8184613387565b905092915050565b6000602082840312156133f8576133f7613197565b5b6000613406848285016132db565b91505092915050565b600061341a8261325c565b9050919050565b61342a8161340f565b82525050565b60006020820190506134456000830184613421565b92915050565b6134548161340f565b811461345f57600080fd5b50565b6000813590506134718161344b565b92915050565b6000806040838503121561348e5761348d613197565b5b600061349c85828601613462565b92505060206134ad858286016132db565b9150509250929050565b600080fd5b600080fd5b7f4e487b7100000000000000000000000000000000000000000000000000000000600052604160045260246000fd5b6134f982613376565b810181811067ffffffffffffffff82111715613518576135176134c1565b5b80604052505050565b600061352b61318d565b905061353782826134f0565b919050565b600067ffffffffffffffff821115613557576135566134c1565b5b61356082613376565b9050602081019050919050565b82818337600083830152505050565b600061358f61358a8461353c565b613521565b9050828152602081018484840111156135ab576135aa6134bc565b5b6135b684828561356d565b509392505050565b600082601f8301126135d3576135d26134b7565b5b81356135e384826020860161357c565b91505092915050565b6000819050919050565b6135ff816135ec565b811461360a57600080fd5b50565b60008135905061361c816135f6565b92915050565b6000806040838503121561363957613638613197565b5b600083013567ffffffffffffffff8111156136575761365661319c565b5b613663858286016135be565b92505060206136748582860161360d565b9150509250929050565b60008060006060848603121561369757613696613197565b5b60006136a586828701613462565b93505060206136b686828701613462565b92505060406136c7868287016132db565b9150509250925092565b600060ff82169050919050565b6136e7816136d1565b82525050565b600060208201905061370260008301846136de565b92915050565b600067ffffffffffffffff821115613723576137226134c1565b5b61372c82613376565b9050602081019050919050565b600061374c61374784613708565b613521565b905082815260208101848484011115613768576137676134bc565b5b61377384828561356d565b509392505050565b600082601f8301126137905761378f6134b7565b5b81356137a0848260208601613739565b91505092915050565b6000602082840312156137bf576137be613197565b5b600082013567ffffffffffffffff8111156137dd576137dc61319c565b5b6137e98482850161377b565b91505092915050565b600060029050919050565b600081905092915050565b6000819050919050565b61381b816132ba565b82525050565b600061382d8383613812565b60208301905092915050565b6000602082019050919050565b61384f816137f2565b61385981846137fd565b925061386482613808565b8060005b8381101561389557815161387c8782613821565b965061388783613839565b925050600181019050613868565b505050505050565b60006040820190506138b26000830184613846565b92915050565b6000602082840312156138ce576138cd613197565b5b60006138dc84828501613462565b91505092915050565b6138ee816132ba565b82525050565b600060208201905061390960008301846138e5565b92915050565b61391881613226565b811461392357600080fd5b50565b6000813590506139358161390f565b92915050565b6000806040838503121561395257613951613197565b5b600061396085828601613462565b925050602061397185828601613926565b9150509250929050565b6000806000806080858703121561399557613994613197565b5b60006139a387828801613462565b94505060206139b487828801613462565b93505060406139c5878288016132db565b925050606085013567ffffffffffffffff8111156139e6576139e561319c565b5b6139f28782880161377b565b91505092959194509250565b600067ffffffffffffffff821115613a1957613a186134c1565b5b602082029050919050565b600080fd5b6000613a3c613a37846139fe565b613521565b90508060208402830185811115613a5657613a55613a24565b5b835b81811015613a7f5780613a6b88826132db565b845260208401935050602081019050613a58565b5050509392505050565b600082601f830112613a9e57613a9d6134b7565b5b6002613aab848285613a29565b91505092915050565b600067ffffffffffffffff821115613acf57613ace6134c1565b5b602082029050919050565b6000613aed613ae884613ab4565b613521565b90508060208402830185811115613b0757613b06613a24565b5b835b81811015613b305780613b1c88826132db565b845260208401935050602081019050613b09565b5050509392505050565b600082601f830112613b4f57613b4e6134b7565b5b6004613b5c848285613ada565b91505092915050565b600080600060e08486031215613b7e57613b7d613197565b5b6000613b8c86828701613a89565b9350506040613b9d86828701613b3a565b92505060c084013567ffffffffffffffff811115613bbe57613bbd61319c565b5b613bca8682870161377b565b9150509250925092565b600060049050919050565b600081905092915050565b6000819050919050565b6000602082019050919050565b613c0a81613bd4565b613c148184613bdf565b9250613c1f82613bea565b8060005b83811015613c50578151613c378782613821565b9650613c4283613bf4565b925050600181019050613c23565b505050505050565b6000608082019050613c6d6000830184613c01565b92915050565b60008060408385031215613c8a57613c89613197565b5b6000613c9885828601613462565b9250506020613ca985828601613462565b9150509250929050565b7f4f6e6c79206173736574206469737472696275746f722063616e2063616c6c2060008201527f746869732066756e6374696f6e2e000000000000000000000000000000000000602082015250565b6000613d0f602e8361333b565b9150613d1a82613cb3565b604082019050919050565b60006020820190508181036000830152613d3e81613d02565b9050919050565b7f4e487b7100000000000000000000000000000000000000000000000000000000600052602260045260246000fd5b60006002820490506001821680613d8c57607f821691505b602082108103613d9f57613d9e613d45565b5b50919050565b60008190508160005260206000209050919050565b60008154613dc781613d74565b613dd1818661333b565b94506001821660008114613dec5760018114613e0257613e35565b60ff198316865281151560200286019350613e35565b613e0b85613da5565b60005b83811015613e2d57815481890152600182019150602081019050613e0e565b808801955050505b50505092915050565b60006020820190508181036000830152613e588184613dba565b905092915050565b600081519050919050565b600081905092915050565b6000613e8182613e60565b613e8b8185613e6b565b9350613e9b81856020860161334c565b80840191505092915050565b6000613eb38284613e76565b915081905092915050565b7f4552433732313a20617070726f76616c20746f2063757272656e74206f776e6560008201527f7200000000000000000000000000000000000000000000000000000000000000602082015250565b6000613f1a60218361333b565b9150613f2582613ebe565b604082019050919050565b60006020820190508181036000830152613f4981613f0d565b9050919050565b7f4552433732313a20617070726f76652063616c6c6572206973206e6f7420746f60008201527f6b656e206f776e6572206f7220617070726f76656420666f7220616c6c000000602082015250565b6000613fac603d8361333b565b9150613fb782613f50565b604082019050919050565b60006020820190508181036000830152613fdb81613f9f565b9050919050565b60006020601f8301049050919050565b600082821b905092915050565b60006008830261402f7fffffffffffffffffffffffffffffffffffffffffffffffffffffffffffffffff82613ff2565b6140398683613ff2565b95508019841693508086168417925050509392505050565b6000819050919050565b600061407661407161406c846132ba565b614051565b6132ba565b9050919050565b6000819050919050565b6140908361405b565b6140a461409c8261407d565b848454613fff565b825550505050565b600090565b6140b96140ac565b6140c4818484614087565b505050565b5b818110156140e8576140dd6000826140b1565b6001810190506140ca565b5050565b601f82111561412d576140fe81613da5565b61410784613fe2565b81016020851015614116578190505b61412a61412285613fe2565b8301826140c9565b50505b505050565b600082821c905092915050565b600061415060001984600802614132565b1980831691505092915050565b6000614169838361413f565b9150826002028217905092915050565b61418282613330565b67ffffffffffffffff81111561419b5761419a6134c1565b5b6141a58254613d74565b6141b08282856140ec565b600060209050601f8311600181146141e357600084156141d1578287015190505b6141db858261415d565b865550614243565b601f1984166141f186613da5565b60005b82811015614219578489015182556001820191506020850194506020810190506141f4565b868310156142365784890151614232601f89168261413f565b8355505b6001600288020188555050505b505050505050565b7f4552433732313a2063616c6c6572206973206e6f7420746f6b656e206f776e6560008201527f72206f7220617070726f76656400000000000000000000000000000000000000602082015250565b60006142a7602d8361333b565b91506142b28261424b565b604082019050919050565b600060208201905081810360008301526142d68161429a565b9050919050565b7f4552433732313a20696e76616c696420746f6b656e2049440000000000000000600082015250565b600061431360188361333b565b915061431e826142dd565b602082019050919050565b6000602082019050818103600083015261434281614306565b9050919050565b7f4552433732313a2061646472657373207a65726f206973206e6f74206120766160008201527f6c6964206f776e65720000000000000000000000000000000000000000000000602082015250565b60006143a560298361333b565b91506143b082614349565b604082019050919050565b600060208201905081810360008301526143d481614398565b9050919050565b7f4552433732314d657461646174613a2055524920717565727920666f72206e6f60008201527f6e6578697374656e7420746f6b656e0000000000000000000000000000000000602082015250565b6000614437602f8361333b565b9150614442826143db565b604082019050919050565b600060208201905081810360008301526144668161442a565b9050919050565b600081905092915050565b600061448382613330565b61448d818561446d565b935061449d81856020860161334c565b80840191505092915050565b60006144b58285614478565b91506144c18284614478565b91508190509392505050565b7f4552433732313a207472616e736665722066726f6d20696e636f72726563742060008201527f6f776e6572000000000000000000000000000000000000000000000000000000602082015250565b600061452960258361333b565b9150614534826144cd565b604082019050919050565b600060208201905081810360008301526145588161451c565b9050919050565b7f4552433732313a207472616e7366657220746f20746865207a65726f2061646460008201527f7265737300000000000000000000000000000000000000000000000000000000602082015250565b60006145bb60248361333b565b91506145c68261455f565b604082019050919050565b600060208201905081810360008301526145ea816145ae565b9050919050565b7f4d616c666f726d656420636f6d7072657373656420454320706f696e74000000600082015250565b6000614627601d8361333b565b9150614632826145f1565b602082019050919050565b600060208201905081810360008301526146568161461a565b9050919050565b7f4552433732313a20617070726f766520746f2063616c6c657200000000000000600082015250565b600061469360198361333b565b915061469e8261465d565b602082019050919050565b600060208201905081810360008301526146c281614686565b9050919050565b7f4552433732313a207472616e7366657220746f206e6f6e20455243373231526560008201527f63656976657220696d706c656d656e7465720000000000000000000000000000602082015250565b600061472560328361333b565b9150614730826146c9565b604082019050919050565b6000602082019050818103600083015261475481614718565b9050919050565b7f4e487b7100000000000000000000000000000000000000000000000000000000600052603260045260246000fd5b7f697066733a2f2f00000000000000000000000000000000000000000000000000600082015250565b60006147c060078361446d565b91506147cb8261478a565b600782019050919050565b600081546147e381613d74565b6147ed818661446d565b94506001821660008114614808576001811461481d57614850565b60ff1983168652811515820286019350614850565b61482685613da5565b60005b8381101561484857815481890152600182019150602081019050614829565b838801955050505b50505092915050565b7f2f00000000000000000000000000000000000000000000000000000000000000600082015250565b600061488f60018361446d565b915061489a82614859565b600182019050919050565b60006148b0826147b3565b91506148bc82846147d6565b91506148c782614882565b915081905092915050565b7f4e487b7100000000000000000000000000000000000000000000000000000000600052601260045260246000fd5b7f4d616c666f726d6564205652462070726f6f6600000000000000000000000000600082015250565b600061493760138361333b565b915061494282614901565b602082019050919050565b600060208201905081810360008301526149668161492a565b9050919050565b7f4e487b7100000000000000000000000000000000000000000000000000000000600052601160045260246000fd5b60006149a7826132ba565b91506149b2836132ba565b92508282039050818111156149ca576149c961496d565b5b92915050565b60006149db826132ba565b91506149e6836132ba565b92508282019050808211156149fe576149fd61496d565b5b92915050565b600082825260208201905092915050565b6000614a2082613e60565b614a2a8185614a04565b9350614a3a81856020860161334c565b614a4381613376565b840191505092915050565b6000608082019050614a636000830187613421565b614a706020830186613421565b614a7d60408301856138e5565b8181036060830152614a8f8184614a15565b905095945050505050565b600081519050614aa9816131cd565b92915050565b600060208284031215614ac557614ac4613197565b5b6000614ad384828501614a9a565b91505092915050565b60008160f81b9050919050565b6000614af482614adc565b9050919050565b614b0c614b07826136d1565b614ae9565b82525050565b6000614b1e8287614afb565b600182019150614b2e8286614afb565b600182019150614b3e8285613e76565b9150614b4a8284613e76565b915081905095945050505050565b6000614b648285613e76565b9150614b708284614afb565b6001820191508190509392505050565b600081519050614b8f816135f6565b92915050565b600060208284031215614bab57614baa613197565b5b6000614bb984828501614b80565b91505092915050565b6000614bcd826136d1565b915060ff8203614be057614bdf61496d565b5b600182019050919050565b7f4e6f2076616c696420706f696e742077617320666f756e640000000000000000600082015250565b6000614c2160188361333b565b9150614c2c82614beb565b602082019050919050565b60006020820190508181036000830152614c5081614c14565b9050919050565b6000614c638289614afb565b600182019150614c738288614afb565b600182019150614c838287613e76565b9150614c8f8286613e76565b9150614c9b8285613e76565b9150614ca78284613e76565b9150819050979650505050505050565b7f496e76616c696420636f6d7072657373656420454320706f696e74207072656660008201527f6978000000000000000000000000000000000000000000000000000000000000602082015250565b6000614d1360228361333b565b9150614d1e82614cb7565b604082019050919050565b60006020820190508181036000830152614d4281614d06565b9050919050565b6000614d54826132ba565b9150614d5f836132ba565b925082614d6f57614d6e6148d2565b5b828204905092915050565b6000614d85826132ba565b9150614d90836132ba565b925082614da057614d9f6148d2565b5b828206905092915050565b6000819050919050565b614dc6614dc1826132ba565b614dab565b82525050565b6000614dd88285614afb565b600182019150614de88284614db5565b6020820191508190509392505050565b7f4d6f64756c7573206973207a65726f0000000000000000000000000000000000600082015250565b6000614e2e600f8361333b565b9150614e3982614df8565b602082019050919050565b60006020820190508181036000830152614e5d81614e21565b9050919050565b7f557365206a6163446f75626c652066756e6374696f6e20696e73746561640000600082015250565b6000614e9a601e8361333b565b9150614ea582614e64565b602082019050919050565b60006020820190508181036000830152614ec981614e8d565b9050919050565b7f496e76616c6964206e756d626572000000000000000000000000000000000000600082015250565b6000614f06600e8361333b565b9150614f1182614ed0565b602082019050919050565b60006020820190508181036000830152614f3581614ef9565b9050919050565b6000614f47826132ba565b9150614f52836132ba565b9250828202614f60816132ba565b91508282048414831517614f7757614f7661496d565b5b509291505056fea26469706673582212203b3950d9b54fe6ff5af8c7be3ed00d0ec6f3b7515165fde441190ff02682054064736f6c63430008110033",
  "immutableReferences": {
    "8696": [
      {
        "length": 32,
        "start": 1644
      },
      {
        "length": 32,
        "start": 2599
      },
      {
        "length": 32,
        "start": 3743
      }
    ],
    "8698": [
      {
        "length": 32,
        "start": 3008
      }
    ]
  },
  "source": "pragma solidity ^0.8.5;\n\nimport \"@openzeppelin/contracts/token/ERC721/ERC721.sol\";\n\nimport \"@openzeppelin/contracts/utils/Counters.sol\";\n\nimport \"@openzeppelin/contracts/utils/cryptography/MerkleProof.sol\";\n\nimport \"@openzeppelin/contracts/utils/Strings.sol\";\n\nimport \"vrf-solidity/contracts/VRF.sol\";\n\nimport \"../nft-protocol/nft-types/Asset.sol\";\n\ncontract FatCats is ERC721, Asset{\n\n    using Counters for Counters.Counter;\n    using Strings for uint256;\n\n    address public metadataRegister;\n\n    bytes32 root;\n\n    uint immutable mintFee;\n\n    uint immutable maxMint;\n\n    string public baseCID;\n\n    //bool public enableSubCID = false;\n\n    constructor(uint _mintFee, uint _maxMint)ERC721(\"FatCats\", \"FC\")Asset(1){\n        mintFee = _mintFee;\n        maxMint = _maxMint;\n    }\n\n    function setBaseCID(string memory _baseCID, bytes32 _root) public onlyDistributor{\n        baseCID = _baseCID;\n        root = _root;\n    }\n\n    function requestBaseCIDVerification(address payable _metadataRegister, uint _gas) public payable onlyDistributor{\n        metadataRegister = _metadataRegister;\n        _metadataRegister.call{value: msg.value}(abi.encodeWithSignature(\"requestVerification(string calldata _cid)\", baseCID));\n    }\n\n    /*\n    function enableSubCIDVerification() public onlyDistributor{\n        enableSubCID = true;\n    }\n\n    function requestSubCIDVerification(uint tokenId, uint _cid) public payable{\n        require(enableSubCID, \"Sub CID verification has not yet been enabled.\");\n        require(ownerOf(tokenId) == msg.sender, \"You are not the owner of given tokenId\");\n        require();\n        metadataRegister.call{value: msg.value}(abi.encodeWithSignature(\"requestVerification(string calldata _cid)\", baseCID));\n    }*/\n\n    function verify(uint256[2] memory _publicKey, uint256[4] memory _proof, bytes memory _message) public pure returns (bool) {\n        return VRF.verify(_publicKey, _proof, _message);\n    }\n\n    function decodeProof(bytes memory _proof) external pure returns(uint[4] memory _decodedProof){\n        return VRF.decodeProof(_proof);\n    }\n\n    function decodePoint(bytes memory _point) public pure returns (uint[2] memory) {\n        return VRF.decodePoint(_point);\n    }\n\n    function mint() public payable{\n\n    }\n\n    function _baseURI() internal override view returns(string memory){\n        return string(abi.encodePacked(\"ipfs://\", baseCID, \"/\"));\n    }\n\n    function tokenURI(uint tokenId) public override view returns(string memory){\n        require(_exists(tokenId), \"ERC721Metadata: URI query for nonexistent token\");\n        return string(abi.encodePacked(_baseURI(), tokenId.toString()));\n    }\n\n\n}",
  "sourcePath": "/home/stephensb/sb-labs/feed/contracts/fat-cats/FatCats.sol",
  "compiler": {
    "name": "solc",
    "version": "0.8.17+commit.8df45f5f.Emscripten.clang"
  },
  "schemaVersion": "3.4.11",
  "updatedAt": "2023-03-09T01:48:30.757Z",
  "devdoc": {
    "kind": "dev",
    "methods": {
      "approve(address,uint256)": {
        "details": "See {IERC721-approve}."
      },
      "balanceOf(address)": {
        "details": "See {IERC721-balanceOf}."
      },
      "getApproved(uint256)": {
        "details": "See {IERC721-getApproved}."
      },
      "isApprovedForAll(address,address)": {
        "details": "See {IERC721-isApprovedForAll}."
      },
      "name()": {
        "details": "See {IERC721Metadata-name}."
      },
      "ownerOf(uint256)": {
        "details": "See {IERC721-ownerOf}."
      },
      "safeTransferFrom(address,address,uint256)": {
        "details": "See {IERC721-safeTransferFrom}."
      },
      "safeTransferFrom(address,address,uint256,bytes)": {
        "details": "See {IERC721-safeTransferFrom}."
      },
      "setApprovalForAll(address,bool)": {
        "details": "See {IERC721-setApprovalForAll}."
      },
      "supportsInterface(bytes4)": {
        "details": "See {IERC165-supportsInterface}."
      },
      "symbol()": {
        "details": "See {IERC721Metadata-symbol}."
      },
      "tokenURI(uint256)": {
        "details": "See {IERC721Metadata-tokenURI}."
      },
      "transferFrom(address,address,uint256)": {
        "details": "See {IERC721-transferFrom}."
      }
    },
    "version": 1
  },
  "userdoc": {
    "kind": "user",
    "methods": {},
    "version": 1
  }
}