{
  "contractName": "FeedViewer",
  "abi": [
    {
      "inputs": [
        {
          "internalType": "address",
          "name": "_userRegister",
          "type": "address"
        },
        {
          "internalType": "address",
          "name": "_feed",
          "type": "address"
        }
      ],
      "stateMutability": "nonpayable",
      "type": "constructor"
    },
    {
      "inputs": [
        {
          "internalType": "uint256",
          "name": "_postId",
          "type": "uint256"
        }
      ],
      "name": "retrieve_post",
      "outputs": [
        {
          "components": [
            {
              "internalType": "address",
              "name": "_user",
              "type": "address"
            },
            {
              "internalType": "string",
              "name": "_cid",
              "type": "string"
            },
            {
              "internalType": "uint256",
              "name": "_index",
              "type": "uint256"
            },
            {
              "internalType": "uint256",
              "name": "_totalComments",
              "type": "uint256"
            },
            {
              "internalType": "uint256",
              "name": "_totalDonations",
              "type": "uint256"
            },
            {
              "internalType": "uint256",
              "name": "_totalDonated",
              "type": "uint256"
            },
            {
              "internalType": "uint256",
              "name": "_reposts",
              "type": "uint256"
            },
            {
              "internalType": "uint256",
              "name": "_block",
              "type": "uint256"
            },
            {
              "internalType": "uint256",
              "name": "_timestamp",
              "type": "uint256"
            }
          ],
          "internalType": "struct FeedViewer.post_info",
          "name": "_post",
          "type": "tuple"
        }
      ],
      "stateMutability": "view",
      "type": "function"
    },
    {
      "inputs": [
        {
          "internalType": "address",
          "name": "_following",
          "type": "address"
        },
        {
          "internalType": "uint256",
          "name": "_start",
          "type": "uint256"
        },
        {
          "internalType": "uint256",
          "name": "_end",
          "type": "uint256"
        }
      ],
      "name": "retrieve_posts",
      "outputs": [
        {
          "components": [
            {
              "internalType": "address",
              "name": "_user",
              "type": "address"
            },
            {
              "internalType": "string",
              "name": "_cid",
              "type": "string"
            },
            {
              "internalType": "uint256",
              "name": "_index",
              "type": "uint256"
            },
            {
              "internalType": "uint256",
              "name": "_totalComments",
              "type": "uint256"
            },
            {
              "internalType": "uint256",
              "name": "_totalDonations",
              "type": "uint256"
            },
            {
              "internalType": "uint256",
              "name": "_totalDonated",
              "type": "uint256"
            },
            {
              "internalType": "uint256",
              "name": "_reposts",
              "type": "uint256"
            },
            {
              "internalType": "uint256",
              "name": "_block",
              "type": "uint256"
            },
            {
              "internalType": "uint256",
              "name": "_timestamp",
              "type": "uint256"
            }
          ],
          "internalType": "struct FeedViewer.post_info[]",
          "name": "_posts",
          "type": "tuple[]"
        }
      ],
      "stateMutability": "view",
      "type": "function"
    },
    {
      "inputs": [
        {
          "internalType": "uint256",
          "name": "_start",
          "type": "uint256"
        },
        {
          "internalType": "uint256",
          "name": "_end",
          "type": "uint256"
        }
      ],
      "name": "retrieve_posts",
      "outputs": [
        {
          "components": [
            {
              "internalType": "address",
              "name": "_user",
              "type": "address"
            },
            {
              "internalType": "string",
              "name": "_cid",
              "type": "string"
            },
            {
              "internalType": "uint256",
              "name": "_index",
              "type": "uint256"
            },
            {
              "internalType": "uint256",
              "name": "_totalComments",
              "type": "uint256"
            },
            {
              "internalType": "uint256",
              "name": "_totalDonations",
              "type": "uint256"
            },
            {
              "internalType": "uint256",
              "name": "_totalDonated",
              "type": "uint256"
            },
            {
              "internalType": "uint256",
              "name": "_reposts",
              "type": "uint256"
            },
            {
              "internalType": "uint256",
              "name": "_block",
              "type": "uint256"
            },
            {
              "internalType": "uint256",
              "name": "_timestamp",
              "type": "uint256"
            }
          ],
          "internalType": "struct FeedViewer.post_info[]",
          "name": "_posts",
          "type": "tuple[]"
        }
      ],
      "stateMutability": "view",
      "type": "function"
    },
    {
      "inputs": [
        {
          "internalType": "uint256",
          "name": "_postId",
          "type": "uint256"
        },
        {
          "internalType": "uint256",
          "name": "_commentId",
          "type": "uint256"
        }
      ],
      "name": "retrieve_comment",
      "outputs": [
        {
          "components": [
            {
              "internalType": "address",
              "name": "_user",
              "type": "address"
            },
            {
              "internalType": "string",
              "name": "_cid",
              "type": "string"
            },
            {
              "internalType": "uint256",
              "name": "_totalDonations",
              "type": "uint256"
            },
            {
              "internalType": "uint256",
              "name": "_totalDonated",
              "type": "uint256"
            },
            {
              "internalType": "uint256",
              "name": "_block",
              "type": "uint256"
            },
            {
              "internalType": "uint256",
              "name": "_timestamp",
              "type": "uint256"
            }
          ],
          "internalType": "struct FeedViewer.comment_info",
          "name": "_comment",
          "type": "tuple"
        }
      ],
      "stateMutability": "view",
      "type": "function"
    },
    {
      "inputs": [
        {
          "internalType": "address",
          "name": "_following",
          "type": "address"
        },
        {
          "internalType": "uint256",
          "name": "_postNum",
          "type": "uint256"
        },
        {
          "internalType": "uint256",
          "name": "_start",
          "type": "uint256"
        },
        {
          "internalType": "uint256",
          "name": "_end",
          "type": "uint256"
        }
      ],
      "name": "retrieve_comments",
      "outputs": [
        {
          "components": [
            {
              "internalType": "address",
              "name": "_user",
              "type": "address"
            },
            {
              "internalType": "string",
              "name": "_cid",
              "type": "string"
            },
            {
              "internalType": "uint256",
              "name": "_totalDonations",
              "type": "uint256"
            },
            {
              "internalType": "uint256",
              "name": "_totalDonated",
              "type": "uint256"
            },
            {
              "internalType": "uint256",
              "name": "_block",
              "type": "uint256"
            },
            {
              "internalType": "uint256",
              "name": "_timestamp",
              "type": "uint256"
            }
          ],
          "internalType": "struct FeedViewer.comment_info[]",
          "name": "_comments",
          "type": "tuple[]"
        }
      ],
      "stateMutability": "view",
      "type": "function"
    },
    {
      "inputs": [
        {
          "internalType": "uint256",
          "name": "_postId",
          "type": "uint256"
        },
        {
          "internalType": "uint256",
          "name": "_start",
          "type": "uint256"
        },
        {
          "internalType": "uint256",
          "name": "_end",
          "type": "uint256"
        }
      ],
      "name": "retrieve_comments",
      "outputs": [
        {
          "components": [
            {
              "internalType": "address",
              "name": "_user",
              "type": "address"
            },
            {
              "internalType": "string",
              "name": "_cid",
              "type": "string"
            },
            {
              "internalType": "uint256",
              "name": "_totalDonations",
              "type": "uint256"
            },
            {
              "internalType": "uint256",
              "name": "_totalDonated",
              "type": "uint256"
            },
            {
              "internalType": "uint256",
              "name": "_block",
              "type": "uint256"
            },
            {
              "internalType": "uint256",
              "name": "_timestamp",
              "type": "uint256"
            }
          ],
          "internalType": "struct FeedViewer.comment_info[]",
          "name": "_comments",
          "type": "tuple[]"
        }
      ],
      "stateMutability": "view",
      "type": "function"
    },
    {
      "inputs": [
        {
          "internalType": "uint256",
          "name": "_postId",
          "type": "uint256"
        },
        {
          "internalType": "uint256",
          "name": "_donationId",
          "type": "uint256"
        }
      ],
      "name": "retrieve_post_donation",
      "outputs": [
        {
          "components": [
            {
              "internalType": "address",
              "name": "_user",
              "type": "address"
            },
            {
              "internalType": "string",
              "name": "_cid",
              "type": "string"
            },
            {
              "internalType": "uint256",
              "name": "_value",
              "type": "uint256"
            },
            {
              "internalType": "uint256",
              "name": "_block",
              "type": "uint256"
            },
            {
              "internalType": "uint256",
              "name": "_timestamp",
              "type": "uint256"
            }
          ],
          "internalType": "struct FeedViewer.donation_info",
          "name": "_dono",
          "type": "tuple"
        }
      ],
      "stateMutability": "view",
      "type": "function"
    },
    {
      "inputs": [
        {
          "internalType": "uint256",
          "name": "_postId",
          "type": "uint256"
        },
        {
          "internalType": "uint256",
          "name": "_start",
          "type": "uint256"
        },
        {
          "internalType": "uint256",
          "name": "_end",
          "type": "uint256"
        }
      ],
      "name": "retrieve_post_donations",
      "outputs": [
        {
          "components": [
            {
              "internalType": "address",
              "name": "_user",
              "type": "address"
            },
            {
              "internalType": "string",
              "name": "_cid",
              "type": "string"
            },
            {
              "internalType": "uint256",
              "name": "_value",
              "type": "uint256"
            },
            {
              "internalType": "uint256",
              "name": "_block",
              "type": "uint256"
            },
            {
              "internalType": "uint256",
              "name": "_timestamp",
              "type": "uint256"
            }
          ],
          "internalType": "struct FeedViewer.donation_info[]",
          "name": "_donos",
          "type": "tuple[]"
        }
      ],
      "stateMutability": "view",
      "type": "function"
    },
    {
      "inputs": [
        {
          "internalType": "address",
          "name": "_following",
          "type": "address"
        },
        {
          "internalType": "uint256",
          "name": "_postNum",
          "type": "uint256"
        },
        {
          "internalType": "uint256",
          "name": "_start",
          "type": "uint256"
        },
        {
          "internalType": "uint256",
          "name": "_end",
          "type": "uint256"
        }
      ],
      "name": "retrieve_post_donations",
      "outputs": [
        {
          "components": [
            {
              "internalType": "address",
              "name": "_user",
              "type": "address"
            },
            {
              "internalType": "string",
              "name": "_cid",
              "type": "string"
            },
            {
              "internalType": "uint256",
              "name": "_value",
              "type": "uint256"
            },
            {
              "internalType": "uint256",
              "name": "_block",
              "type": "uint256"
            },
            {
              "internalType": "uint256",
              "name": "_timestamp",
              "type": "uint256"
            }
          ],
          "internalType": "struct FeedViewer.donation_info[]",
          "name": "_donos",
          "type": "tuple[]"
        }
      ],
      "stateMutability": "view",
      "type": "function"
    },
    {
      "inputs": [
        {
          "internalType": "uint256",
          "name": "_postId",
          "type": "uint256"
        },
        {
          "internalType": "uint256",
          "name": "_commentId",
          "type": "uint256"
        },
        {
          "internalType": "uint256",
          "name": "_donationId",
          "type": "uint256"
        }
      ],
      "name": "retrieve_comment_donation",
      "outputs": [
        {
          "components": [
            {
              "internalType": "address",
              "name": "_user",
              "type": "address"
            },
            {
              "internalType": "string",
              "name": "_cid",
              "type": "string"
            },
            {
              "internalType": "uint256",
              "name": "_value",
              "type": "uint256"
            },
            {
              "internalType": "uint256",
              "name": "_block",
              "type": "uint256"
            },
            {
              "internalType": "uint256",
              "name": "_timestamp",
              "type": "uint256"
            }
          ],
          "internalType": "struct FeedViewer.donation_info",
          "name": "_dono",
          "type": "tuple"
        }
      ],
      "stateMutability": "view",
      "type": "function"
    },
    {
      "inputs": [
        {
          "internalType": "uint256",
          "name": "_postId",
          "type": "uint256"
        },
        {
          "internalType": "uint256",
          "name": "_commentId",
          "type": "uint256"
        },
        {
          "internalType": "uint256",
          "name": "_start",
          "type": "uint256"
        },
        {
          "internalType": "uint256",
          "name": "_end",
          "type": "uint256"
        }
      ],
      "name": "retrieve_comment_donations",
      "outputs": [
        {
          "components": [
            {
              "internalType": "address",
              "name": "_user",
              "type": "address"
            },
            {
              "internalType": "string",
              "name": "_cid",
              "type": "string"
            },
            {
              "internalType": "uint256",
              "name": "_value",
              "type": "uint256"
            },
            {
              "internalType": "uint256",
              "name": "_block",
              "type": "uint256"
            },
            {
              "internalType": "uint256",
              "name": "_timestamp",
              "type": "uint256"
            }
          ],
          "internalType": "struct FeedViewer.donation_info[]",
          "name": "_donos",
          "type": "tuple[]"
        }
      ],
      "stateMutability": "view",
      "type": "function"
    },
    {
      "inputs": [
        {
          "internalType": "address",
          "name": "_following",
          "type": "address"
        },
        {
          "internalType": "uint256",
          "name": "_postNum",
          "type": "uint256"
        },
        {
          "internalType": "uint256",
          "name": "_commentId",
          "type": "uint256"
        },
        {
          "internalType": "uint256",
          "name": "_start",
          "type": "uint256"
        },
        {
          "internalType": "uint256",
          "name": "_end",
          "type": "uint256"
        }
      ],
      "name": "retrieve_comment_donations",
      "outputs": [
        {
          "components": [
            {
              "internalType": "address",
              "name": "_user",
              "type": "address"
            },
            {
              "internalType": "string",
              "name": "_cid",
              "type": "string"
            },
            {
              "internalType": "uint256",
              "name": "_value",
              "type": "uint256"
            },
            {
              "internalType": "uint256",
              "name": "_block",
              "type": "uint256"
            },
            {
              "internalType": "uint256",
              "name": "_timestamp",
              "type": "uint256"
            }
          ],
          "internalType": "struct FeedViewer.donation_info[]",
          "name": "_donos",
          "type": "tuple[]"
        }
      ],
      "stateMutability": "view",
      "type": "function"
    }
  ],
  "bytecode": "0x60806040523480156200001157600080fd5b50604051620039603803806200396083398181016040528101906200003791906200012a565b816000806101000a81548173ffffffffffffffffffffffffffffffffffffffff021916908373ffffffffffffffffffffffffffffffffffffffff16021790555080600160006101000a81548173ffffffffffffffffffffffffffffffffffffffff021916908373ffffffffffffffffffffffffffffffffffffffff160217905550505062000171565b600080fd5b600073ffffffffffffffffffffffffffffffffffffffff82169050919050565b6000620000f282620000c5565b9050919050565b6200010481620000e5565b81146200011057600080fd5b50565b6000815190506200012481620000f9565b92915050565b60008060408385031215620001445762000143620000c0565b5b6000620001548582860162000113565b9250506020620001678582860162000113565b9150509250929050565b6137df80620001816000396000f3fe608060405234801561001057600080fd5b50600436106100b45760003560e01c80638e54fad9116100715780638e54fad9146101d9578063902b6d0614610209578063972e322c14610239578063b1df577814610269578063d76a1be214610299578063fe919871146102c9576100b4565b80630104764b146100b9578063012ec7ab146100e95780632fb5f9ef1461011957806374f0f3ff146101495780637954b3ef14610179578063819bcb40146101a9575b600080fd5b6100d360048036038101906100ce91906126cb565b6102f9565b6040516100e0919061294a565b60405180910390f35b61010360048036038101906100fe9190612998565b6105ba565b604051610110919061294a565b60405180910390f35b610133600480360381019061012e9190612a13565b610ad5565b6040516101409190612adc565b60405180910390f35b610163600480360381019061015e9190612afe565b610be6565b604051610170919061294a565b60405180910390f35b610193600480360381019061018e9190612afe565b610ea1565b6040516101a09190612bc7565b60405180910390f35b6101c360048036038101906101be9190612be9565b610fab565b6040516101d09190612d9b565b60405180910390f35b6101f360048036038101906101ee9190612dbd565b6115f4565b6040516102009190612eaf565b60405180910390f35b610223600480360381019061021e9190612afe565b611723565b6040516102309190612d9b565b60405180910390f35b610253600480360381019061024e9190612a13565b6119de565b6040516102609190612bc7565b60405180910390f35b610283600480360381019061027e9190612ed1565b611ae5565b60405161029091906130ab565b60405180910390f35b6102b360048036038101906102ae9190612be9565b611e70565b6040516102c0919061294a565b60405180910390f35b6102e360048036038101906102de9190612a13565b612385565b6040516102f091906130ab565b60405180910390f35b6060600160009054906101000a900473ffffffffffffffffffffffffffffffffffffffff1673ffffffffffffffffffffffffffffffffffffffff1663c5fe371986866040518363ffffffff1660e01b81526004016103589291906130dc565b602060405180830381865afa158015610375573d6000803e3d6000fd5b505050506040513d601f19601f82011682018060405250810190610399919061313d565b6103a257600080fd5b600160009054906101000a900473ffffffffffffffffffffffffffffffffffffffff1673ffffffffffffffffffffffffffffffffffffffff1663613298328484600160009054906101000a900473ffffffffffffffffffffffffffffffffffffffff1673ffffffffffffffffffffffffffffffffffffffff1663e45b6c0f8a8a6040518363ffffffff1660e01b815260040161043f9291906130dc565b602060405180830381865afa15801561045c573d6000803e3d6000fd5b505050506040513d601f19601f82011682018060405250810190610480919061317f565b6040518463ffffffff1660e01b815260040161049e939291906131ac565b602060405180830381865afa1580156104bb573d6000803e3d6000fd5b505050506040513d601f19601f820116820180604052508101906104df919061313d565b6104e857600080fd5b600183836104f69190613212565b6105009190613246565b67ffffffffffffffff8111156105195761051861327a565b5b60405190808252806020026020018201604052801561055257816020015b61053f61258e565b8152602001906001900390816105375790505b50905060005b83836105649190613212565b81116105b1576105808686838761057b9190613246565b610ea1565b828281518110610593576105926132a9565b5b602002602001018190525080806105a9906132d8565b915050610558565b50949350505050565b606060008054906101000a900473ffffffffffffffffffffffffffffffffffffffff1673ffffffffffffffffffffffffffffffffffffffff16634209fff1876040518263ffffffff1660e01b8152600401610615919061332f565b602060405180830381865afa158015610632573d6000803e3d6000fd5b505050506040513d601f19601f82011682018060405250810190610656919061313d565b610695576040517f08c379a000000000000000000000000000000000000000000000000000000000815260040161068c906133a7565b60405180910390fd5b6000600160009054906101000a900473ffffffffffffffffffffffffffffffffffffffff1673ffffffffffffffffffffffffffffffffffffffff16633951689488886040518363ffffffff1660e01b81526004016106f49291906133c7565b602060405180830381865afa158015610711573d6000803e3d6000fd5b505050506040513d601f19601f82011682018060405250810190610735919061317f565b9050600160009054906101000a900473ffffffffffffffffffffffffffffffffffffffff1673ffffffffffffffffffffffffffffffffffffffff16634629e798886040518263ffffffff1660e01b8152600401610792919061332f565b602060405180830381865afa1580156107af573d6000803e3d6000fd5b505050506040513d601f19601f820116820180604052508101906107d3919061317f565b8610610814576040517f08c379a000000000000000000000000000000000000000000000000000000000815260040161080b9061343c565b60405180910390fd5b600160009054906101000a900473ffffffffffffffffffffffffffffffffffffffff1673ffffffffffffffffffffffffffffffffffffffff1663c5fe371982876040518363ffffffff1660e01b81526004016108719291906130dc565b602060405180830381865afa15801561088e573d6000803e3d6000fd5b505050506040513d601f19601f820116820180604052508101906108b2919061313d565b6108bb57600080fd5b600160009054906101000a900473ffffffffffffffffffffffffffffffffffffffff1673ffffffffffffffffffffffffffffffffffffffff1663613298328585600160009054906101000a900473ffffffffffffffffffffffffffffffffffffffff1673ffffffffffffffffffffffffffffffffffffffff1663e45b6c0f868b6040518363ffffffff1660e01b81526004016109589291906130dc565b602060405180830381865afa158015610975573d6000803e3d6000fd5b505050506040513d601f19601f82011682018060405250810190610999919061317f565b6040518463ffffffff1660e01b81526004016109b7939291906131ac565b602060405180830381865afa1580156109d4573d6000803e3d6000fd5b505050506040513d601f19601f820116820180604052508101906109f8919061313d565b610a0157600080fd5b60018484610a0f9190613212565b610a199190613246565b67ffffffffffffffff811115610a3257610a3161327a565b5b604051908082528060200260200182016040528015610a6b57816020015b610a5861258e565b815260200190600190039081610a505790505b50915060005b8484610a7d9190613212565b8111610aca57610a9982878388610a949190613246565b610ea1565b838281518110610aac57610aab6132a9565b5b60200260200101819052508080610ac2906132d8565b915050610a71565b505095945050505050565b610add6125d3565b600080600080600080600160009054906101000a900473ffffffffffffffffffffffffffffffffffffffff1673ffffffffffffffffffffffffffffffffffffffff16632fb5f9ef8a8a6040518363ffffffff1660e01b8152600401610b439291906130dc565b600060405180830381865afa158015610b60573d6000803e3d6000fd5b505050506040513d6000823e3d601f19601f82011682018060405250810190610b899190613568565b9550955095509550955095506040518060c001604052808773ffffffffffffffffffffffffffffffffffffffff16815260200186815260200185815260200184815260200183815260200182815250965050505050505092915050565b6060600160009054906101000a900473ffffffffffffffffffffffffffffffffffffffff1673ffffffffffffffffffffffffffffffffffffffff1663bdf1a9a4856040518263ffffffff1660e01b8152600401610c439190613611565b602060405180830381865afa158015610c60573d6000803e3d6000fd5b505050506040513d601f19601f82011682018060405250810190610c84919061313d565b610c8d57600080fd5b600160009054906101000a900473ffffffffffffffffffffffffffffffffffffffff1673ffffffffffffffffffffffffffffffffffffffff1663613298328484600160009054906101000a900473ffffffffffffffffffffffffffffffffffffffff1673ffffffffffffffffffffffffffffffffffffffff16639f1482e4896040518263ffffffff1660e01b8152600401610d289190613611565b602060405180830381865afa158015610d45573d6000803e3d6000fd5b505050506040513d601f19601f82011682018060405250810190610d69919061317f565b6040518463ffffffff1660e01b8152600401610d87939291906131ac565b602060405180830381865afa158015610da4573d6000803e3d6000fd5b505050506040513d601f19601f82011682018060405250810190610dc8919061313d565b610dd157600080fd5b60018383610ddf9190613212565b610de99190613246565b67ffffffffffffffff811115610e0257610e0161327a565b5b604051908082528060200260200182016040528015610e3b57816020015b610e2861258e565b815260200190600190039081610e205790505b50905060005b8383610e4d9190613212565b8111610e9957610e68858286610e639190613246565b6119de565b828281518110610e7b57610e7a6132a9565b5b60200260200101819052508080610e91906132d8565b915050610e41565b509392505050565b610ea961258e565b6000806000806000600160009054906101000a900473ffffffffffffffffffffffffffffffffffffffff1673ffffffffffffffffffffffffffffffffffffffff16637954b3ef8a8a8a6040518463ffffffff1660e01b8152600401610f10939291906131ac565b600060405180830381865afa158015610f2d573d6000803e3d6000fd5b505050506040513d6000823e3d601f19601f82011682018060405250810190610f56919061362c565b945094509450945094506040518060a001604052808673ffffffffffffffffffffffffffffffffffffffff16815260200185815260200184815260200183815260200182815250955050505050509392505050565b606060008054906101000a900473ffffffffffffffffffffffffffffffffffffffff1673ffffffffffffffffffffffffffffffffffffffff16634209fff1866040518263ffffffff1660e01b8152600401611006919061332f565b602060405180830381865afa158015611023573d6000803e3d6000fd5b505050506040513d601f19601f82011682018060405250810190611047919061313d565b611086576040517f08c379a000000000000000000000000000000000000000000000000000000000815260040161107d906133a7565b60405180910390fd5b600160009054906101000a900473ffffffffffffffffffffffffffffffffffffffff1673ffffffffffffffffffffffffffffffffffffffff16634629e798866040518263ffffffff1660e01b81526004016110e1919061332f565b602060405180830381865afa1580156110fe573d6000803e3d6000fd5b505050506040513d601f19601f82011682018060405250810190611122919061317f565b8410611163576040517f08c379a000000000000000000000000000000000000000000000000000000000815260040161115a9061343c565b60405180910390fd5b600160009054906101000a900473ffffffffffffffffffffffffffffffffffffffff1673ffffffffffffffffffffffffffffffffffffffff1663bdf1a9a4600160009054906101000a900473ffffffffffffffffffffffffffffffffffffffff1673ffffffffffffffffffffffffffffffffffffffff16633951689488886040518363ffffffff1660e01b81526004016111fe9291906133c7565b602060405180830381865afa15801561121b573d6000803e3d6000fd5b505050506040513d601f19601f8201168201806040525081019061123f919061317f565b6040518263ffffffff1660e01b815260040161125b9190613611565b602060405180830381865afa158015611278573d6000803e3d6000fd5b505050506040513d601f19601f8201168201806040525081019061129c919061313d565b6112a557600080fd5b600160009054906101000a900473ffffffffffffffffffffffffffffffffffffffff1673ffffffffffffffffffffffffffffffffffffffff1663613298328484600160009054906101000a900473ffffffffffffffffffffffffffffffffffffffff1673ffffffffffffffffffffffffffffffffffffffff1663fb18cd63600160009054906101000a900473ffffffffffffffffffffffffffffffffffffffff1673ffffffffffffffffffffffffffffffffffffffff1663395168948c8c6040518363ffffffff1660e01b81526004016113809291906133c7565b602060405180830381865afa15801561139d573d6000803e3d6000fd5b505050506040513d601f19601f820116820180604052508101906113c1919061317f565b6040518263ffffffff1660e01b81526004016113dd9190613611565b602060405180830381865afa1580156113fa573d6000803e3d6000fd5b505050506040513d601f19601f8201168201806040525081019061141e919061317f565b6040518463ffffffff1660e01b815260040161143c939291906131ac565b602060405180830381865afa158015611459573d6000803e3d6000fd5b505050506040513d601f19601f8201168201806040525081019061147d919061313d565b61148657600080fd5b600183836114949190613212565b61149e9190613246565b67ffffffffffffffff8111156114b7576114b661327a565b5b6040519080825280602002602001820160405280156114f057816020015b6114dd6125d3565b8152602001906001900390816114d55790505b50905060005b83836115029190613212565b81116115eb576115ba600160009054906101000a900473ffffffffffffffffffffffffffffffffffffffff1673ffffffffffffffffffffffffffffffffffffffff16633951689488886040518363ffffffff1660e01b81526004016115689291906133c7565b602060405180830381865afa158015611585573d6000803e3d6000fd5b505050506040513d601f19601f820116820180604052508101906115a9919061317f565b82866115b59190613246565b610ad5565b8282815181106115cd576115cc6132a9565b5b602002602001018190525080806115e3906132d8565b9150506114f6565b50949350505050565b6115fc61261f565b6000806000806000806000806000600160009054906101000a900473ffffffffffffffffffffffffffffffffffffffff1673ffffffffffffffffffffffffffffffffffffffff16638e54fad98c6040518263ffffffff1660e01b81526004016116659190613611565b600060405180830381865afa158015611682573d6000803e3d6000fd5b505050506040513d6000823e3d601f19601f820116820180604052508101906116ab91906136c3565b9850985098509850985098509850985098506040518061012001604052808a73ffffffffffffffffffffffffffffffffffffffff168152602001898152602001888152602001878152602001868152602001858152602001848152602001838152602001828152509950505050505050505050919050565b6060600160009054906101000a900473ffffffffffffffffffffffffffffffffffffffff1673ffffffffffffffffffffffffffffffffffffffff1663bdf1a9a4856040518263ffffffff1660e01b81526004016117809190613611565b602060405180830381865afa15801561179d573d6000803e3d6000fd5b505050506040513d601f19601f820116820180604052508101906117c1919061313d565b6117ca57600080fd5b600160009054906101000a900473ffffffffffffffffffffffffffffffffffffffff1673ffffffffffffffffffffffffffffffffffffffff1663613298328484600160009054906101000a900473ffffffffffffffffffffffffffffffffffffffff1673ffffffffffffffffffffffffffffffffffffffff1663fb18cd63896040518263ffffffff1660e01b81526004016118659190613611565b602060405180830381865afa158015611882573d6000803e3d6000fd5b505050506040513d601f19601f820116820180604052508101906118a6919061317f565b6040518463ffffffff1660e01b81526004016118c4939291906131ac565b602060405180830381865afa1580156118e1573d6000803e3d6000fd5b505050506040513d601f19601f82011682018060405250810190611905919061313d565b61190e57600080fd5b6001838361191c9190613212565b6119269190613246565b67ffffffffffffffff81111561193f5761193e61327a565b5b60405190808252806020026020018201604052801561197857816020015b6119656125d3565b81526020019060019003908161195d5790505b50905060005b838361198a9190613212565b81116119d6576119a58582866119a09190613246565b610ad5565b8282815181106119b8576119b76132a9565b5b602002602001018190525080806119ce906132d8565b91505061197e565b509392505050565b6119e661258e565b6000806000806000600160009054906101000a900473ffffffffffffffffffffffffffffffffffffffff1673ffffffffffffffffffffffffffffffffffffffff1663972e322c89896040518363ffffffff1660e01b8152600401611a4b9291906130dc565b600060405180830381865afa158015611a68573d6000803e3d6000fd5b505050506040513d6000823e3d601f19601f82011682018060405250810190611a91919061362c565b945094509450945094506040518060a001604052808673ffffffffffffffffffffffffffffffffffffffff168152602001858152602001848152602001838152602001828152509550505050505092915050565b606060008054906101000a900473ffffffffffffffffffffffffffffffffffffffff1673ffffffffffffffffffffffffffffffffffffffff16634209fff1856040518263ffffffff1660e01b8152600401611b40919061332f565b602060405180830381865afa158015611b5d573d6000803e3d6000fd5b505050506040513d601f19601f82011682018060405250810190611b81919061313d565b611bc0576040517f08c379a0000000000000000000000000000000000000000000000000000000008152600401611bb7906133a7565b60405180910390fd5b600160009054906101000a900473ffffffffffffffffffffffffffffffffffffffff1673ffffffffffffffffffffffffffffffffffffffff1663613298328484600160009054906101000a900473ffffffffffffffffffffffffffffffffffffffff1673ffffffffffffffffffffffffffffffffffffffff16634629e798896040518263ffffffff1660e01b8152600401611c5b919061332f565b602060405180830381865afa158015611c78573d6000803e3d6000fd5b505050506040513d601f19601f82011682018060405250810190611c9c919061317f565b6040518463ffffffff1660e01b8152600401611cba939291906131ac565b602060405180830381865afa158015611cd7573d6000803e3d6000fd5b505050506040513d601f19601f82011682018060405250810190611cfb919061313d565b611d0457600080fd5b60018383611d129190613212565b611d1c9190613246565b67ffffffffffffffff811115611d3557611d3461327a565b5b604051908082528060200260200182016040528015611d6e57816020015b611d5b61261f565b815260200190600190039081611d535790505b50905060005b8383611d809190613212565b8111611e6857611e37600160009054906101000a900473ffffffffffffffffffffffffffffffffffffffff1673ffffffffffffffffffffffffffffffffffffffff166339516894878488611dd49190613246565b6040518363ffffffff1660e01b8152600401611df19291906133c7565b602060405180830381865afa158015611e0e573d6000803e3d6000fd5b505050506040513d601f19601f82011682018060405250810190611e32919061317f565b6115f4565b828281518110611e4a57611e496132a9565b5b60200260200101819052508080611e60906132d8565b915050611d74565b509392505050565b606060008054906101000a900473ffffffffffffffffffffffffffffffffffffffff1673ffffffffffffffffffffffffffffffffffffffff16634209fff1866040518263ffffffff1660e01b8152600401611ecb919061332f565b602060405180830381865afa158015611ee8573d6000803e3d6000fd5b505050506040513d601f19601f82011682018060405250810190611f0c919061313d565b611f4b576040517f08c379a0000000000000000000000000000000000000000000000000000000008152600401611f42906133a7565b60405180910390fd5b600160009054906101000a900473ffffffffffffffffffffffffffffffffffffffff1673ffffffffffffffffffffffffffffffffffffffff16634629e798866040518263ffffffff1660e01b8152600401611fa6919061332f565b602060405180830381865afa158015611fc3573d6000803e3d6000fd5b505050506040513d601f19601f82011682018060405250810190611fe7919061317f565b8410612028576040517f08c379a000000000000000000000000000000000000000000000000000000000815260040161201f9061343c565b60405180910390fd5b6000600160009054906101000a900473ffffffffffffffffffffffffffffffffffffffff1673ffffffffffffffffffffffffffffffffffffffff16633951689487876040518363ffffffff1660e01b81526004016120879291906133c7565b602060405180830381865afa1580156120a4573d6000803e3d6000fd5b505050506040513d601f19601f820116820180604052508101906120c8919061317f565b9050600160009054906101000a900473ffffffffffffffffffffffffffffffffffffffff1673ffffffffffffffffffffffffffffffffffffffff1663bdf1a9a4826040518263ffffffff1660e01b81526004016121259190613611565b602060405180830381865afa158015612142573d6000803e3d6000fd5b505050506040513d601f19601f82011682018060405250810190612166919061313d565b61216f57600080fd5b600160009054906101000a900473ffffffffffffffffffffffffffffffffffffffff1673ffffffffffffffffffffffffffffffffffffffff1663613298328585600160009054906101000a900473ffffffffffffffffffffffffffffffffffffffff1673ffffffffffffffffffffffffffffffffffffffff16639f1482e4866040518263ffffffff1660e01b815260040161220a9190613611565b602060405180830381865afa158015612227573d6000803e3d6000fd5b505050506040513d601f19601f8201168201806040525081019061224b919061317f565b6040518463ffffffff1660e01b8152600401612269939291906131ac565b602060405180830381865afa158015612286573d6000803e3d6000fd5b505050506040513d601f19601f820116820180604052508101906122aa919061313d565b6122b357600080fd5b600184846122c19190613212565b6122cb9190613246565b67ffffffffffffffff8111156122e4576122e361327a565b5b60405190808252806020026020018201604052801561231d57816020015b61230a61258e565b8152602001906001900390816123025790505b50915060005b848461232f9190613212565b811161237b5761234a8282876123459190613246565b6119de565b83828151811061235d5761235c6132a9565b5b60200260200101819052508080612373906132d8565b915050612323565b5050949350505050565b6060600160009054906101000a900473ffffffffffffffffffffffffffffffffffffffff1673ffffffffffffffffffffffffffffffffffffffff1663613298328484600160009054906101000a900473ffffffffffffffffffffffffffffffffffffffff1673ffffffffffffffffffffffffffffffffffffffff166360a0ecda6040518163ffffffff1660e01b8152600401602060405180830381865afa158015612434573d6000803e3d6000fd5b505050506040513d601f19601f82011682018060405250810190612458919061317f565b6040518463ffffffff1660e01b8152600401612476939291906131ac565b602060405180830381865afa158015612493573d6000803e3d6000fd5b505050506040513d601f19601f820116820180604052508101906124b7919061313d565b6124c057600080fd5b600183836124ce9190613212565b6124d89190613246565b67ffffffffffffffff8111156124f1576124f061327a565b5b60405190808252806020026020018201604052801561252a57816020015b61251761261f565b81526020019060019003908161250f5790505b50905060005b838361253c9190613212565b81116125875761255681856125519190613246565b6115f4565b828281518110612569576125686132a9565b5b6020026020010181905250808061257f906132d8565b915050612530565b5092915050565b6040518060a00160405280600073ffffffffffffffffffffffffffffffffffffffff168152602001606081526020016000815260200160008152602001600081525090565b6040518060c00160405280600073ffffffffffffffffffffffffffffffffffffffff16815260200160608152602001600081526020016000815260200160008152602001600081525090565b604051806101200160405280600073ffffffffffffffffffffffffffffffffffffffff16815260200160608152602001600081526020016000815260200160008152602001600081526020016000815260200160008152602001600081525090565b6000604051905090565b600080fd5b600080fd5b6000819050919050565b6126a881612695565b81146126b357600080fd5b50565b6000813590506126c58161269f565b92915050565b600080600080608085870312156126e5576126e461268b565b5b60006126f3878288016126b6565b9450506020612704878288016126b6565b9350506040612715878288016126b6565b9250506060612726878288016126b6565b91505092959194509250565b600081519050919050565b600082825260208201905092915050565b6000819050602082019050919050565b600073ffffffffffffffffffffffffffffffffffffffff82169050919050565b60006127898261275e565b9050919050565b6127998161277e565b82525050565b600081519050919050565b600082825260208201905092915050565b60005b838110156127d95780820151818401526020810190506127be565b60008484015250505050565b6000601f19601f8301169050919050565b60006128018261279f565b61280b81856127aa565b935061281b8185602086016127bb565b612824816127e5565b840191505092915050565b61283881612695565b82525050565b600060a0830160008301516128566000860182612790565b506020830151848203602086015261286e82826127f6565b9150506040830151612883604086018261282f565b506060830151612896606086018261282f565b5060808301516128a9608086018261282f565b508091505092915050565b60006128c0838361283e565b905092915050565b6000602082019050919050565b60006128e082612732565b6128ea818561273d565b9350836020820285016128fc8561274e565b8060005b85811015612938578484038952815161291985826128b4565b9450612924836128c8565b925060208a01995050600181019050612900565b50829750879550505050505092915050565b6000602082019050818103600083015261296481846128d5565b905092915050565b6129758161277e565b811461298057600080fd5b50565b6000813590506129928161296c565b92915050565b600080600080600060a086880312156129b4576129b361268b565b5b60006129c288828901612983565b95505060206129d3888289016126b6565b94505060406129e4888289016126b6565b93505060606129f5888289016126b6565b9250506080612a06888289016126b6565b9150509295509295909350565b60008060408385031215612a2a57612a2961268b565b5b6000612a38858286016126b6565b9250506020612a49858286016126b6565b9150509250929050565b600060c083016000830151612a6b6000860182612790565b5060208301518482036020860152612a8382826127f6565b9150506040830151612a98604086018261282f565b506060830151612aab606086018261282f565b506080830151612abe608086018261282f565b5060a0830151612ad160a086018261282f565b508091505092915050565b60006020820190508181036000830152612af68184612a53565b905092915050565b600080600060608486031215612b1757612b1661268b565b5b6000612b25868287016126b6565b9350506020612b36868287016126b6565b9250506040612b47868287016126b6565b9150509250925092565b600060a083016000830151612b696000860182612790565b5060208301518482036020860152612b8182826127f6565b9150506040830151612b96604086018261282f565b506060830151612ba9606086018261282f565b506080830151612bbc608086018261282f565b508091505092915050565b60006020820190508181036000830152612be18184612b51565b905092915050565b60008060008060808587031215612c0357612c0261268b565b5b6000612c1187828801612983565b9450506020612c22878288016126b6565b9350506040612c33878288016126b6565b9250506060612c44878288016126b6565b91505092959194509250565b600081519050919050565b600082825260208201905092915050565b6000819050602082019050919050565b600060c083016000830151612c946000860182612790565b5060208301518482036020860152612cac82826127f6565b9150506040830151612cc1604086018261282f565b506060830151612cd4606086018261282f565b506080830151612ce7608086018261282f565b5060a0830151612cfa60a086018261282f565b508091505092915050565b6000612d118383612c7c565b905092915050565b6000602082019050919050565b6000612d3182612c50565b612d3b8185612c5b565b935083602082028501612d4d85612c6c565b8060005b85811015612d895784840389528151612d6a8582612d05565b9450612d7583612d19565b925060208a01995050600181019050612d51565b50829750879550505050505092915050565b60006020820190508181036000830152612db58184612d26565b905092915050565b600060208284031215612dd357612dd261268b565b5b6000612de1848285016126b6565b91505092915050565b600061012083016000830151612e036000860182612790565b5060208301518482036020860152612e1b82826127f6565b9150506040830151612e30604086018261282f565b506060830151612e43606086018261282f565b506080830151612e56608086018261282f565b5060a0830151612e6960a086018261282f565b5060c0830151612e7c60c086018261282f565b5060e0830151612e8f60e086018261282f565b50610100830151612ea461010086018261282f565b508091505092915050565b60006020820190508181036000830152612ec98184612dea565b905092915050565b600080600060608486031215612eea57612ee961268b565b5b6000612ef886828701612983565b9350506020612f09868287016126b6565b9250506040612f1a868287016126b6565b9150509250925092565b600081519050919050565b600082825260208201905092915050565b6000819050602082019050919050565b600061012083016000830151612f696000860182612790565b5060208301518482036020860152612f8182826127f6565b9150506040830151612f96604086018261282f565b506060830151612fa9606086018261282f565b506080830151612fbc608086018261282f565b5060a0830151612fcf60a086018261282f565b5060c0830151612fe260c086018261282f565b5060e0830151612ff560e086018261282f565b5061010083015161300a61010086018261282f565b508091505092915050565b60006130218383612f50565b905092915050565b6000602082019050919050565b600061304182612f24565b61304b8185612f2f565b93508360208202850161305d85612f40565b8060005b85811015613099578484038952815161307a8582613015565b945061308583613029565b925060208a01995050600181019050613061565b50829750879550505050505092915050565b600060208201905081810360008301526130c58184613036565b905092915050565b6130d681612695565b82525050565b60006040820190506130f160008301856130cd565b6130fe60208301846130cd565b9392505050565b60008115159050919050565b61311a81613105565b811461312557600080fd5b50565b60008151905061313781613111565b92915050565b6000602082840312156131535761315261268b565b5b600061316184828501613128565b91505092915050565b6000815190506131798161269f565b92915050565b6000602082840312156131955761319461268b565b5b60006131a38482850161316a565b91505092915050565b60006060820190506131c160008301866130cd565b6131ce60208301856130cd565b6131db60408301846130cd565b949350505050565b7f4e487b7100000000000000000000000000000000000000000000000000000000600052601160045260246000fd5b600061321d82612695565b915061322883612695565b92508282039050818111156132405761323f6131e3565b5b92915050565b600061325182612695565b915061325c83612695565b9250828201905080821115613274576132736131e3565b5b92915050565b7f4e487b7100000000000000000000000000000000000000000000000000000000600052604160045260246000fd5b7f4e487b7100000000000000000000000000000000000000000000000000000000600052603260045260246000fd5b60006132e382612695565b91507fffffffffffffffffffffffffffffffffffffffffffffffffffffffffffffffff8203613315576133146131e3565b5b600182019050919050565b6133298161277e565b82525050565b60006020820190506133446000830184613320565b92915050565b600082825260208201905092915050565b7f466f6c6c6f77696e67206d75737420626520726567697374657265642e000000600082015250565b6000613391601d8361334a565b915061339c8261335b565b602082019050919050565b600060208201905081810360008301526133c081613384565b9050919050565b60006040820190506133dc6000830185613320565b6133e960208301846130cd565b9392505050565b7f496e76616c6964205f706f73744e756d00000000000000000000000000000000600082015250565b600061342660108361334a565b9150613431826133f0565b602082019050919050565b6000602082019050818103600083015261345581613419565b9050919050565b60008151905061346b8161296c565b92915050565b600080fd5b600080fd5b613484826127e5565b810181811067ffffffffffffffff821117156134a3576134a261327a565b5b80604052505050565b60006134b6612681565b90506134c2828261347b565b919050565b600067ffffffffffffffff8211156134e2576134e161327a565b5b6134eb826127e5565b9050602081019050919050565b600061350b613506846134c7565b6134ac565b90508281526020810184848401111561352757613526613476565b5b6135328482856127bb565b509392505050565b600082601f83011261354f5761354e613471565b5b815161355f8482602086016134f8565b91505092915050565b60008060008060008060c087890312156135855761358461268b565b5b600061359389828a0161345c565b965050602087015167ffffffffffffffff8111156135b4576135b3612690565b5b6135c089828a0161353a565b95505060406135d189828a0161316a565b94505060606135e289828a0161316a565b93505060806135f389828a0161316a565b92505060a061360489828a0161316a565b9150509295509295509295565b600060208201905061362660008301846130cd565b92915050565b600080600080600060a086880312156136485761364761268b565b5b60006136568882890161345c565b955050602086015167ffffffffffffffff81111561367757613676612690565b5b6136838882890161353a565b94505060406136948882890161316a565b93505060606136a58882890161316a565b92505060806136b68882890161316a565b9150509295509295909350565b60008060008060008060008060006101208a8c0312156136e6576136e561268b565b5b60006136f48c828d0161345c565b99505060208a015167ffffffffffffffff81111561371557613714612690565b5b6137218c828d0161353a565b98505060406137328c828d0161316a565b97505060606137438c828d0161316a565b96505060806137548c828d0161316a565b95505060a06137658c828d0161316a565b94505060c06137768c828d0161316a565b93505060e06137878c828d0161316a565b9250506101006137998c828d0161316a565b915050929598509295985092959856fea2646970667358221220e62f11bdb61bcbf21891101793793b42b60a9657a35a5083fdf51eed75d19f3b64736f6c63430008110033",
  "immutableReferences": {},
  "source": "pragma solidity ^0.8.17;\n\nimport \"../../user-register/UserRegister.sol\";\n\nimport \"../Feed.sol\";\n\ncontract FeedViewer{\n    UserRegister userRegister;\n    Feed feed;\n\n    struct post_info{\n        address _user;\n        string _cid;  \n        uint _index;\n        uint _totalComments;\n        uint _totalDonations; \n        uint _totalDonated;\n        uint _reposts;\n        uint _block;\n        uint _timestamp;\n    }\n\n    struct comment_info{\n        address _user;\n        string _cid;\n        uint _totalDonations;\n        uint _totalDonated;\n        uint _block;\n        uint _timestamp;\n    }\n\n    struct donation_info{\n        address _user;\n        string _cid;\n        uint _value;\n        uint _block;\n        uint _timestamp;\n    }\n    constructor(address _userRegister, address _feed){\n        userRegister = UserRegister(_userRegister);\n        feed = Feed(_feed);\n    }\n    // Retrieve Posts\n    function retrieve_post(uint _postId) public view returns(post_info memory _post){\n        (address _user, string memory _cid, uint _index, uint _totalComments, uint _totalDonations, uint _totalDonated, uint _reposts, uint _block, uint _timestamp) = feed.retrieve_post(_postId);\n        _post = post_info(_user, _cid, _index, _totalComments, _totalDonations, _totalDonated, _reposts, _block, _timestamp);\n    }\n    \n    function retrieve_posts(uint _start, uint _end) public view returns(post_info[] memory _posts){\n        require(feed.validStartEnd(_start, _end, feed.postId()));\n        _posts = new post_info[](_end - _start + 1);\n        for(uint i = 0; i <= _end - _start; i++){\n            _posts[i] = retrieve_post(_start + i);\n        }\n    }\n    \n    function retrieve_posts(address _following, uint _start, uint _end) public view returns(post_info[] memory _posts){\n        require(userRegister.isUser(_following), \"Following must be registered.\");\n        require(feed.validStartEnd(_start, _end, feed.userFeedLength(_following)));\n        _posts = new post_info[](_end - _start + 1);\n        for(uint i = 0; i <= _end - _start; i++){    \n            _posts[i] = retrieve_post(feed.userFeed(_following, _start + i));\n        }\n    }\n    \n    // Retrieve Comments\n    function retrieve_comment(uint _postId, uint _commentId) public view returns(comment_info memory _comment){\n        (address _user, string memory _cid, uint _totalDonations, uint _totalDonated, uint _block, uint _timestamp) = feed.retrieve_comment(_postId, _commentId);\n        _comment = comment_info(_user, _cid, _totalDonations, _totalDonated, _block, _timestamp);\n    }\n    \n    function retrieve_comments(uint _postId, uint _start, uint _end) public view returns(comment_info[] memory _comments){\n        require(feed.validPost(_postId));\n        require(feed.validStartEnd(_start, _end, feed.totalComments(_postId)));\n        _comments = new comment_info[](_end - _start + 1);\n        for(uint i = 0; i <= _end - _start; i++){\n            _comments[i] = retrieve_comment(_postId, _start + i);\n        }\n    }\n\n    function retrieve_comments(address _following, uint _postNum,  uint _start, uint _end) public view returns(comment_info[] memory _comments){\n        require(userRegister.isUser(_following), \"Following must be registered.\");\n        require(_postNum < feed.userFeedLength(_following), \"Invalid _postNum\");\n        require(feed.validPost(feed.userFeed(_following, _postNum)));\n        require(feed.validStartEnd(_start, _end, feed.totalComments(feed.userFeed(_following, _postNum))));\n        _comments = new comment_info[](_end - _start + 1);\n        for(uint i = 0; i <= _end - _start; i++){\n            _comments[i] = retrieve_comment(feed.userFeed(_following, _postNum), _start + i);\n        }\n    }\n    \n    // Retrieve Donations\n     function retrieve_post_donation(uint _postId, uint _donationId) public view returns(donation_info memory _dono){\n        (address _user, string memory _cid, uint _value, uint _block, uint _timestamp) = feed.retrieve_post_donation(_postId, _donationId);\n        _dono = donation_info(_user, _cid, _value, _block, _timestamp);\n    }\n    \n    function retrieve_post_donations(uint _postId, uint _start, uint _end) public view returns(donation_info[] memory _donos){\n        require(feed.validPost(_postId));\n        require(feed.validStartEnd(_start, _end, feed.totalDonations(_postId)));\n        _donos = new donation_info[](_end - _start + 1);\n        for(uint i = 0; i <= _end - _start; i++){\n            _donos[i] = retrieve_post_donation(_postId, _start + i);\n        }\n    }\n\n    function retrieve_post_donations(address _following, uint _postNum, uint _start, uint _end) public view returns(donation_info[] memory _donos){\n        require(userRegister.isUser(_following), \"Following must be registered.\");\n        require(_postNum < feed.userFeedLength(_following), \"Invalid _postNum\");\n        uint _postId = feed.userFeed(_following, _postNum);\n        require(feed.validPost(_postId));\n        require(feed.validStartEnd(_start, _end, feed.totalDonations(_postId)));\n        _donos = new donation_info[](_end - _start + 1);\n        for(uint i = 0; i <= _end - _start; i++){\n            _donos[i] = retrieve_post_donation(_postId, _start + i);\n        }\n    }\n\n    function retrieve_comment_donation(uint _postId, uint _commentId, uint _donationId) public view returns(donation_info memory _dono){\n        (address _user, string memory _cid, uint _value, uint _block, uint _timestamp) = feed.retrieve_comment_donation(_postId, _commentId, _donationId);\n        _dono = donation_info(_user, _cid, _value, _block, _timestamp);\n    }\n\n    function retrieve_comment_donations(uint _postId, uint _commentId, uint _start, uint _end) public view returns(donation_info[] memory _donos){\n        require(feed.validComment(_postId, _commentId));\n        require(feed.validStartEnd(_start, _end, feed.totalCommentDonations(_postId, _commentId)));\n        _donos = new donation_info[](_end - _start + 1);\n        for(uint i = 0; i <= _end - _start; i++){\n            _donos[i] = retrieve_comment_donation(_postId, _commentId, _start + i);\n        }\n    }\n\n    function retrieve_comment_donations(address _following, uint _postNum, uint _commentId, uint _start, uint _end) public view returns(donation_info[] memory _donos){\n        require(userRegister.isUser(_following), \"Following must be registered.\");\n        uint _postId = feed.userFeed(_following, _postNum);\n        require(_postNum < feed.userFeedLength(_following), \"Invalid _postNum\");\n        require(feed.validComment(_postId, _commentId));\n        require(feed.validStartEnd(_start, _end, feed.totalCommentDonations(_postId, _commentId)));\n        _donos = new donation_info[](_end - _start + 1);\n        for(uint i = 0; i <= _end - _start; i++){\n            _donos[i] = retrieve_comment_donation(_postId, _commentId, _start + i);\n        }\n    }\n}\n",
  "sourcePath": "/home/stephensb/sb-labs/feed/contracts/dapp/feed/feed-viewer/FeedViewer.sol",
  "compiler": {
    "name": "solc",
    "version": "0.8.17+commit.8df45f5f.Emscripten.clang"
  },
  "schemaVersion": "3.4.11",
  "updatedAt": "2023-03-09T02:42:27.082Z",
  "devdoc": {
    "kind": "dev",
    "methods": {},
    "version": 1
  },
  "userdoc": {
    "kind": "user",
    "methods": {},
    "version": 1
  }
}