{
  "contractName": "Messages",
  "abi": [
    {
      "inputs": [
        {
          "internalType": "address",
          "name": "_userRegister",
          "type": "address"
        }
      ],
      "stateMutability": "nonpayable",
      "type": "constructor"
    },
    {
      "inputs": [],
      "name": "enableHash",
      "outputs": [
        {
          "internalType": "bytes32",
          "name": "",
          "type": "bytes32"
        }
      ],
      "stateMutability": "view",
      "type": "function"
    },
    {
      "inputs": [
        {
          "internalType": "address",
          "name": "",
          "type": "address"
        }
      ],
      "name": "receiverInfo",
      "outputs": [
        {
          "internalType": "bytes",
          "name": "_signature",
          "type": "bytes"
        },
        {
          "internalType": "bytes32",
          "name": "_r",
          "type": "bytes32"
        },
        {
          "internalType": "bytes32",
          "name": "_s",
          "type": "bytes32"
        },
        {
          "internalType": "uint8",
          "name": "_v",
          "type": "uint8"
        },
        {
          "internalType": "bool",
          "name": "_enabled",
          "type": "bool"
        }
      ],
      "stateMutability": "view",
      "type": "function"
    },
    {
      "inputs": [
        {
          "internalType": "bytes",
          "name": "_signature",
          "type": "bytes"
        }
      ],
      "name": "enable",
      "outputs": [],
      "stateMutability": "nonpayable",
      "type": "function"
    },
    {
      "inputs": [
        {
          "internalType": "address",
          "name": "_receiver",
          "type": "address"
        },
        {
          "internalType": "string",
          "name": "_cid",
          "type": "string"
        }
      ],
      "name": "send",
      "outputs": [],
      "stateMutability": "payable",
      "type": "function"
    },
    {
      "inputs": [
        {
          "internalType": "uint256",
          "name": "_index",
          "type": "uint256"
        }
      ],
      "name": "remove",
      "outputs": [],
      "stateMutability": "nonpayable",
      "type": "function"
    },
    {
      "inputs": [
        {
          "internalType": "uint256",
          "name": "_index",
          "type": "uint256"
        },
        {
          "internalType": "bool",
          "name": "_strong",
          "type": "bool"
        }
      ],
      "name": "remove",
      "outputs": [],
      "stateMutability": "nonpayable",
      "type": "function"
    },
    {
      "inputs": [
        {
          "internalType": "address",
          "name": "_receiver",
          "type": "address"
        },
        {
          "internalType": "uint256",
          "name": "_index",
          "type": "uint256"
        }
      ],
      "name": "withdraw",
      "outputs": [],
      "stateMutability": "payable",
      "type": "function"
    },
    {
      "inputs": [
        {
          "internalType": "uint256",
          "name": "_start",
          "type": "uint256"
        },
        {
          "internalType": "uint256",
          "name": "_end",
          "type": "uint256"
        }
      ],
      "name": "retrieve",
      "outputs": [
        {
          "components": [
            {
              "internalType": "string",
              "name": "_cid",
              "type": "string"
            },
            {
              "internalType": "address",
              "name": "_sender",
              "type": "address"
            },
            {
              "internalType": "uint256",
              "name": "_value",
              "type": "uint256"
            },
            {
              "internalType": "uint256",
              "name": "_block",
              "type": "uint256"
            },
            {
              "internalType": "uint256",
              "name": "_timestamp",
              "type": "uint256"
            }
          ],
          "internalType": "struct Messages.message[]",
          "name": "_messages",
          "type": "tuple[]"
        }
      ],
      "stateMutability": "view",
      "type": "function"
    },
    {
      "inputs": [
        {
          "internalType": "uint256",
          "name": "_index",
          "type": "uint256"
        }
      ],
      "name": "retrieve",
      "outputs": [
        {
          "components": [
            {
              "internalType": "string",
              "name": "_cid",
              "type": "string"
            },
            {
              "internalType": "address",
              "name": "_sender",
              "type": "address"
            },
            {
              "internalType": "uint256",
              "name": "_value",
              "type": "uint256"
            },
            {
              "internalType": "uint256",
              "name": "_block",
              "type": "uint256"
            },
            {
              "internalType": "uint256",
              "name": "_timestamp",
              "type": "uint256"
            }
          ],
          "internalType": "struct Messages.message",
          "name": "_message",
          "type": "tuple"
        }
      ],
      "stateMutability": "view",
      "type": "function"
    },
    {
      "inputs": [],
      "name": "number",
      "outputs": [
        {
          "internalType": "uint256",
          "name": "_num",
          "type": "uint256"
        }
      ],
      "stateMutability": "view",
      "type": "function"
    }
  ],
  "bytecode": "0x60c06040523480156200001157600080fd5b5060405162003648380380620036488339818101604052810190620000379190620003c8565b8073ffffffffffffffffffffffffffffffffffffffff1660808173ffffffffffffffffffffffffffffffffffffffff1681525050620000b66040518060400160405280601081526020017f456e61626c65204d657373616765732e00000000000000000000000000000000815250620000c460201b620014531760201c565b60a0818152505050620005a3565b6000620000dd82516200010e60201b6200148e1760201c565b82604051602001620000f192919062000510565b604051602081830303815290604052805190602001209050919050565b6060600060016200012a84620001f260201b6200155c1760201c565b01905060008167ffffffffffffffff8111156200014c576200014b62000545565b5b6040519080825280601f01601f1916602001820160405280156200017f5781602001600182028036833780820191505090505b509050600082602001820190505b600115620001e7578080600190039150507f3031323334353637383961626364656600000000000000000000000000000000600a86061a8153600a8581620001da57620001d962000574565b5b049450600085036200018d575b819350505050919050565b600080600090507a184f03e93ff9f4daa797ed6e38ed64bf6a1f010000000000000000831062000254577a184f03e93ff9f4daa797ed6e38ed64bf6a1f01000000000000000083816200024a576200024962000574565b5b0492506040810190505b6d04ee2d6d415b85acef8100000000831062000295576d04ee2d6d415b85acef810000000083816200028b576200028a62000574565b5b0492506020810190505b662386f26fc100008310620002c857662386f26fc100008381620002be57620002bd62000574565b5b0492506010810190505b6305f5e1008310620002f5576305f5e1008381620002eb57620002ea62000574565b5b0492506008810190505b61271083106200031e57612710838162000314576200031362000574565b5b0492506004810190505b606483106200034557606483816200033b576200033a62000574565b5b0492506002810190505b600a831062000355576001810190505b80915050919050565b600080fd5b600073ffffffffffffffffffffffffffffffffffffffff82169050919050565b6000620003908262000363565b9050919050565b620003a28162000383565b8114620003ae57600080fd5b50565b600081519050620003c28162000397565b92915050565b600060208284031215620003e157620003e06200035e565b5b6000620003f184828501620003b1565b91505092915050565b600081905092915050565b7f19457468657265756d205369676e6564204d6573736167653a0a000000000000600082015250565b60006200043d601a83620003fa565b91506200044a8262000405565b601a82019050919050565b600081519050919050565b60005b838110156200048057808201518184015260208101905062000463565b60008484015250505050565b6000620004998262000455565b620004a58185620003fa565b9350620004b781856020860162000460565b80840191505092915050565b600081519050919050565b600081905092915050565b6000620004e682620004c3565b620004f28185620004ce565b93506200050481856020860162000460565b80840191505092915050565b60006200051d826200042e565b91506200052b82856200048c565b9150620005398284620004d9565b91508190509392505050565b7f4e487b7100000000000000000000000000000000000000000000000000000000600052604160045260246000fd5b7f4e487b7100000000000000000000000000000000000000000000000000000000600052601260045260246000fd5b60805160a05161305c620005ec60003960008181610339015261049b01526000818161025c015281816108db01528181610cd701528181610db00152610e89015261305c6000f3fe6080604052600436106100915760003560e01c80638f88708b116100595780638f88708b1461017b5780639755e950146101b857806399142b5f146101f9578063d5f615c614610215578063f3fef3a31461023e57610091565b80630c9595561461009657806322cdaf5f146100bf5780634cc82215146100ea5780637c252208146101135780638381f58a14610150575b600080fd5b3480156100a257600080fd5b506100bd60048036038101906100b89190611c32565b61025a565b005b3480156100cb57600080fd5b506100d4610499565b6040516100e19190611c94565b60405180910390f35b3480156100f657600080fd5b50610111600480360381019061010c9190611ce5565b6104bd565b005b34801561011f57600080fd5b5061013a60048036038101906101359190611d12565b6105c3565b6040516101479190611f59565b60405180910390f35b34801561015c57600080fd5b506101656108d7565b6040516101729190611f8a565b60405180910390f35b34801561018757600080fd5b506101a2600480360381019061019d9190611ce5565b6109fa565b6040516101af919061201b565b60405180910390f35b3480156101c457600080fd5b506101df60048036038101906101da9190612069565b610bfd565b6040516101f0959493929190612122565b60405180910390f35b610213600480360381019061020e919061221d565b610cd5565b005b34801561022157600080fd5b5061023c600480360381019061023791906122a5565b61109d565b005b610258600480360381019061025391906122e5565b61125c565b005b7f000000000000000000000000000000000000000000000000000000000000000073ffffffffffffffffffffffffffffffffffffffff16634209fff1336040518263ffffffff1660e01b81526004016102b39190612334565b602060405180830381865afa1580156102d0573d6000803e3d6000fd5b505050506040513d601f19601f820116820180604052508101906102f49190612364565b610333576040517f08c379a000000000000000000000000000000000000000000000000000000000815260040161032a906123ee565b60405180910390fd5b61035e337f0000000000000000000000000000000000000000000000000000000000000000836116af565b61039d576040517f08c379a00000000000000000000000000000000000000000000000000000000081526004016103949061245a565b60405180910390fd5b60008060006020840151925060408401519150606084015160001a90506040518060a001604052808581526020018481526020018381526020018260ff168152602001600115158152506000803373ffffffffffffffffffffffffffffffffffffffff1673ffffffffffffffffffffffffffffffffffffffff168152602001908152602001600020600082015181600001908161043a9190612686565b50602082015181600101556040820151816002015560608201518160030160006101000a81548160ff021916908360ff16021790555060808201518160030160016101000a81548160ff02191690831515021790555090505050505050565b7f000000000000000000000000000000000000000000000000000000000000000081565b600160003373ffffffffffffffffffffffffffffffffffffffff1673ffffffffffffffffffffffffffffffffffffffff168152602001908152602001600020805490508110610541576040517f08c379a0000000000000000000000000000000000000000000000000000000008152600401610538906127ca565b60405180910390fd5b60405180602001604052806000815250600160003373ffffffffffffffffffffffffffffffffffffffff1673ffffffffffffffffffffffffffffffffffffffff16815260200190815260200160002082815481106105a2576105a16127ea565b5b906000526020600020906005020160000190816105bf9190612874565b5050565b606082821180156105df5750606483836105dd9190612975565b105b61061e576040517f08c379a0000000000000000000000000000000000000000000000000000000008152600401610615906129f5565b60405180910390fd5b600160003373ffffffffffffffffffffffffffffffffffffffff1673ffffffffffffffffffffffffffffffffffffffff1681526020019081526020016000208054905082106106a2576040517f08c379a000000000000000000000000000000000000000000000000000000000815260040161069990612a61565b60405180910390fd5b600183836106b09190612975565b6106ba9190612a81565b67ffffffffffffffff8111156106d3576106d2611b07565b5b60405190808252806020026020018201604052801561070c57816020015b6106f9611a36565b8152602001906001900390816106f15790505b50905060005b838361071e9190612975565b81116108d057600160003373ffffffffffffffffffffffffffffffffffffffff1673ffffffffffffffffffffffffffffffffffffffff168152602001908152602001600020818561076f9190612a81565b815481106107805761077f6127ea565b5b90600052602060002090600502016040518060a00160405290816000820180546107a9906124a9565b80601f01602080910402602001604051908101604052809291908181526020018280546107d5906124a9565b80156108225780601f106107f757610100808354040283529160200191610822565b820191906000526020600020905b81548152906001019060200180831161080557829003601f168201915b505050505081526020016001820160009054906101000a900473ffffffffffffffffffffffffffffffffffffffff1673ffffffffffffffffffffffffffffffffffffffff1673ffffffffffffffffffffffffffffffffffffffff16815260200160028201548152602001600382015481526020016004820154815250508282815181106108b2576108b16127ea565b5b602002602001018190525080806108c890612ab5565b915050610712565b5092915050565b60007f000000000000000000000000000000000000000000000000000000000000000073ffffffffffffffffffffffffffffffffffffffff16634209fff1336040518263ffffffff1660e01b81526004016109329190612334565b602060405180830381865afa15801561094f573d6000803e3d6000fd5b505050506040513d601f19601f820116820180604052508101906109739190612364565b6109b2576040517f08c379a00000000000000000000000000000000000000000000000000000000081526004016109a9906123ee565b60405180910390fd5b600160003373ffffffffffffffffffffffffffffffffffffffff1673ffffffffffffffffffffffffffffffffffffffff16815260200190815260200160002080549050905090565b610a02611a36565b600160003373ffffffffffffffffffffffffffffffffffffffff1673ffffffffffffffffffffffffffffffffffffffff168152602001908152602001600020805490508210610a86576040517f08c379a0000000000000000000000000000000000000000000000000000000008152600401610a7d90612b49565b60405180910390fd5b600160003373ffffffffffffffffffffffffffffffffffffffff1673ffffffffffffffffffffffffffffffffffffffff1681526020019081526020016000208281548110610ad757610ad66127ea565b5b90600052602060002090600502016040518060a0016040529081600082018054610b00906124a9565b80601f0160208091040260200160405190810160405280929190818152602001828054610b2c906124a9565b8015610b795780601f10610b4e57610100808354040283529160200191610b79565b820191906000526020600020905b815481529060010190602001808311610b5c57829003601f168201915b505050505081526020016001820160009054906101000a900473ffffffffffffffffffffffffffffffffffffffff1673ffffffffffffffffffffffffffffffffffffffff1673ffffffffffffffffffffffffffffffffffffffff16815260200160028201548152602001600382015481526020016004820154815250509050919050565b6000602052806000526040600020600091509050806000018054610c20906124a9565b80601f0160208091040260200160405190810160405280929190818152602001828054610c4c906124a9565b8015610c995780601f10610c6e57610100808354040283529160200191610c99565b820191906000526020600020905b815481529060010190602001808311610c7c57829003601f168201915b5050505050908060010154908060020154908060030160009054906101000a900460ff16908060030160019054906101000a900460ff16905085565b7f000000000000000000000000000000000000000000000000000000000000000073ffffffffffffffffffffffffffffffffffffffff16634209fff1336040518263ffffffff1660e01b8152600401610d2e9190612334565b602060405180830381865afa158015610d4b573d6000803e3d6000fd5b505050506040513d601f19601f82011682018060405250810190610d6f9190612364565b610dae576040517f08c379a0000000000000000000000000000000000000000000000000000000008152600401610da5906123ee565b60405180910390fd5b7f000000000000000000000000000000000000000000000000000000000000000073ffffffffffffffffffffffffffffffffffffffff16634209fff1836040518263ffffffff1660e01b8152600401610e079190612334565b602060405180830381865afa158015610e24573d6000803e3d6000fd5b505050506040513d601f19601f82011682018060405250810190610e489190612364565b610e87576040517f08c379a0000000000000000000000000000000000000000000000000000000008152600401610e7e90612bdb565b60405180910390fd5b7f000000000000000000000000000000000000000000000000000000000000000073ffffffffffffffffffffffffffffffffffffffff1663cd251a9a3484336040518463ffffffff1660e01b8152600401610ee3929190612bfb565b60206040518083038185885af1158015610f01573d6000803e3d6000fd5b50505050506040513d601f19601f82011682018060405250810190610f269190612364565b610f2f57600080fd5b610f3881611875565b610f77576040517f08c379a0000000000000000000000000000000000000000000000000000000008152600401610f6e90612c70565b60405180910390fd5b600160008373ffffffffffffffffffffffffffffffffffffffff1673ffffffffffffffffffffffffffffffffffffffff1681526020019081526020016000206040518060a001604052808381526020013373ffffffffffffffffffffffffffffffffffffffff16815260200134815260200143815260200142815250908060018154018082558091505060019003906000526020600020906005020160009091909190915060008201518160000190816110319190612874565b5060208201518160010160006101000a81548173ffffffffffffffffffffffffffffffffffffffff021916908373ffffffffffffffffffffffffffffffffffffffff16021790555060408201518160020155606082015181600301556080820151816004015550505050565b600160003373ffffffffffffffffffffffffffffffffffffffff1673ffffffffffffffffffffffffffffffffffffffff168152602001908152602001600020805490508210611121576040517f08c379a0000000000000000000000000000000000000000000000000000000008152600401611118906127ca565b60405180910390fd5b60405180602001604052806000815250600160003373ffffffffffffffffffffffffffffffffffffffff1673ffffffffffffffffffffffffffffffffffffffff1681526020019081526020016000208381548110611182576111816127ea565b5b9060005260206000209060050201600001908161119f9190612874565b50801561125857600160003373ffffffffffffffffffffffffffffffffffffffff1673ffffffffffffffffffffffffffffffffffffffff16815260200190815260200160002082815481106111f7576111f66127ea565b5b9060005260206000209060050201600080820160006112169190611a7b565b6001820160006101000a81549073ffffffffffffffffffffffffffffffffffffffff021916905560028201600090556003820160009055600482016000905550505b5050565b80600160003373ffffffffffffffffffffffffffffffffffffffff1673ffffffffffffffffffffffffffffffffffffffff16815260200190815260200160002080549050106112e0576040517f08c379a00000000000000000000000000000000000000000000000000000000081526004016112d7906127ca565b60405180910390fd5b3373ffffffffffffffffffffffffffffffffffffffff16600160008473ffffffffffffffffffffffffffffffffffffffff1673ffffffffffffffffffffffffffffffffffffffff1681526020019081526020016000208281548110611348576113476127ea565b5b906000526020600020906005020160010160009054906101000a900473ffffffffffffffffffffffffffffffffffffffff1673ffffffffffffffffffffffffffffffffffffffff16146113d0576040517f08c379a00000000000000000000000000000000000000000000000000000000081526004016113c790612cdc565b60405180910390fd5b60405180602001604052806000815250600160008473ffffffffffffffffffffffffffffffffffffffff1673ffffffffffffffffffffffffffffffffffffffff1681526020019081526020016000208281548110611431576114306127ea565b5b9060005260206000209060050201600001908161144e9190612874565b505050565b600061145f825161148e565b82604051602001611471929190612dc0565b604051602081830303815290604052805190602001209050919050565b60606000600161149d8461155c565b01905060008167ffffffffffffffff8111156114bc576114bb611b07565b5b6040519080825280601f01601f1916602001820160405280156114ee5781602001600182028036833780820191505090505b509050600082602001820190505b600115611551578080600190039150507f3031323334353637383961626364656600000000000000000000000000000000600a86061a8153600a858161154557611544612def565b5b049450600085036114fc575b819350505050919050565b600080600090507a184f03e93ff9f4daa797ed6e38ed64bf6a1f01000000000000000083106115ba577a184f03e93ff9f4daa797ed6e38ed64bf6a1f01000000000000000083816115b0576115af612def565b5b0492506040810190505b6d04ee2d6d415b85acef810000000083106115f7576d04ee2d6d415b85acef810000000083816115ed576115ec612def565b5b0492506020810190505b662386f26fc10000831061162657662386f26fc10000838161161c5761161b612def565b5b0492506010810190505b6305f5e100831061164f576305f5e100838161164557611644612def565b5b0492506008810190505b612710831061167457612710838161166a57611669612def565b5b0492506004810190505b60648310611697576064838161168d5761168c612def565b5b0492506002810190505b600a83106116a6576001810190505b80915050919050565b60008060006116be8585611903565b91509150600060048111156116d6576116d5612e1e565b5b8160048111156116e9576116e8612e1e565b5b14801561172157508573ffffffffffffffffffffffffffffffffffffffff168273ffffffffffffffffffffffffffffffffffffffff16145b156117315760019250505061186e565b6000808773ffffffffffffffffffffffffffffffffffffffff16631626ba7e60e01b8888604051602401611766929190612e4d565b604051602081830303815290604052907bffffffffffffffffffffffffffffffffffffffffffffffffffffffff19166020820180517bffffffffffffffffffffffffffffffffffffffffffffffffffffffff83818316178352505050506040516117d09190612e7d565b600060405180830381855afa9150503d806000811461180b576040519150601f19603f3d011682016040523d82523d6000602084013e611810565b606091505b5091509150818015611823575060208151145b80156118675750631626ba7e60e01b7bffffffffffffffffffffffffffffffffffffffffffffffffffffffff1916818060200190518101906118659190612ec0565b145b9450505050505b9392505050565b60007f62616761616965726100000000000000000000000000000000000000000000006040516020016118a89190612f3a565b60405160208183030381529060405280519060200120826118c890612f7a565b6040516020016118d89190612f3a565b604051602081830303815290604052805190602001201480156118fc5750603d8251145b9050919050565b60008060418351036119445760008060006020860151925060408601519150606086015160001a905061193887828585611954565b9450945050505061194d565b60006002915091505b9250929050565b6000807f7fffffffffffffffffffffffffffffff5d576e7357a4501ddfe92f46681b20a08360001c111561198f576000600391509150611a2d565b6000600187878787604051600081526020016040526040516119b49493929190612fe1565b6020604051602081039080840390855afa1580156119d6573d6000803e3d6000fd5b505050602060405103519050600073ffffffffffffffffffffffffffffffffffffffff168173ffffffffffffffffffffffffffffffffffffffff1603611a2457600060019250925050611a2d565b80600092509250505b94509492505050565b6040518060a0016040528060608152602001600073ffffffffffffffffffffffffffffffffffffffff1681526020016000815260200160008152602001600081525090565b508054611a87906124a9565b6000825580601f10611a995750611ab8565b601f016020900490600052602060002090810190611ab79190611abb565b5b50565b5b80821115611ad4576000816000905550600101611abc565b5090565b6000604051905090565b600080fd5b600080fd5b600080fd5b600080fd5b6000601f19601f8301169050919050565b7f4e487b7100000000000000000000000000000000000000000000000000000000600052604160045260246000fd5b611b3f82611af6565b810181811067ffffffffffffffff82111715611b5e57611b5d611b07565b5b80604052505050565b6000611b71611ad8565b9050611b7d8282611b36565b919050565b600067ffffffffffffffff821115611b9d57611b9c611b07565b5b611ba682611af6565b9050602081019050919050565b82818337600083830152505050565b6000611bd5611bd084611b82565b611b67565b905082815260208101848484011115611bf157611bf0611af1565b5b611bfc848285611bb3565b509392505050565b600082601f830112611c1957611c18611aec565b5b8135611c29848260208601611bc2565b91505092915050565b600060208284031215611c4857611c47611ae2565b5b600082013567ffffffffffffffff811115611c6657611c65611ae7565b5b611c7284828501611c04565b91505092915050565b6000819050919050565b611c8e81611c7b565b82525050565b6000602082019050611ca96000830184611c85565b92915050565b6000819050919050565b611cc281611caf565b8114611ccd57600080fd5b50565b600081359050611cdf81611cb9565b92915050565b600060208284031215611cfb57611cfa611ae2565b5b6000611d0984828501611cd0565b91505092915050565b60008060408385031215611d2957611d28611ae2565b5b6000611d3785828601611cd0565b9250506020611d4885828601611cd0565b9150509250929050565b600081519050919050565b600082825260208201905092915050565b6000819050602082019050919050565b600081519050919050565b600082825260208201905092915050565b60005b83811015611db8578082015181840152602081019050611d9d565b60008484015250505050565b6000611dcf82611d7e565b611dd98185611d89565b9350611de9818560208601611d9a565b611df281611af6565b840191505092915050565b600073ffffffffffffffffffffffffffffffffffffffff82169050919050565b6000611e2882611dfd565b9050919050565b611e3881611e1d565b82525050565b611e4781611caf565b82525050565b600060a0830160008301518482036000860152611e6a8282611dc4565b9150506020830151611e7f6020860182611e2f565b506040830151611e926040860182611e3e565b506060830151611ea56060860182611e3e565b506080830151611eb86080860182611e3e565b508091505092915050565b6000611ecf8383611e4d565b905092915050565b6000602082019050919050565b6000611eef82611d52565b611ef98185611d5d565b935083602082028501611f0b85611d6e565b8060005b85811015611f475784840389528151611f288582611ec3565b9450611f3383611ed7565b925060208a01995050600181019050611f0f565b50829750879550505050505092915050565b60006020820190508181036000830152611f738184611ee4565b905092915050565b611f8481611caf565b82525050565b6000602082019050611f9f6000830184611f7b565b92915050565b600060a0830160008301518482036000860152611fc28282611dc4565b9150506020830151611fd76020860182611e2f565b506040830151611fea6040860182611e3e565b506060830151611ffd6060860182611e3e565b5060808301516120106080860182611e3e565b508091505092915050565b600060208201905081810360008301526120358184611fa5565b905092915050565b61204681611e1d565b811461205157600080fd5b50565b6000813590506120638161203d565b92915050565b60006020828403121561207f5761207e611ae2565b5b600061208d84828501612054565b91505092915050565b600081519050919050565b600082825260208201905092915050565b60006120bd82612096565b6120c781856120a1565b93506120d7818560208601611d9a565b6120e081611af6565b840191505092915050565b600060ff82169050919050565b612101816120eb565b82525050565b60008115159050919050565b61211c81612107565b82525050565b600060a082019050818103600083015261213c81886120b2565b905061214b6020830187611c85565b6121586040830186611c85565b61216560608301856120f8565b6121726080830184612113565b9695505050505050565b600067ffffffffffffffff82111561219757612196611b07565b5b6121a082611af6565b9050602081019050919050565b60006121c06121bb8461217c565b611b67565b9050828152602081018484840111156121dc576121db611af1565b5b6121e7848285611bb3565b509392505050565b600082601f83011261220457612203611aec565b5b81356122148482602086016121ad565b91505092915050565b6000806040838503121561223457612233611ae2565b5b600061224285828601612054565b925050602083013567ffffffffffffffff81111561226357612262611ae7565b5b61226f858286016121ef565b9150509250929050565b61228281612107565b811461228d57600080fd5b50565b60008135905061229f81612279565b92915050565b600080604083850312156122bc576122bb611ae2565b5b60006122ca85828601611cd0565b92505060206122db85828601612290565b9150509250929050565b600080604083850312156122fc576122fb611ae2565b5b600061230a85828601612054565b925050602061231b85828601611cd0565b9150509250929050565b61232e81611e1d565b82525050565b60006020820190506123496000830184612325565b92915050565b60008151905061235e81612279565b92915050565b60006020828403121561237a57612379611ae2565b5b60006123888482850161234f565b91505092915050565b600082825260208201905092915050565b7f53656e646572206d75737420626520726567697374657265642e000000000000600082015250565b60006123d8601a83612391565b91506123e3826123a2565b602082019050919050565b60006020820190508181036000830152612407816123cb565b9050919050565b7f496e76616c6964205369676e6174757265000000000000000000000000000000600082015250565b6000612444601183612391565b915061244f8261240e565b602082019050919050565b6000602082019050818103600083015261247381612437565b9050919050565b7f4e487b7100000000000000000000000000000000000000000000000000000000600052602260045260246000fd5b600060028204905060018216806124c157607f821691505b6020821081036124d4576124d361247a565b5b50919050565b60008190508160005260206000209050919050565b60006020601f8301049050919050565b600082821b905092915050565b60006008830261253c7fffffffffffffffffffffffffffffffffffffffffffffffffffffffffffffffff826124ff565b61254686836124ff565b95508019841693508086168417925050509392505050565b6000819050919050565b600061258361257e61257984611caf565b61255e565b611caf565b9050919050565b6000819050919050565b61259d83612568565b6125b16125a98261258a565b84845461250c565b825550505050565b600090565b6125c66125b9565b6125d1818484612594565b505050565b5b818110156125f5576125ea6000826125be565b6001810190506125d7565b5050565b601f82111561263a5761260b816124da565b612614846124ef565b81016020851015612623578190505b61263761262f856124ef565b8301826125d6565b50505b505050565b600082821c905092915050565b600061265d6000198460080261263f565b1980831691505092915050565b6000612676838361264c565b9150826002028217905092915050565b61268f82612096565b67ffffffffffffffff8111156126a8576126a7611b07565b5b6126b282546124a9565b6126bd8282856125f9565b600060209050601f8311600181146126f057600084156126de578287015190505b6126e8858261266a565b865550612750565b601f1984166126fe866124da565b60005b8281101561272657848901518255600182019150602085019450602081019050612701565b86831015612743578489015161273f601f89168261264c565b8355505b6001600288020188555050505b505050505050565b7f546865206d65737361676520696e646578206973206f7574206f662072616e6760008201527f652e000000000000000000000000000000000000000000000000000000000000602082015250565b60006127b4602283612391565b91506127bf82612758565b604082019050919050565b600060208201905081810360008301526127e3816127a7565b9050919050565b7f4e487b7100000000000000000000000000000000000000000000000000000000600052603260045260246000fd5b60008190508160005260206000209050919050565b601f82111561286f5761284081612819565b612849846124ef565b81016020851015612858578190505b61286c612864856124ef565b8301826125d6565b50505b505050565b61287d82611d7e565b67ffffffffffffffff81111561289657612895611b07565b5b6128a082546124a9565b6128ab82828561282e565b600060209050601f8311600181146128de57600084156128cc578287015190505b6128d6858261266a565b86555061293e565b601f1984166128ec86612819565b60005b82811015612914578489015182556001820191506020850194506020810190506128ef565b86831015612931578489015161292d601f89168261264c565b8355505b6001600288020188555050505b505050505050565b7f4e487b7100000000000000000000000000000000000000000000000000000000600052601160045260246000fd5b600061298082611caf565b915061298b83611caf565b92508282039050818111156129a3576129a2612946565b5b92915050565b7f496e76616c69642073746172742f656e642076616c75652f732e000000000000600082015250565b60006129df601a83612391565b91506129ea826129a9565b602082019050919050565b60006020820190508181036000830152612a0e816129d2565b9050919050565b7f496e76616c6964206d657373616765206172726179206c656e67746800000000600082015250565b6000612a4b601c83612391565b9150612a5682612a15565b602082019050919050565b60006020820190508181036000830152612a7a81612a3e565b9050919050565b6000612a8c82611caf565b9150612a9783611caf565b9250828201905080821115612aaf57612aae612946565b5b92915050565b6000612ac082611caf565b91507fffffffffffffffffffffffffffffffffffffffffffffffffffffffffffffffff8203612af257612af1612946565b5b600182019050919050565b7f5f696e64657820776173206f7574206f662072616e67652e0000000000000000600082015250565b6000612b33601883612391565b9150612b3e82612afd565b602082019050919050565b60006020820190508181036000830152612b6281612b26565b9050919050565b7f546865207265636965766572206f6620796f7572206d657373616765206d757360008201527f7420626520726567697374657265642e00000000000000000000000000000000602082015250565b6000612bc5603083612391565b9150612bd082612b69565b604082019050919050565b60006020820190508181036000830152612bf481612bb8565b9050919050565b6000604082019050612c106000830185612325565b612c1d6020830184612325565b9392505050565b7f434944206d7573742062652076616c6964204a534f4e2e000000000000000000600082015250565b6000612c5a601783612391565b9150612c6582612c24565b602082019050919050565b60006020820190508181036000830152612c8981612c4d565b9050919050565b7f796f7520646964206e6f742073656e6420746865206d65737361676500000000600082015250565b6000612cc6601c83612391565b9150612cd182612c90565b602082019050919050565b60006020820190508181036000830152612cf581612cb9565b9050919050565b600081905092915050565b7f19457468657265756d205369676e6564204d6573736167653a0a000000000000600082015250565b6000612d3d601a83612cfc565b9150612d4882612d07565b601a82019050919050565b6000612d5e82611d7e565b612d688185612cfc565b9350612d78818560208601611d9a565b80840191505092915050565b600081905092915050565b6000612d9a82612096565b612da48185612d84565b9350612db4818560208601611d9a565b80840191505092915050565b6000612dcb82612d30565b9150612dd78285612d53565b9150612de38284612d8f565b91508190509392505050565b7f4e487b7100000000000000000000000000000000000000000000000000000000600052601260045260246000fd5b7f4e487b7100000000000000000000000000000000000000000000000000000000600052602160045260246000fd5b6000604082019050612e626000830185611c85565b8181036020830152612e7481846120b2565b90509392505050565b6000612e898284612d8f565b915081905092915050565b612e9d81611c7b565b8114612ea857600080fd5b50565b600081519050612eba81612e94565b92915050565b600060208284031215612ed657612ed5611ae2565b5b6000612ee484828501612eab565b91505092915050565b60007fffffffffffffffffff000000000000000000000000000000000000000000000082169050919050565b6000819050919050565b612f34612f2f82612eed565b612f19565b82525050565b6000612f468284612f23565b60098201915081905092915050565b6000819050602082019050919050565b6000612f718251612eed565b80915050919050565b6000612f8582612096565b82612f8f84612f55565b9050612f9a81612f65565b92506009821015612fda57612fd57fffffffffffffffffff0000000000000000000000000000000000000000000000836009036008026124ff565b831692505b5050919050565b6000608082019050612ff66000830187611c85565b61300360208301866120f8565b6130106040830185611c85565b61301d6060830184611c85565b9594505050505056fea26469706673582212208a673220e2ebf0880e62a9ef0293171b260c51c50b25c8de94ceee79897afde664736f6c63430008110033",
  "immutableReferences": {
    "5175": [
      {
        "length": 32,
        "start": 604
      },
      {
        "length": 32,
        "start": 2267
      },
      {
        "length": 32,
        "start": 3287
      },
      {
        "length": 32,
        "start": 3504
      },
      {
        "length": 32,
        "start": 3721
      }
    ],
    "5177": [
      {
        "length": 32,
        "start": 825
      },
      {
        "length": 32,
        "start": 1179
      }
    ]
  },
  "source": "// SPDX-License-Identifier: MIT\npragma solidity ^0.8.5;\n\nimport \"@openzeppelin/contracts/token/ERC721/IERC721.sol\";\n\nimport \"@openzeppelin/contracts/utils/cryptography/SignatureChecker.sol\";\n\nimport \"@openzeppelin/contracts/utils/cryptography/ECDSA.sol\";\n\nimport \"../user-register/UserRegister.sol\";\n\nimport \"../helper/Helper.sol\";\n\n// reentrency gaurd\n\ncontract Messages{\n\n    UserRegister immutable userRegister;\n\n    bytes32 public immutable enableHash;\n\n    mapping(address => info) public receiverInfo;\n\n    mapping(address => message[]) messages;\n\n    struct info{\n        bytes _signature;\n        bytes32 _r;\n        bytes32 _s;\n        uint8 _v;\n        bool _enabled;\n    }\n\n    struct message{\n        string _cid;\n        address _sender;\n        uint _value;\n        uint _block;\n        uint _timestamp;\n    }\n\n    modifier isUser(){\n        require(userRegister.isUser(msg.sender), \"Sender must be registered.\");\n        _;\n    }\n\n    constructor(address _userRegister){\n        userRegister = UserRegister(_userRegister);\n        enableHash = ECDSA.toEthSignedMessageHash(bytes(\"Enable Messages.\"));\n    }\n    \n    function enable(bytes memory _signature) public isUser{\n        require(SignatureChecker.isValidSignatureNow(msg.sender, enableHash, _signature), \"Invalid Signature\");\n        \n        bytes32 r;\n        bytes32 s;\n        uint8 v;\n        // ecrecover takes the signature parameters, and the only way to get them\n        // currently is to use assembly.\n        /// @solidity memory-safe-assembly\n        assembly {\n            r := mload(add(_signature, 0x20))\n            s := mload(add(_signature, 0x40))\n            v := byte(0, mload(add(_signature, 0x60)))\n        }\n        \n        receiverInfo[msg.sender] = info(_signature, r, s, v, true);\n\n    }\n\n    //( string memory _name, , , , ) = userRegister.userRegister(msg.sender);\n\n    function send(address _receiver, string memory _cid) public payable isUser{\n        require(userRegister.isUser(_receiver), \"The reciever of your message must be registered.\");\n        require(userRegister.validInteraction{value: msg.value}(_receiver, msg.sender));\n        require(Helper.isV1JSONCID(_cid), \"CID must be valid JSON.\");\n        messages[_receiver].push(message(_cid, msg.sender, msg.value, block.number, block.timestamp));\n    }\n\n            /*\n        messages[msg.sender][_index] = messages[msg.sender][messages[msg.sender].length - 1];\n        messages[msg.sender].pop();*/\n\n    function remove(uint _index) public{\n        require(_index < messages[msg.sender].length, \"The message index is out of range.\");\n        messages[msg.sender][_index]._cid = \"\";\n    }\n\n    function remove(uint _index, bool _strong) public {\n        require(_index < messages[msg.sender].length, \"The message index is out of range.\");\n        messages[msg.sender][_index]._cid = \"\";\n        if(_strong){\n            delete messages[msg.sender][_index];   \n        }\n    }\n\n    function withdraw(address _receiver, uint _index) public payable{\n        require(messages[msg.sender].length < _index, \"The message index is out of range.\");\n        require(messages[_receiver][_index]._sender == msg.sender, \"you did not send the message\");\n        messages[_receiver][_index]._cid = \"\";\n    }\n\n    function retrieve(uint _index) public view returns(message memory _message){\n        require(_index < messages[msg.sender].length, \"_index was out of range.\");\n        return messages[msg.sender][_index];\n    }\n\n    function retrieve(uint _start, uint _end) public view returns(message[] memory _messages){\n        require(_end > _start && (_end - _start) < 100, \"Invalid start/end value/s.\");\n        require(_end < messages[msg.sender].length, \"Invalid message array length\");\n        _messages = new message[](_end - _start + 1);\n        for(uint i = 0; i <= _end - _start; i++){\n            _messages[i] = messages[msg.sender][_start + i];\n        }\n    }\n\n    function number() public view isUser returns(uint _num){\n        return messages[msg.sender].length;\n    }\n}",
  "sourcePath": "/home/stephensb/sb-labs/feed/contracts/dapp/messages/Messages.sol",
  "compiler": {
    "name": "solc",
    "version": "0.8.17+commit.8df45f5f.Emscripten.clang"
  },
  "schemaVersion": "3.4.11",
  "updatedAt": "2023-03-09T02:42:27.091Z",
  "devdoc": {
    "kind": "dev",
    "methods": {},
    "version": 1
  },
  "userdoc": {
    "kind": "user",
    "methods": {},
    "version": 1
  }
}