{
  "contractName": "Oracle",
  "abi": [
    {
      "inputs": [
        {
          "internalType": "address",
          "name": "_userRegister",
          "type": "address"
        },
        {
          "components": [
            {
              "internalType": "uint256",
              "name": "_min",
              "type": "uint256"
            },
            {
              "internalType": "uint256",
              "name": "_max",
              "type": "uint256"
            },
            {
              "internalType": "uint256",
              "name": "_stake",
              "type": "uint256"
            },
            {
              "internalType": "address",
              "name": "_validator",
              "type": "address"
            }
          ],
          "internalType": "struct Oracle.validator[3]",
          "name": "_validators",
          "type": "tuple[3]"
        },
        {
          "internalType": "uint256",
          "name": "_slotLen",
          "type": "uint256"
        },
        {
          "internalType": "uint256",
          "name": "_slotNum",
          "type": "uint256"
        },
        {
          "internalType": "uint256",
          "name": "_transitionLen",
          "type": "uint256"
        }
      ],
      "stateMutability": "nonpayable",
      "type": "constructor"
    },
    {
      "inputs": [
        {
          "internalType": "uint256",
          "name": "",
          "type": "uint256"
        }
      ],
      "name": "contractArr",
      "outputs": [
        {
          "internalType": "address",
          "name": "",
          "type": "address"
        }
      ],
      "stateMutability": "view",
      "type": "function"
    },
    {
      "inputs": [
        {
          "internalType": "address",
          "name": "",
          "type": "address"
        }
      ],
      "name": "contractMap",
      "outputs": [
        {
          "internalType": "bool",
          "name": "",
          "type": "bool"
        }
      ],
      "stateMutability": "view",
      "type": "function"
    },
    {
      "inputs": [
        {
          "internalType": "uint256",
          "name": "",
          "type": "uint256"
        }
      ],
      "name": "currentValidators",
      "outputs": [
        {
          "internalType": "uint256",
          "name": "_min",
          "type": "uint256"
        },
        {
          "internalType": "uint256",
          "name": "_max",
          "type": "uint256"
        },
        {
          "internalType": "uint256",
          "name": "_stake",
          "type": "uint256"
        },
        {
          "internalType": "address",
          "name": "_validator",
          "type": "address"
        }
      ],
      "stateMutability": "view",
      "type": "function"
    },
    {
      "inputs": [],
      "name": "epoch",
      "outputs": [
        {
          "internalType": "uint256",
          "name": "",
          "type": "uint256"
        }
      ],
      "stateMutability": "view",
      "type": "function"
    },
    {
      "inputs": [
        {
          "internalType": "uint256",
          "name": "",
          "type": "uint256"
        }
      ],
      "name": "nextValidators",
      "outputs": [
        {
          "internalType": "uint256",
          "name": "_min",
          "type": "uint256"
        },
        {
          "internalType": "uint256",
          "name": "_max",
          "type": "uint256"
        },
        {
          "internalType": "uint256",
          "name": "_stake",
          "type": "uint256"
        },
        {
          "internalType": "address",
          "name": "_validator",
          "type": "address"
        }
      ],
      "stateMutability": "view",
      "type": "function"
    },
    {
      "inputs": [
        {
          "internalType": "uint256",
          "name": "",
          "type": "uint256"
        }
      ],
      "name": "slot",
      "outputs": [
        {
          "internalType": "uint256",
          "name": "",
          "type": "uint256"
        }
      ],
      "stateMutability": "view",
      "type": "function"
    },
    {
      "inputs": [],
      "name": "slotLen",
      "outputs": [
        {
          "internalType": "uint256",
          "name": "",
          "type": "uint256"
        }
      ],
      "stateMutability": "view",
      "type": "function"
    },
    {
      "inputs": [],
      "name": "slotNum",
      "outputs": [
        {
          "internalType": "uint256",
          "name": "",
          "type": "uint256"
        }
      ],
      "stateMutability": "view",
      "type": "function"
    },
    {
      "inputs": [
        {
          "internalType": "uint256",
          "name": "",
          "type": "uint256"
        }
      ],
      "name": "transition",
      "outputs": [
        {
          "internalType": "uint256",
          "name": "",
          "type": "uint256"
        }
      ],
      "stateMutability": "view",
      "type": "function"
    },
    {
      "inputs": [],
      "name": "transitionLen",
      "outputs": [
        {
          "internalType": "uint256",
          "name": "",
          "type": "uint256"
        }
      ],
      "stateMutability": "view",
      "type": "function"
    },
    {
      "inputs": [],
      "name": "userRegister",
      "outputs": [
        {
          "internalType": "contract UserRegister",
          "name": "",
          "type": "address"
        }
      ],
      "stateMutability": "view",
      "type": "function"
    },
    {
      "inputs": [
        {
          "internalType": "address",
          "name": "",
          "type": "address"
        }
      ],
      "name": "validatorMap",
      "outputs": [
        {
          "internalType": "uint256",
          "name": "_min",
          "type": "uint256"
        },
        {
          "internalType": "uint256",
          "name": "_max",
          "type": "uint256"
        },
        {
          "internalType": "uint256",
          "name": "_stake",
          "type": "uint256"
        },
        {
          "internalType": "address",
          "name": "_validator",
          "type": "address"
        }
      ],
      "stateMutability": "view",
      "type": "function"
    },
    {
      "inputs": [],
      "name": "stake",
      "outputs": [],
      "stateMutability": "payable",
      "type": "function"
    },
    {
      "inputs": [],
      "name": "widthdraw",
      "outputs": [],
      "stateMutability": "nonpayable",
      "type": "function"
    },
    {
      "inputs": [
        {
          "internalType": "address[]",
          "name": "_contracts",
          "type": "address[]"
        },
        {
          "components": [
            {
              "internalType": "bytes32",
              "name": "_prev",
              "type": "bytes32"
            },
            {
              "internalType": "bytes32",
              "name": "_root",
              "type": "bytes32"
            },
            {
              "internalType": "uint256",
              "name": "_num",
              "type": "uint256"
            },
            {
              "internalType": "string",
              "name": "_cid",
              "type": "string"
            }
          ],
          "internalType": "struct Oracle.oracleBlock[]",
          "name": "_blocks",
          "type": "tuple[]"
        }
      ],
      "name": "submitBlocks",
      "outputs": [],
      "stateMutability": "nonpayable",
      "type": "function"
    },
    {
      "inputs": [],
      "name": "executeBlocks",
      "outputs": [],
      "stateMutability": "nonpayable",
      "type": "function"
    },
    {
      "inputs": [],
      "name": "disputeBlocks",
      "outputs": [],
      "stateMutability": "nonpayable",
      "type": "function"
    },
    {
      "inputs": [],
      "name": "transitionEpoch",
      "outputs": [],
      "stateMutability": "nonpayable",
      "type": "function"
    }
  ],
  "bytecode": "0x60806040523480156200001157600080fd5b506040516200144a3803806200144a8339818101604052810190620000379190620005bc565b84602560006101000a81548173ffffffffffffffffffffffffffffffffffffffff021916908373ffffffffffffffffffffffffffffffffffffffff160217905550600080819055508160048190555082600381905550436001600060028110620000a657620000a562000648565b5b018190555060035443620000bb9190620006a6565b60018060028110620000d257620000d162000648565b5b018190555080600781905550600354600454620000f09190620006e1565b600560006002811062000108576200010762000648565b5b018190555080600560006002811062000126576200012562000648565b5b0154620001349190620006a6565b60056001600281106200014c576200014b62000648565b5b018190555060005b6003811015620002b45784816003811062000174576200017362000648565b5b60200201516016826003811062000190576200018f62000648565b5b6004020160008201518160000155602082015181600101556040820151816002015560608201518160030160006101000a81548173ffffffffffffffffffffffffffffffffffffffff021916908373ffffffffffffffffffffffffffffffffffffffff1602179055509050600a826003811062000212576200021162000648565b5b600402016000820154816000015560018201548160010155600282015481600201556003820160009054906101000a900473ffffffffffffffffffffffffffffffffffffffff168160030160006101000a81548173ffffffffffffffffffffffffffffffffffffffff021916908373ffffffffffffffffffffffffffffffffffffffff1602179055509050508080620002ab906200072c565b91505062000154565b5083600060038110620002cc57620002cb62000648565b5b602002015160600151600860006101000a81548173ffffffffffffffffffffffffffffffffffffffff021916908373ffffffffffffffffffffffffffffffffffffffff160217905550505050505062000779565b6000604051905090565b600080fd5b600073ffffffffffffffffffffffffffffffffffffffff82169050919050565b60006200035c826200032f565b9050919050565b6200036e816200034f565b81146200037a57600080fd5b50565b6000815190506200038e8162000363565b92915050565b600080fd5b6000601f19601f8301169050919050565b7f4e487b7100000000000000000000000000000000000000000000000000000000600052604160045260246000fd5b620003e48262000399565b810181811067ffffffffffffffff82111715620004065762000405620003aa565b5b80604052505050565b60006200041b62000320565b9050620004298282620003d9565b919050565b600067ffffffffffffffff8211156200044c576200044b620003aa565b5b602082029050919050565b600080fd5b600080fd5b6000819050919050565b620004768162000461565b81146200048257600080fd5b50565b60008151905062000496816200046b565b92915050565b600060808284031215620004b557620004b46200045c565b5b620004c160806200040f565b90506000620004d38482850162000485565b6000830152506020620004e98482850162000485565b6020830152506040620004ff8482850162000485565b604083015250606062000515848285016200037d565b60608301525092915050565b60006200053862000532846200042e565b6200040f565b9050806080840283018581111562000555576200055462000457565b5b835b818110156200058257806200056d88826200049c565b84526020840193505060808101905062000557565b5050509392505050565b600082601f830112620005a457620005a362000394565b5b6003620005b384828562000521565b91505092915050565b60008060008060006102008688031215620005dc57620005db6200032a565b5b6000620005ec888289016200037d565b9550506020620005ff888289016200058c565b9450506101a0620006138882890162000485565b9350506101c0620006278882890162000485565b9250506101e06200063b8882890162000485565b9150509295509295909350565b7f4e487b7100000000000000000000000000000000000000000000000000000000600052603260045260246000fd5b7f4e487b7100000000000000000000000000000000000000000000000000000000600052601160045260246000fd5b6000620006b38262000461565b9150620006c08362000461565b9250828201905080821115620006db57620006da62000677565b5b92915050565b6000620006ee8262000461565b9150620006fb8362000461565b92508282026200070b8162000461565b9150828204841483151762000725576200072462000677565b5b5092915050565b6000620007398262000461565b91507fffffffffffffffffffffffffffffffffffffffffffffffffffffffffffffffff82036200076e576200076d62000677565b5b600182019050919050565b610cc180620007896000396000f3fe6080604052600436106101095760003560e01c8063900cf0cf11610095578063b2025e4f11610064578063b2025e4f1461031a578063bbab314c14610357578063c42dc6bd14610397578063c49fb297146103ae578063cc11d84c146103eb57610109565b8063900cf0cf1461025b578063900eb5a8146102865780639e0b1375146102c6578063af8b60a5146102ef57610109565b80633a4b66f1116100dc5780633a4b66f1146101a75780633c0af344146101b157806352b50a2a146101ee5780636c6f360e146102055780637a7206111461023057610109565b8063045a3ff91461010e57806318d50d331461013957806320f62eda1461017957806321d49a2414610190575b600080fd5b34801561011a57600080fd5b50610123610428565b604051610130919061061e565b60405180910390f35b34801561014557600080fd5b50610160600480360381019061015b91906106ab565b61042e565b60405161017094939291906106e7565b60405180910390f35b34801561018557600080fd5b5061018e61047e565b005b34801561019c57600080fd5b506101a5610480565b005b6101af610482565b005b3480156101bd57600080fd5b506101d860048036038101906101d391906106ab565b610484565b6040516101e59190610747565b60405180910390f35b3480156101fa57600080fd5b506102036104a4565b005b34801561021157600080fd5b5061021a6104a6565b60405161022791906107c1565b60405180910390f35b34801561023c57600080fd5b506102456104cc565b604051610252919061061e565b60405180910390f35b34801561026757600080fd5b506102706104d2565b60405161027d919061061e565b60405180910390f35b34801561029257600080fd5b506102ad60048036038101906102a89190610808565b6104d8565b6040516102bd94939291906106e7565b60405180910390f35b3480156102d257600080fd5b506102ed60048036038101906102e89190610bf8565b61052e565b005b3480156102fb57600080fd5b50610304610532565b604051610311919061061e565b60405180910390f35b34801561032657600080fd5b50610341600480360381019061033c9190610808565b610538565b60405161034e919061061e565b60405180910390f35b34801561036357600080fd5b5061037e60048036038101906103799190610808565b610553565b60405161038e94939291906106e7565b60405180910390f35b3480156103a357600080fd5b506103ac6105a9565b005b3480156103ba57600080fd5b506103d560048036038101906103d09190610808565b6105ab565b6040516103e29190610c70565b60405180910390f35b3480156103f757600080fd5b50610412600480360381019061040d9190610808565b6105ea565b60405161041f919061061e565b60405180910390f35b60035481565b60226020528060005260406000206000915090508060000154908060010154908060020154908060030160009054906101000a900473ffffffffffffffffffffffffffffffffffffffff16905084565b565b565b565b60246020528060005260406000206000915054906101000a900460ff1681565b565b602560009054906101000a900473ffffffffffffffffffffffffffffffffffffffff1681565b60045481565b60005481565b600a81600381106104e857600080fd5b600402016000915090508060000154908060010154908060020154908060030160009054906101000a900473ffffffffffffffffffffffffffffffffffffffff16905084565b5050565b60075481565b6001816002811061054857600080fd5b016000915090505481565b6016816003811061056357600080fd5b600402016000915090508060000154908060010154908060020154908060030160009054906101000a900473ffffffffffffffffffffffffffffffffffffffff16905084565b565b602381815481106105bb57600080fd5b906000526020600020016000915054906101000a900473ffffffffffffffffffffffffffffffffffffffff1681565b600581600281106105fa57600080fd5b016000915090505481565b6000819050919050565b61061881610605565b82525050565b6000602082019050610633600083018461060f565b92915050565b6000604051905090565b600080fd5b600080fd5b600073ffffffffffffffffffffffffffffffffffffffff82169050919050565b60006106788261064d565b9050919050565b6106888161066d565b811461069357600080fd5b50565b6000813590506106a58161067f565b92915050565b6000602082840312156106c1576106c0610643565b5b60006106cf84828501610696565b91505092915050565b6106e18161066d565b82525050565b60006080820190506106fc600083018761060f565b610709602083018661060f565b610716604083018561060f565b61072360608301846106d8565b95945050505050565b60008115159050919050565b6107418161072c565b82525050565b600060208201905061075c6000830184610738565b92915050565b6000819050919050565b600061078761078261077d8461064d565b610762565b61064d565b9050919050565b60006107998261076c565b9050919050565b60006107ab8261078e565b9050919050565b6107bb816107a0565b82525050565b60006020820190506107d660008301846107b2565b92915050565b6107e581610605565b81146107f057600080fd5b50565b600081359050610802816107dc565b92915050565b60006020828403121561081e5761081d610643565b5b600061082c848285016107f3565b91505092915050565b600080fd5b6000601f19601f8301169050919050565b7f4e487b7100000000000000000000000000000000000000000000000000000000600052604160045260246000fd5b6108838261083a565b810181811067ffffffffffffffff821117156108a2576108a161084b565b5b80604052505050565b60006108b5610639565b90506108c1828261087a565b919050565b600067ffffffffffffffff8211156108e1576108e061084b565b5b602082029050602081019050919050565b600080fd5b600061090a610905846108c6565b6108ab565b9050808382526020820190506020840283018581111561092d5761092c6108f2565b5b835b8181101561095657806109428882610696565b84526020840193505060208101905061092f565b5050509392505050565b600082601f83011261097557610974610835565b5b81356109858482602086016108f7565b91505092915050565b600067ffffffffffffffff8211156109a9576109a861084b565b5b602082029050602081019050919050565b600080fd5b600080fd5b6000819050919050565b6109d7816109c4565b81146109e257600080fd5b50565b6000813590506109f4816109ce565b92915050565b600080fd5b600067ffffffffffffffff821115610a1a57610a1961084b565b5b610a238261083a565b9050602081019050919050565b82818337600083830152505050565b6000610a52610a4d846109ff565b6108ab565b905082815260208101848484011115610a6e57610a6d6109fa565b5b610a79848285610a30565b509392505050565b600082601f830112610a9657610a95610835565b5b8135610aa6848260208601610a3f565b91505092915050565b600060808284031215610ac557610ac46109ba565b5b610acf60806108ab565b90506000610adf848285016109e5565b6000830152506020610af3848285016109e5565b6020830152506040610b07848285016107f3565b604083015250606082013567ffffffffffffffff811115610b2b57610b2a6109bf565b5b610b3784828501610a81565b60608301525092915050565b6000610b56610b518461098e565b6108ab565b90508083825260208201905060208402830185811115610b7957610b786108f2565b5b835b81811015610bc057803567ffffffffffffffff811115610b9e57610b9d610835565b5b808601610bab8982610aaf565b85526020850194505050602081019050610b7b565b5050509392505050565b600082601f830112610bdf57610bde610835565b5b8135610bef848260208601610b43565b91505092915050565b60008060408385031215610c0f57610c0e610643565b5b600083013567ffffffffffffffff811115610c2d57610c2c610648565b5b610c3985828601610960565b925050602083013567ffffffffffffffff811115610c5a57610c59610648565b5b610c6685828601610bca565b9150509250929050565b6000602082019050610c8560008301846106d8565b9291505056fea26469706673582212200740729ae0bb4f924982b9b052ef60c4ca743a251a425725e80426be4373050f64736f6c63430008110033",
  "immutableReferences": {},
  "source": "// SPDX-License-Identifier: MIT\npragma solidity ^0.8.5;\n\nimport \"@openzeppelin/contracts/utils/cryptography/SignatureChecker.sol\";\n\nimport \"../dapp/user-register/UserRegister.sol\";\n\n// An oracle to submit blocks to reliant contracts via pos validator set.\ncontract Oracle{\n\n    uint public epoch; // current epoch dictating the validator set.\n    uint[2] public slot; // current slot of blocks containing range of expected block submsion.\n    uint public slotLen;\n    uint public slotNum;\n    uint[2] public transition;\n    uint public transitionLen; // epoch transition block width, used to setup next validator set.\n    \n    address currentValidator; // current validator expected to submit a block;\n\n    // validator struct to determine valid stake range to submit block.\n    struct validator{\n        uint _min;\n        uint _max;\n        uint _stake;\n        address _validator;\n    }\n\n    uint totalStake; // total amount of base chain collateral staked.\n\n    validator[3] public currentValidators; // array containing current validator set for epoch.\n\n    validator[3] public nextValidators; // array containing validators for next epoch.\n\n    mapping(address => validator) public validatorMap;\n\n    address[] public contractArr; \n\n    mapping(address => bool) public contractMap;\n\n    UserRegister public userRegister;\n\n    struct oracleBlock{\n        bytes32 _prev;\n        bytes32 _root;\n        uint _num;\n        string _cid;\n    }\n\n    constructor(address _userRegister, validator[3] memory _validators, uint _slotLen, uint _slotNum, uint _transitionLen){\n        // User register initialization\n        userRegister = UserRegister(_userRegister);\n\n        // epoch and slot initialization\n        epoch = 0;\n\n        slotNum = _slotNum;\n\n        slotLen = _slotLen;\n\n        slot[0] = block.number;\n        slot[1] = block.number + slotLen;\n\n        // transition initialization\n        transitionLen = _transitionLen;\n        transition[0] = slotNum * slotLen;\n        transition[1] = transition[0] + _transitionLen;\n\n        // Validator initialization\n        for(uint i = 0; i < 3; i++){\n            currentValidators[i] = nextValidators[i] = _validators[i];\n        }\n        currentValidator = _validators[0]._validator;\n\n    }\n\n    function stake() public payable {\n\n    }\n\n    function widthdraw() public {\n\n    }\n\n    function submitBlocks(address[] memory _contracts, oracleBlock[] memory _blocks) public {\n\n    }\n\n    function executeBlocks() public{\n\n    }\n\n    function disputeBlocks() public{\n\n    }\n\n    function transitionEpoch() public {\n\n    }\n\n}",
  "sourcePath": "/home/stephensb/sb-labs/feed/contracts/oracle/Oracle.sol",
  "compiler": {
    "name": "solc",
    "version": "0.8.17+commit.8df45f5f.Emscripten.clang"
  },
  "schemaVersion": "3.4.11",
  "updatedAt": "2023-03-09T02:42:27.112Z",
  "devdoc": {
    "kind": "dev",
    "methods": {},
    "version": 1
  },
  "userdoc": {
    "kind": "user",
    "methods": {},
    "version": 1
  }
}