{
  "contractName": "UserRegister",
  "abi": [
    {
      "inputs": [
        {
          "internalType": "uint256",
          "name": "_registerFee",
          "type": "uint256"
        }
      ],
      "stateMutability": "nonpayable",
      "type": "constructor"
    },
    {
      "anonymous": false,
      "inputs": [
        {
          "indexed": true,
          "internalType": "address",
          "name": "previousOwner",
          "type": "address"
        },
        {
          "indexed": true,
          "internalType": "address",
          "name": "newOwner",
          "type": "address"
        }
      ],
      "name": "OwnershipTransferred",
      "type": "event"
    },
    {
      "inputs": [
        {
          "internalType": "address",
          "name": "",
          "type": "address"
        },
        {
          "internalType": "address",
          "name": "",
          "type": "address"
        }
      ],
      "name": "blackList",
      "outputs": [
        {
          "internalType": "bool",
          "name": "",
          "type": "bool"
        }
      ],
      "stateMutability": "view",
      "type": "function"
    },
    {
      "inputs": [
        {
          "internalType": "address",
          "name": "",
          "type": "address"
        }
      ],
      "name": "grayList",
      "outputs": [
        {
          "internalType": "uint256",
          "name": "",
          "type": "uint256"
        }
      ],
      "stateMutability": "view",
      "type": "function"
    },
    {
      "inputs": [
        {
          "internalType": "string",
          "name": "",
          "type": "string"
        }
      ],
      "name": "nameRegister",
      "outputs": [
        {
          "internalType": "address",
          "name": "",
          "type": "address"
        }
      ],
      "stateMutability": "view",
      "type": "function"
    },
    {
      "inputs": [],
      "name": "owner",
      "outputs": [
        {
          "internalType": "address",
          "name": "",
          "type": "address"
        }
      ],
      "stateMutability": "view",
      "type": "function"
    },
    {
      "inputs": [],
      "name": "registerFee",
      "outputs": [
        {
          "internalType": "uint256",
          "name": "",
          "type": "uint256"
        }
      ],
      "stateMutability": "view",
      "type": "function"
    },
    {
      "inputs": [],
      "name": "renounceOwnership",
      "outputs": [],
      "stateMutability": "nonpayable",
      "type": "function"
    },
    {
      "inputs": [
        {
          "internalType": "address",
          "name": "newOwner",
          "type": "address"
        }
      ],
      "name": "transferOwnership",
      "outputs": [],
      "stateMutability": "nonpayable",
      "type": "function"
    },
    {
      "inputs": [
        {
          "internalType": "address",
          "name": "",
          "type": "address"
        }
      ],
      "name": "userRegister",
      "outputs": [
        {
          "internalType": "string",
          "name": "_name",
          "type": "string"
        },
        {
          "internalType": "string",
          "name": "_avatar",
          "type": "string"
        },
        {
          "internalType": "string",
          "name": "_bio",
          "type": "string"
        },
        {
          "internalType": "uint256",
          "name": "_block",
          "type": "uint256"
        }
      ],
      "stateMutability": "view",
      "type": "function"
    },
    {
      "inputs": [
        {
          "internalType": "address",
          "name": "",
          "type": "address"
        },
        {
          "internalType": "address",
          "name": "",
          "type": "address"
        }
      ],
      "name": "whiteList",
      "outputs": [
        {
          "internalType": "bool",
          "name": "",
          "type": "bool"
        }
      ],
      "stateMutability": "view",
      "type": "function"
    },
    {
      "inputs": [
        {
          "internalType": "bytes32",
          "name": "_hash",
          "type": "bytes32"
        },
        {
          "internalType": "bytes",
          "name": "_signature",
          "type": "bytes"
        }
      ],
      "name": "register",
      "outputs": [],
      "stateMutability": "payable",
      "type": "function"
    },
    {
      "inputs": [
        {
          "internalType": "string",
          "name": "_name",
          "type": "string"
        },
        {
          "internalType": "string",
          "name": "_avatar",
          "type": "string"
        },
        {
          "internalType": "string",
          "name": "_bio",
          "type": "string"
        },
        {
          "internalType": "bytes",
          "name": "_signature",
          "type": "bytes"
        }
      ],
      "name": "confirm",
      "outputs": [],
      "stateMutability": "nonpayable",
      "type": "function"
    },
    {
      "inputs": [
        {
          "internalType": "string",
          "name": "_avatar",
          "type": "string"
        },
        {
          "internalType": "string",
          "name": "_bio",
          "type": "string"
        }
      ],
      "name": "update",
      "outputs": [],
      "stateMutability": "nonpayable",
      "type": "function"
    },
    {
      "inputs": [],
      "name": "release",
      "outputs": [],
      "stateMutability": "nonpayable",
      "type": "function"
    },
    {
      "inputs": [
        {
          "internalType": "uint256",
          "name": "_value",
          "type": "uint256"
        }
      ],
      "name": "setGrayList",
      "outputs": [],
      "stateMutability": "nonpayable",
      "type": "function"
    },
    {
      "inputs": [
        {
          "internalType": "address",
          "name": "_white",
          "type": "address"
        },
        {
          "internalType": "bool",
          "name": "_value",
          "type": "bool"
        }
      ],
      "name": "setWhiteList",
      "outputs": [],
      "stateMutability": "nonpayable",
      "type": "function"
    },
    {
      "inputs": [
        {
          "internalType": "address",
          "name": "_black",
          "type": "address"
        },
        {
          "internalType": "bool",
          "name": "_value",
          "type": "bool"
        }
      ],
      "name": "setBlackList",
      "outputs": [],
      "stateMutability": "nonpayable",
      "type": "function"
    },
    {
      "inputs": [
        {
          "internalType": "address",
          "name": "_receiver",
          "type": "address"
        },
        {
          "internalType": "address",
          "name": "_sender",
          "type": "address"
        }
      ],
      "name": "validInteraction",
      "outputs": [
        {
          "internalType": "bool",
          "name": "_interact",
          "type": "bool"
        }
      ],
      "stateMutability": "payable",
      "type": "function"
    },
    {
      "inputs": [
        {
          "internalType": "address",
          "name": "_user",
          "type": "address"
        }
      ],
      "name": "isUser",
      "outputs": [
        {
          "internalType": "bool",
          "name": "",
          "type": "bool"
        }
      ],
      "stateMutability": "view",
      "type": "function"
    },
    {
      "inputs": [
        {
          "internalType": "address",
          "name": "_user",
          "type": "address"
        }
      ],
      "name": "getInfo",
      "outputs": [
        {
          "components": [
            {
              "internalType": "string",
              "name": "_name",
              "type": "string"
            },
            {
              "internalType": "string",
              "name": "_avatar",
              "type": "string"
            },
            {
              "internalType": "string",
              "name": "_bio",
              "type": "string"
            },
            {
              "internalType": "uint256",
              "name": "_block",
              "type": "uint256"
            }
          ],
          "internalType": "struct UserRegister.User",
          "name": "_info",
          "type": "tuple"
        }
      ],
      "stateMutability": "view",
      "type": "function"
    },
    {
      "inputs": [
        {
          "internalType": "uint256",
          "name": "_registerFee",
          "type": "uint256"
        }
      ],
      "name": "setRegisterFee",
      "outputs": [],
      "stateMutability": "nonpayable",
      "type": "function"
    }
  ],
  "bytecode": "0x60806040523480156200001157600080fd5b5060405162003cf238038062003cf2833981810160405281019062000037919062000171565b620000576200004b6200006560201b60201c565b6200006d60201b60201c565b8060018190555050620001a3565b600033905090565b60008060009054906101000a900473ffffffffffffffffffffffffffffffffffffffff169050816000806101000a81548173ffffffffffffffffffffffffffffffffffffffff021916908373ffffffffffffffffffffffffffffffffffffffff1602179055508173ffffffffffffffffffffffffffffffffffffffff168173ffffffffffffffffffffffffffffffffffffffff167f8be0079c531659141344cd1fd0a4f28419497f9722a3daafe3b4186f6b6457e060405160405180910390a35050565b600080fd5b6000819050919050565b6200014b8162000136565b81146200015757600080fd5b50565b6000815190506200016b8162000140565b92915050565b6000602082840312156200018a576200018962000131565b5b60006200019a848285016200015a565b91505092915050565b613b3f80620001b36000396000f3fe60806040526004361061011f5760003560e01c80638d14e127116100a0578063cd251a9a11610064578063cd251a9a146103c5578063ce0fd176146103f5578063f2fde38b14610432578063f4c84d191461045b578063ffdd5cf1146104845761011f565b80638d14e127146102e25780638da5cb5b1461030b57806392be2ab814610336578063999cb7a21461035f578063b31433d31461039c5761011f565b80635625632c116100e75780635625632c1461022557806368092bd914610262578063715018a61461028b57806386d1a69f146102a25780638bc5f157146102b95761011f565b8063034254c91461012457806303f187ea146101615780632a28e5a31461018c5780634209fff1146101a857806353162558146101e5575b600080fd5b34801561013057600080fd5b5061014b6004803603810190610146919061235e565b6104c1565b60405161015891906123b9565b60405180910390f35b34801561016d57600080fd5b506101766104f0565b60405161018391906123ed565b60405180910390f35b6101a660048036038101906101a19190612584565b6104f6565b005b3480156101b457600080fd5b506101cf60048036038101906101ca91906125e0565b610636565b6040516101dc91906123b9565b60405180910390f35b3480156101f157600080fd5b5061020c600480360381019061020791906125e0565b610685565b60405161021c949392919061268c565b60405180910390f35b34801561023157600080fd5b5061024c60048036038101906102479190612787565b61084d565b60405161025991906127df565b60405180910390f35b34801561026e57600080fd5b5061028960048036038101906102849190612826565b610896565b005b34801561029757600080fd5b506102a06109fb565b005b3480156102ae57600080fd5b506102b7610a0f565b005b3480156102c557600080fd5b506102e060048036038101906102db9190612892565b610b0d565b005b3480156102ee57600080fd5b5061030960048036038101906103049190612826565b610bd9565b005b34801561031757600080fd5b50610320610d3e565b60405161032d91906127df565b60405180910390f35b34801561034257600080fd5b5061035d60048036038101906103589190612892565b610d67565b005b34801561036b57600080fd5b50610386600480360381019061038191906125e0565b610d79565b60405161039391906123ed565b60405180910390f35b3480156103a857600080fd5b506103c360048036038101906103be91906128bf565b610d91565b005b6103df60048036038101906103da919061235e565b61133b565b6040516103ec91906123b9565b60405180910390f35b34801561040157600080fd5b5061041c6004803603810190610417919061235e565b6115cf565b60405161042991906123b9565b60405180910390f35b34801561043e57600080fd5b50610459600480360381019061045491906125e0565b6115fe565b005b34801561046757600080fd5b50610482600480360381019061047d9190612996565b611681565b005b34801561049057600080fd5b506104ab60048036038101906104a691906125e0565b61183a565b6040516104b89190612ad8565b60405180910390f35b60056020528160005260406000206020528060005260406000206000915091509054906101000a900460ff1681565b60015481565b60015434101561053b576040517f08c379a000000000000000000000000000000000000000000000000000000000815260040161053290612b46565b60405180910390fd5b610546338383611a53565b610585576040517f08c379a000000000000000000000000000000000000000000000000000000000815260040161057c90612bd8565b60405180910390fd5b60405180606001604052808381526020013373ffffffffffffffffffffffffffffffffffffffff168152602001438152506007826040516105c69190612c3f565b90815260200160405180910390206000820151816000015560208201518160010160006101000a81548173ffffffffffffffffffffffffffffffffffffffff021916908373ffffffffffffffffffffffffffffffffffffffff160217905550604082015181600201559050505050565b600080600260008473ffffffffffffffffffffffffffffffffffffffff1673ffffffffffffffffffffffffffffffffffffffff1681526020019081526020016000206003015414159050919050565b60026020528060005260406000206000915090508060000180546106a890612c85565b80601f01602080910402602001604051908101604052809291908181526020018280546106d490612c85565b80156107215780601f106106f657610100808354040283529160200191610721565b820191906000526020600020905b81548152906001019060200180831161070457829003601f168201915b50505050509080600101805461073690612c85565b80601f016020809104026020016040519081016040528092919081815260200182805461076290612c85565b80156107af5780601f10610784576101008083540402835291602001916107af565b820191906000526020600020905b81548152906001019060200180831161079257829003601f168201915b5050505050908060020180546107c490612c85565b80601f01602080910402602001604051908101604052809291908181526020018280546107f090612c85565b801561083d5780601f106108125761010080835404028352916020019161083d565b820191906000526020600020905b81548152906001019060200180831161082057829003601f168201915b5050505050908060030154905084565b6003818051602081018201805184825260208301602085012081835280955050505050506000915054906101000a900473ffffffffffffffffffffffffffffffffffffffff1681565b6000600260003373ffffffffffffffffffffffffffffffffffffffff1673ffffffffffffffffffffffffffffffffffffffff168152602001908152602001600020600301540361091b576040517f08c379a000000000000000000000000000000000000000000000000000000000815260040161091290612d02565b60405180910390fd5b61092482610636565b610963576040517f08c379a000000000000000000000000000000000000000000000000000000000815260040161095a90612d94565b60405180910390fd5b80600560003373ffffffffffffffffffffffffffffffffffffffff1673ffffffffffffffffffffffffffffffffffffffff16815260200190815260200160002060008473ffffffffffffffffffffffffffffffffffffffff1673ffffffffffffffffffffffffffffffffffffffff16815260200190815260200160002060006101000a81548160ff0219169083151502179055505050565b610a03611c19565b610a0d6000611c97565b565b6003600260003373ffffffffffffffffffffffffffffffffffffffff1673ffffffffffffffffffffffffffffffffffffffff168152602001908152602001600020600001604051610a609190612e57565b908152602001604051809103902060006101000a81549073ffffffffffffffffffffffffffffffffffffffff0219169055600260003373ffffffffffffffffffffffffffffffffffffffff1673ffffffffffffffffffffffffffffffffffffffff16815260200190815260200160002060008082016000610ae19190612267565b600182016000610af19190612267565b600282016000610b019190612267565b60038201600090555050565b6000600260003373ffffffffffffffffffffffffffffffffffffffff1673ffffffffffffffffffffffffffffffffffffffff1681526020019081526020016000206003015403610b92576040517f08c379a0000000000000000000000000000000000000000000000000000000008152600401610b8990612d02565b60405180910390fd5b80600660003373ffffffffffffffffffffffffffffffffffffffff1673ffffffffffffffffffffffffffffffffffffffff1681526020019081526020016000208190555050565b6000600260003373ffffffffffffffffffffffffffffffffffffffff1673ffffffffffffffffffffffffffffffffffffffff1681526020019081526020016000206003015403610c5e576040517f08c379a0000000000000000000000000000000000000000000000000000000008152600401610c5590612d02565b60405180910390fd5b610c6782610636565b610ca6576040517f08c379a0000000000000000000000000000000000000000000000000000000008152600401610c9d90612ee0565b60405180910390fd5b80600460003373ffffffffffffffffffffffffffffffffffffffff1673ffffffffffffffffffffffffffffffffffffffff16815260200190815260200160002060008473ffffffffffffffffffffffffffffffffffffffff1673ffffffffffffffffffffffffffffffffffffffff16815260200190815260200160002060006101000a81548160ff0219169083151502179055505050565b60008060009054906101000a900473ffffffffffffffffffffffffffffffffffffffff16905090565b610d6f611c19565b8060018190555050565b60066020528060005260406000206000915090505481565b60048451118015610da45750601e845111155b610de3576040517f08c379a0000000000000000000000000000000000000000000000000000000008152600401610dda90612f4c565b60405180910390fd5b610dfc8360405180602001604052806000815250611d5b565b610e4957610e0983611db4565b610e48576040517f08c379a0000000000000000000000000000000000000000000000000000000008152600401610e3f90612fb8565b60405180910390fd5b5b610e628260405180602001604052806000815250611d5b565b610eaf57610e6f82611e42565b610eae576040517f08c379a0000000000000000000000000000000000000000000000000000000008152600401610ea590613024565b60405180910390fd5b5b6000600782604051610ec19190612c3f565b90815260200160405180910390206002015403610f13576040517f08c379a0000000000000000000000000000000000000000000000000000000008152600401610f0a906130b6565b60405180910390fd5b6000610f3f8533604051602001610f2b92919061314f565b604051602081830303815290604052611ed0565b9050610f4c338284611a53565b610f8b576040517f08c379a0000000000000000000000000000000000000000000000000000000008152600401610f8290612bd8565b60405180910390fd5b600060026000600388604051610fa19190613177565b908152602001604051809103902060009054906101000a900473ffffffffffffffffffffffffffffffffffffffff1673ffffffffffffffffffffffffffffffffffffffff1673ffffffffffffffffffffffffffffffffffffffff16815260200190815260200160002060030154146111af576007826040516110239190612c3f565b908152602001604051809103902060020154600260006003886040516110499190613177565b908152602001604051809103902060009054906101000a900473ffffffffffffffffffffffffffffffffffffffff1673ffffffffffffffffffffffffffffffffffffffff1673ffffffffffffffffffffffffffffffffffffffff16815260200190815260200160002060030154116110f6576040517f08c379a00000000000000000000000000000000000000000000000000000000081526004016110ed906131da565b60405180910390fd5b6002600060038760405161110a9190613177565b908152602001604051809103902060009054906101000a900473ffffffffffffffffffffffffffffffffffffffff1673ffffffffffffffffffffffffffffffffffffffff1673ffffffffffffffffffffffffffffffffffffffff168152602001908152602001600020600080820160006111849190612267565b6001820160006111949190612267565b6002820160006111a49190612267565b600382016000905550505b336003866040516111c09190613177565b908152602001604051809103902060006101000a81548173ffffffffffffffffffffffffffffffffffffffff021916908373ffffffffffffffffffffffffffffffffffffffff16021790555060405180608001604052808681526020018581526020018481526020016007846040516112399190612c3f565b908152602001604051809103902060020154815250600260003373ffffffffffffffffffffffffffffffffffffffff1673ffffffffffffffffffffffffffffffffffffffff16815260200190815260200160002060008201518160000190816112a29190613391565b5060208201518160010190816112b89190613391565b5060408201518160020190816112ce9190613391565b50606082015181600301559050506007826040516112ec9190612c3f565b90815260200160405180910390206000808201600090556001820160006101000a81549073ffffffffffffffffffffffffffffffffffffffff0219169055600282016000905550505050505050565b6000600560008473ffffffffffffffffffffffffffffffffffffffff1673ffffffffffffffffffffffffffffffffffffffff16815260200190815260200160002060008373ffffffffffffffffffffffffffffffffffffffff1673ffffffffffffffffffffffffffffffffffffffff16815260200190815260200160002060009054906101000a900460ff1615611407576040517f08c379a00000000000000000000000000000000000000000000000000000000081526004016113fe906134d5565b60405180910390fd5b600460008473ffffffffffffffffffffffffffffffffffffffff1673ffffffffffffffffffffffffffffffffffffffff16815260200190815260200160002060008373ffffffffffffffffffffffffffffffffffffffff1673ffffffffffffffffffffffffffffffffffffffff16815260200190815260200160002060009054906101000a900460ff166115c557600660008473ffffffffffffffffffffffffffffffffffffffff1673ffffffffffffffffffffffffffffffffffffffff16815260200190815260200160002054341015611517576040517f08c379a000000000000000000000000000000000000000000000000000000000815260040161150e90613567565b60405180910390fd5b60008373ffffffffffffffffffffffffffffffffffffffff163460405161153d906135ad565b60006040518083038185875af1925050503d806000811461157a576040519150601f19603f3d011682016040523d82523d6000602084013e61157f565b606091505b50509050806115c3576040517f08c379a00000000000000000000000000000000000000000000000000000000081526004016115ba9061360e565b60405180910390fd5b505b6001905092915050565b60046020528160005260406000206020528060005260406000206000915091509054906101000a900460ff1681565b611606611c19565b600073ffffffffffffffffffffffffffffffffffffffff168173ffffffffffffffffffffffffffffffffffffffff1603611675576040517f08c379a000000000000000000000000000000000000000000000000000000000815260040161166c906136a0565b60405180910390fd5b61167e81611c97565b50565b6000600260003373ffffffffffffffffffffffffffffffffffffffff1673ffffffffffffffffffffffffffffffffffffffff1681526020019081526020016000206003015403611706576040517f08c379a00000000000000000000000000000000000000000000000000000000081526004016116fd90612d02565b60405180910390fd5b61170f82611db4565b61174e576040517f08c379a000000000000000000000000000000000000000000000000000000000815260040161174590612fb8565b60405180910390fd5b61175781611e42565b611796576040517f08c379a000000000000000000000000000000000000000000000000000000000815260040161178d90613024565b60405180910390fd5b81600260003373ffffffffffffffffffffffffffffffffffffffff1673ffffffffffffffffffffffffffffffffffffffff16815260200190815260200160002060010190816117e59190613391565b5080600260003373ffffffffffffffffffffffffffffffffffffffff1673ffffffffffffffffffffffffffffffffffffffff16815260200190815260200160002060020190816118359190613391565b505050565b6118426122a7565b600260008373ffffffffffffffffffffffffffffffffffffffff1673ffffffffffffffffffffffffffffffffffffffff16815260200190815260200160002060405180608001604052908160008201805461189c90612c85565b80601f01602080910402602001604051908101604052809291908181526020018280546118c890612c85565b80156119155780601f106118ea57610100808354040283529160200191611915565b820191906000526020600020905b8154815290600101906020018083116118f857829003601f168201915b5050505050815260200160018201805461192e90612c85565b80601f016020809104026020016040519081016040528092919081815260200182805461195a90612c85565b80156119a75780601f1061197c576101008083540402835291602001916119a7565b820191906000526020600020905b81548152906001019060200180831161198a57829003601f168201915b505050505081526020016002820180546119c090612c85565b80601f01602080910402602001604051908101604052809291908181526020018280546119ec90612c85565b8015611a395780601f10611a0e57610100808354040283529160200191611a39565b820191906000526020600020905b815481529060010190602001808311611a1c57829003601f168201915b505050505081526020016003820154815250509050919050565b6000806000611a628585611f0b565b9150915060006004811115611a7a57611a796136c0565b5b816004811115611a8d57611a8c6136c0565b5b148015611ac557508573ffffffffffffffffffffffffffffffffffffffff168273ffffffffffffffffffffffffffffffffffffffff16145b15611ad557600192505050611c12565b6000808773ffffffffffffffffffffffffffffffffffffffff16631626ba7e60e01b8888604051602401611b0a929190613748565b604051602081830303815290604052907bffffffffffffffffffffffffffffffffffffffffffffffffffffffff19166020820180517bffffffffffffffffffffffffffffffffffffffffffffffffffffffff8381831617835250505050604051611b749190612c3f565b600060405180830381855afa9150503d8060008114611baf576040519150601f19603f3d011682016040523d82523d6000602084013e611bb4565b606091505b5091509150818015611bc7575060208151145b8015611c0b5750631626ba7e60e01b7bffffffffffffffffffffffffffffffffffffffffffffffffffffffff191681806020019051810190611c09919061378d565b145b9450505050505b9392505050565b611c21611f5c565b73ffffffffffffffffffffffffffffffffffffffff16611c3f610d3e565b73ffffffffffffffffffffffffffffffffffffffff1614611c95576040517f08c379a0000000000000000000000000000000000000000000000000000000008152600401611c8c90613806565b60405180910390fd5b565b60008060009054906101000a900473ffffffffffffffffffffffffffffffffffffffff169050816000806101000a81548173ffffffffffffffffffffffffffffffffffffffff021916908373ffffffffffffffffffffffffffffffffffffffff1602179055508173ffffffffffffffffffffffffffffffffffffffff168173ffffffffffffffffffffffffffffffffffffffff167f8be0079c531659141344cd1fd0a4f28419497f9722a3daafe3b4186f6b6457e060405160405180910390a35050565b600081604051602001611d6e9190612c3f565b6040516020818303038152906040528051906020012083604051602001611d959190612c3f565b6040516020818303038152906040528051906020012014905092915050565b60007f6261666b72656900000000000000000000000000000000000000000000000000604051602001611de79190613873565b6040516020818303038152906040528051906020012082611e07906138b3565b604051602001611e179190613873565b60405160208183030381529060405280519060200120148015611e3b5750603b8251145b9050919050565b60007f6261676161696572610000000000000000000000000000000000000000000000604051602001611e759190613967565b6040516020818303038152906040528051906020012082611e9590613997565b604051602001611ea59190613967565b60405160208183030381529060405280519060200120148015611ec95750603d8251145b9050919050565b6000611edc8251611f64565b82604051602001611eee929190613a4a565b604051602081830303815290604052805190602001209050919050565b6000806041835103611f4c5760008060006020860151925060408601519150606086015160001a9050611f4087828585612032565b94509450505050611f55565b60006002915091505b9250929050565b600033905090565b606060006001611f7384612114565b01905060008167ffffffffffffffff811115611f9257611f91612459565b5b6040519080825280601f01601f191660200182016040528015611fc45781602001600182028036833780820191505090505b509050600082602001820190505b600115612027578080600190039150507f3031323334353637383961626364656600000000000000000000000000000000600a86061a8153600a858161201b5761201a613a79565b5b04945060008503611fd2575b819350505050919050565b6000807f7fffffffffffffffffffffffffffffff5d576e7357a4501ddfe92f46681b20a08360001c111561206d57600060039150915061210b565b6000600187878787604051600081526020016040526040516120929493929190613ac4565b6020604051602081039080840390855afa1580156120b4573d6000803e3d6000fd5b505050602060405103519050600073ffffffffffffffffffffffffffffffffffffffff168173ffffffffffffffffffffffffffffffffffffffff16036121025760006001925092505061210b565b80600092509250505b94509492505050565b600080600090507a184f03e93ff9f4daa797ed6e38ed64bf6a1f0100000000000000008310612172577a184f03e93ff9f4daa797ed6e38ed64bf6a1f010000000000000000838161216857612167613a79565b5b0492506040810190505b6d04ee2d6d415b85acef810000000083106121af576d04ee2d6d415b85acef810000000083816121a5576121a4613a79565b5b0492506020810190505b662386f26fc1000083106121de57662386f26fc1000083816121d4576121d3613a79565b5b0492506010810190505b6305f5e1008310612207576305f5e10083816121fd576121fc613a79565b5b0492506008810190505b612710831061222c57612710838161222257612221613a79565b5b0492506004810190505b6064831061224f576064838161224557612244613a79565b5b0492506002810190505b600a831061225e576001810190505b80915050919050565b50805461227390612c85565b6000825580601f1061228557506122a4565b601f0160209004906000526020600020908101906122a391906122cf565b5b50565b6040518060800160405280606081526020016060815260200160608152602001600081525090565b5b808211156122e85760008160009055506001016122d0565b5090565b6000604051905090565b600080fd5b600080fd5b600073ffffffffffffffffffffffffffffffffffffffff82169050919050565b600061232b82612300565b9050919050565b61233b81612320565b811461234657600080fd5b50565b60008135905061235881612332565b92915050565b60008060408385031215612375576123746122f6565b5b600061238385828601612349565b925050602061239485828601612349565b9150509250929050565b60008115159050919050565b6123b38161239e565b82525050565b60006020820190506123ce60008301846123aa565b92915050565b6000819050919050565b6123e7816123d4565b82525050565b600060208201905061240260008301846123de565b92915050565b6000819050919050565b61241b81612408565b811461242657600080fd5b50565b60008135905061243881612412565b92915050565b600080fd5b600080fd5b6000601f19601f8301169050919050565b7f4e487b7100000000000000000000000000000000000000000000000000000000600052604160045260246000fd5b61249182612448565b810181811067ffffffffffffffff821117156124b0576124af612459565b5b80604052505050565b60006124c36122ec565b90506124cf8282612488565b919050565b600067ffffffffffffffff8211156124ef576124ee612459565b5b6124f882612448565b9050602081019050919050565b82818337600083830152505050565b6000612527612522846124d4565b6124b9565b90508281526020810184848401111561254357612542612443565b5b61254e848285612505565b509392505050565b600082601f83011261256b5761256a61243e565b5b813561257b848260208601612514565b91505092915050565b6000806040838503121561259b5761259a6122f6565b5b60006125a985828601612429565b925050602083013567ffffffffffffffff8111156125ca576125c96122fb565b5b6125d685828601612556565b9150509250929050565b6000602082840312156125f6576125f56122f6565b5b600061260484828501612349565b91505092915050565b600081519050919050565b600082825260208201905092915050565b60005b8381101561264757808201518184015260208101905061262c565b60008484015250505050565b600061265e8261260d565b6126688185612618565b9350612678818560208601612629565b61268181612448565b840191505092915050565b600060808201905081810360008301526126a68187612653565b905081810360208301526126ba8186612653565b905081810360408301526126ce8185612653565b90506126dd60608301846123de565b95945050505050565b600067ffffffffffffffff82111561270157612700612459565b5b61270a82612448565b9050602081019050919050565b600061272a612725846126e6565b6124b9565b90508281526020810184848401111561274657612745612443565b5b612751848285612505565b509392505050565b600082601f83011261276e5761276d61243e565b5b813561277e848260208601612717565b91505092915050565b60006020828403121561279d5761279c6122f6565b5b600082013567ffffffffffffffff8111156127bb576127ba6122fb565b5b6127c784828501612759565b91505092915050565b6127d981612320565b82525050565b60006020820190506127f460008301846127d0565b92915050565b6128038161239e565b811461280e57600080fd5b50565b600081359050612820816127fa565b92915050565b6000806040838503121561283d5761283c6122f6565b5b600061284b85828601612349565b925050602061285c85828601612811565b9150509250929050565b61286f816123d4565b811461287a57600080fd5b50565b60008135905061288c81612866565b92915050565b6000602082840312156128a8576128a76122f6565b5b60006128b68482850161287d565b91505092915050565b600080600080608085870312156128d9576128d86122f6565b5b600085013567ffffffffffffffff8111156128f7576128f66122fb565b5b61290387828801612759565b945050602085013567ffffffffffffffff811115612924576129236122fb565b5b61293087828801612759565b935050604085013567ffffffffffffffff811115612951576129506122fb565b5b61295d87828801612759565b925050606085013567ffffffffffffffff81111561297e5761297d6122fb565b5b61298a87828801612556565b91505092959194509250565b600080604083850312156129ad576129ac6122f6565b5b600083013567ffffffffffffffff8111156129cb576129ca6122fb565b5b6129d785828601612759565b925050602083013567ffffffffffffffff8111156129f8576129f76122fb565b5b612a0485828601612759565b9150509250929050565b600082825260208201905092915050565b6000612a2a8261260d565b612a348185612a0e565b9350612a44818560208601612629565b612a4d81612448565b840191505092915050565b612a61816123d4565b82525050565b60006080830160008301518482036000860152612a848282612a1f565b91505060208301518482036020860152612a9e8282612a1f565b91505060408301518482036040860152612ab88282612a1f565b9150506060830151612acd6060860182612a58565b508091505092915050565b60006020820190508181036000830152612af28184612a67565b905092915050565b7f496e76616c6964206665652076616c756520676976656e2e0000000000000000600082015250565b6000612b30601883612618565b9150612b3b82612afa565b602082019050919050565b60006020820190508181036000830152612b5f81612b23565b9050919050565b7f496e76616c6964207369676e617475726520676976656e20666f722073656e6460008201527f65722e0000000000000000000000000000000000000000000000000000000000602082015250565b6000612bc2602383612618565b9150612bcd82612b66565b604082019050919050565b60006020820190508181036000830152612bf181612bb5565b9050919050565b600081519050919050565b600081905092915050565b6000612c1982612bf8565b612c238185612c03565b9350612c33818560208601612629565b80840191505092915050565b6000612c4b8284612c0e565b915081905092915050565b7f4e487b7100000000000000000000000000000000000000000000000000000000600052602260045260246000fd5b60006002820490506001821680612c9d57607f821691505b602082108103612cb057612caf612c56565b5b50919050565b7f496e76616c696420557365720000000000000000000000000000000000000000600082015250565b6000612cec600c83612618565b9150612cf782612cb6565b602082019050919050565b60006020820190508181036000830152612d1b81612cdf565b9050919050565b7f41646472657373206265696e6720626c61636b206c6973746564206d7573742060008201527f626520726567697374657265642e000000000000000000000000000000000000602082015250565b6000612d7e602e83612618565b9150612d8982612d22565b604082019050919050565b60006020820190508181036000830152612dad81612d71565b9050919050565b600081905092915050565b60008190508160005260206000209050919050565b60008154612de181612c85565b612deb8186612db4565b94506001821660008114612e065760018114612e1b57612e4e565b60ff1983168652811515820286019350612e4e565b612e2485612dbf565b60005b83811015612e4657815481890152600182019150602081019050612e27565b838801955050505b50505092915050565b6000612e638284612dd4565b915081905092915050565b7f41646472657373206265696e67207768697465206c6973746564206d7573742060008201527f626520726567697374657265642e000000000000000000000000000000000000602082015250565b6000612eca602e83612618565b9150612ed582612e6e565b604082019050919050565b60006020820190508181036000830152612ef981612ebd565b9050919050565b7f496e76616c6964206e616d65206c656e6774682e000000000000000000000000600082015250565b6000612f36601483612618565b9150612f4182612f00565b602082019050919050565b60006020820190508181036000830152612f6581612f29565b9050919050565b7f496e76616c6964205f61766174617220526177204349442e0000000000000000600082015250565b6000612fa2601883612618565b9150612fad82612f6c565b602082019050919050565b60006020820190508181036000830152612fd181612f95565b9050919050565b7f496e76616c6964205f62696f204a534f4e204349442e00000000000000000000600082015250565b600061300e601683612618565b915061301982612fd8565b602082019050919050565b6000602082019050818103600083015261303d81613001565b9050919050565b7f54686973207369676e617475726520686173206e6f74206265656e207265676960008201527f73746572642e0000000000000000000000000000000000000000000000000000602082015250565b60006130a0602683612618565b91506130ab82613044565b604082019050919050565b600060208201905081810360008301526130cf81613093565b9050919050565b60006130e18261260d565b6130eb8185612db4565b93506130fb818560208601612629565b80840191505092915050565b60008160601b9050919050565b600061311f82613107565b9050919050565b600061313182613114565b9050919050565b61314961314482612320565b613126565b82525050565b600061315b82856130d6565b91506131678284613138565b6014820191508190509392505050565b600061318382846130d6565b915081905092915050565b7f4e616d652077617320616c72656164792074616b656e2e000000000000000000600082015250565b60006131c4601783612618565b91506131cf8261318e565b602082019050919050565b600060208201905081810360008301526131f3816131b7565b9050919050565b60006020601f8301049050919050565b600082821b905092915050565b6000600883026132477fffffffffffffffffffffffffffffffffffffffffffffffffffffffffffffffff8261320a565b613251868361320a565b95508019841693508086168417925050509392505050565b6000819050919050565b600061328e613289613284846123d4565b613269565b6123d4565b9050919050565b6000819050919050565b6132a883613273565b6132bc6132b482613295565b848454613217565b825550505050565b600090565b6132d16132c4565b6132dc81848461329f565b505050565b5b81811015613300576132f56000826132c9565b6001810190506132e2565b5050565b601f8211156133455761331681612dbf565b61331f846131fa565b8101602085101561332e578190505b61334261333a856131fa565b8301826132e1565b50505b505050565b600082821c905092915050565b60006133686000198460080261334a565b1980831691505092915050565b60006133818383613357565b9150826002028217905092915050565b61339a8261260d565b67ffffffffffffffff8111156133b3576133b2612459565b5b6133bd8254612c85565b6133c8828285613304565b600060209050601f8311600181146133fb57600084156133e9578287015190505b6133f38582613375565b86555061345b565b601f19841661340986612dbf565b60005b828110156134315784890151825560018201915060208501945060208101905061340c565b8683101561344e578489015161344a601f891682613357565b8355505b6001600288020188555050505b505050505050565b7f5468652072656365697665722068617320626c61636b6c697374656420696e7460008201527f6572616374696f6e732066726f6d2073656e6465722e00000000000000000000602082015250565b60006134bf603683612618565b91506134ca82613463565b604082019050919050565b600060208201905081810360008301526134ee816134b2565b9050919050565b7f6d73672076616c7565207761732062656c6f7720677261796c6973742076616c60008201527f7565206f662072656365697665722e0000000000000000000000000000000000602082015250565b6000613551602f83612618565b915061355c826134f5565b604082019050919050565b6000602082019050818103600083015261358081613544565b9050919050565b50565b6000613597600083612c03565b91506135a282613587565b600082019050919050565b60006135b88261358a565b9150819050919050565b7f4661696c656420746f2073656e64204574686572000000000000000000000000600082015250565b60006135f8601483612618565b9150613603826135c2565b602082019050919050565b60006020820190508181036000830152613627816135eb565b9050919050565b7f4f776e61626c653a206e6577206f776e657220697320746865207a65726f206160008201527f6464726573730000000000000000000000000000000000000000000000000000602082015250565b600061368a602683612618565b91506136958261362e565b604082019050919050565b600060208201905081810360008301526136b98161367d565b9050919050565b7f4e487b7100000000000000000000000000000000000000000000000000000000600052602160045260246000fd5b6136f881612408565b82525050565b600082825260208201905092915050565b600061371a82612bf8565b61372481856136fe565b9350613734818560208601612629565b61373d81612448565b840191505092915050565b600060408201905061375d60008301856136ef565b818103602083015261376f818461370f565b90509392505050565b60008151905061378781612412565b92915050565b6000602082840312156137a3576137a26122f6565b5b60006137b184828501613778565b91505092915050565b7f4f776e61626c653a2063616c6c6572206973206e6f7420746865206f776e6572600082015250565b60006137f0602083612618565b91506137fb826137ba565b602082019050919050565b6000602082019050818103600083015261381f816137e3565b9050919050565b60007fffffffffffffff0000000000000000000000000000000000000000000000000082169050919050565b6000819050919050565b61386d61386882613826565b613852565b82525050565b600061387f828461385c565b60078201915081905092915050565b6000819050602082019050919050565b60006138aa8251613826565b80915050919050565b60006138be82612bf8565b826138c88461388e565b90506138d38161389e565b925060078210156139135761390e7fffffffffffffff000000000000000000000000000000000000000000000000008360070360080261320a565b831692505b5050919050565b60007fffffffffffffffffff000000000000000000000000000000000000000000000082169050919050565b6000819050919050565b61396161395c8261391a565b613946565b82525050565b60006139738284613950565b60098201915081905092915050565b600061398e825161391a565b80915050919050565b60006139a282612bf8565b826139ac8461388e565b90506139b781613982565b925060098210156139f7576139f27fffffffffffffffffff00000000000000000000000000000000000000000000008360090360080261320a565b831692505b5050919050565b7f19457468657265756d205369676e6564204d6573736167653a0a000000000000600082015250565b6000613a34601a83612db4565b9150613a3f826139fe565b601a82019050919050565b6000613a5582613a27565b9150613a6182856130d6565b9150613a6d8284612c0e565b91508190509392505050565b7f4e487b7100000000000000000000000000000000000000000000000000000000600052601260045260246000fd5b600060ff82169050919050565b613abe81613aa8565b82525050565b6000608082019050613ad960008301876136ef565b613ae66020830186613ab5565b613af360408301856136ef565b613b0060608301846136ef565b9594505050505056fea2646970667358221220db9219dc49d0dd720a5a5c2aa682799981978b46ccf40eee883f052c2037803364736f6c63430008110033",
  "immutableReferences": {},
  "source": "// SPDX-License-Identifier: MIT\npragma solidity ^0.8.5;\n\nimport \"@openzeppelin/contracts/token/ERC721/IERC721.sol\";\n\nimport \"@openzeppelin/contracts/access/Ownable.sol\";\n\nimport \"@openzeppelin/contracts/utils/cryptography/SignatureChecker.sol\";\n\nimport \"@openzeppelin/contracts/utils/cryptography/ECDSA.sol\";\n\nimport \"../helper/Helper.sol\";\n\n// reentrency gaurd\n\n// Contract To register ethereum addresses to Users.\ncontract UserRegister is Ownable{\n\n    // Fee for user registration. set by owner.\n    uint public registerFee;\n\n    // Mappings to direct address and name information to the appropriate User.\n    mapping(address => User) public userRegister;\n    mapping(string => address) public nameRegister;\n\n    mapping(address => mapping(address => bool)) public whiteList;\n    mapping(address => mapping(address => bool)) public blackList;\n    mapping(address => uint) public grayList;\n    \n    // Information struct for a User.\n    struct User{\n        string _name;\n        string _avatar;\n        string _bio;\n        uint _block;\n    }\n\n    // mapping to hold user name requests.\n    mapping(bytes => request) requests;\n\n    // Information struct for user name request.\n    struct request{\n        bytes32 _hash;\n        address _requester;\n        uint _block;\n    }\n\n    modifier onlyUser{\n        require(userRegister[msg.sender]._block != 0 , \"Invalid User\");\n        _;\n    }\n    \n    /*\n    * @param _registerFee - The amount of base network token fee.\n    */\n    constructor (uint _registerFee){\n        registerFee = _registerFee;\n    }\n\n    // Request user registration.\n    function register(bytes32 _hash, bytes memory _signature) public payable {\n        require(msg.value >= registerFee, \"Invalid fee value given.\");\n        require(SignatureChecker.isValidSignatureNow(msg.sender, _hash, _signature), \"Invalid signature given for sender.\");\n        requests[_signature] = request(_hash, msg.sender, block.number);\n    }\n\n    // Confirm user registration.\n    function confirm(\n        string memory _name,\n        string memory _avatar, \n        string memory _bio,\n        bytes memory _signature) \n    public {\n        require(bytes(_name).length > 4 && bytes(_name).length <= 30, \"Invalid name length.\");\n        if(!Helper.compareStrings(_avatar, \"\")){\n            require(Helper.isV1RawCID(_avatar), \"Invalid _avatar Raw CID.\");\n        }\n        if(!Helper.compareStrings(_bio, \"\")){\n            require(Helper.isV1JSONCID(_bio), \"Invalid _bio JSON CID.\");\n        }\n        require(requests[_signature]._block != 0, \"This signature has not been registerd.\");\n        bytes32 _hash = ECDSA.toEthSignedMessageHash(bytes(abi.encodePacked(_name, msg.sender)));\n        require(SignatureChecker.isValidSignatureNow(msg.sender, _hash, _signature), \"Invalid signature given for sender.\");\n        if(userRegister[nameRegister[_name]]._block != 0){\n            require(userRegister[nameRegister[_name]]._block > requests[_signature]._block, \"Name was already taken.\");\n            delete userRegister[nameRegister[_name]];\n        }\n        nameRegister[_name] = msg.sender;\n        userRegister[msg.sender] = User(_name, _avatar, _bio, requests[_signature]._block);\n        delete requests[_signature];\n    }\n\n    // Update user info.\n    function update(string memory _avatar, string memory _bio) public onlyUser{\n        require(Helper.isV1RawCID(_avatar), \"Invalid _avatar Raw CID.\");\n        require(Helper.isV1JSONCID(_bio), \"Invalid _bio JSON CID.\");\n        userRegister[msg.sender]._avatar = _avatar;\n        userRegister[msg.sender]._bio = _bio;\n    }\n\n    // Release user info.\n    function release() public{\n        delete nameRegister[userRegister[msg.sender]._name];\n        delete userRegister[msg.sender];\n    }\n\n    function setGrayList(uint _value) public onlyUser{\n        grayList[msg.sender] = _value;\n    }\n\n    function setWhiteList(address _white, bool _value) public onlyUser{\n        require(isUser(_white), \"Address being white listed must be registered.\");\n        whiteList[msg.sender][_white] = _value;\n    }\n\n    function setBlackList(address _black, bool _value) public onlyUser{\n        require(isUser(_black), \"Address being black listed must be registered.\");\n        blackList[msg.sender][_black] = _value;\n    }\n\n    function validInteraction(address _receiver, address _sender) public payable returns(bool _interact){\n        require(!blackList[_receiver][_sender], \"The receiver has blacklisted interactions from sender.\");\n        // Condition to bypass dontation for whitelist\n        if(!whiteList[_receiver][_sender]){\n            require(msg.value >= grayList[_receiver], \"msg value was below graylist value of receiver.\");\n            (bool sent, )  = _receiver.call{value: msg.value}(\"\");\n            require(sent, \"Failed to send Ether\");\n        }\n        return true;\n    }\n\n    function isUser(address _user) public view returns(bool){\n        return userRegister[_user]._block != 0;\n    }\n\n    function getInfo(address _user) public view returns(User memory _info){\n        return userRegister[_user];\n    }\n\n    function setRegisterFee(uint _registerFee) public onlyOwner{\n        registerFee = _registerFee;\n    }\n}",
  "sourcePath": "/home/stephensb/sb-labs/feed/contracts/dapp/user-register/UserRegister.sol",
  "compiler": {
    "name": "solc",
    "version": "0.8.17+commit.8df45f5f.Emscripten.clang"
  },
  "schemaVersion": "3.4.11",
  "updatedAt": "2023-03-09T02:42:27.099Z",
  "devdoc": {
    "kind": "dev",
    "methods": {
      "owner()": {
        "details": "Returns the address of the current owner."
      },
      "renounceOwnership()": {
        "details": "Leaves the contract without owner. It will not be possible to call `onlyOwner` functions anymore. Can only be called by the current owner. NOTE: Renouncing ownership will leave the contract without an owner, thereby removing any functionality that is only available to the owner."
      },
      "transferOwnership(address)": {
        "details": "Transfers ownership of the contract to a new account (`newOwner`). Can only be called by the current owner."
      }
    },
    "version": 1
  },
  "userdoc": {
    "kind": "user",
    "methods": {},
    "version": 1
  }
}