{
  "contractName": "Asset",
  "abi": [
    {
      "inputs": [
        {
          "internalType": "uint8",
          "name": "_assetType",
          "type": "uint8"
        }
      ],
      "stateMutability": "nonpayable",
      "type": "constructor"
    },
    {
      "inputs": [],
      "name": "assetType",
      "outputs": [
        {
          "internalType": "uint8",
          "name": "",
          "type": "uint8"
        }
      ],
      "stateMutability": "view",
      "type": "function"
    },
    {
      "inputs": [],
      "name": "distributor",
      "outputs": [
        {
          "internalType": "address",
          "name": "",
          "type": "address"
        }
      ],
      "stateMutability": "view",
      "type": "function"
    }
  ],
  "bytecode": "0x60c060405234801561001057600080fd5b50604051610290380380610290833981810160405281019061003291906100b8565b3373ffffffffffffffffffffffffffffffffffffffff1660808173ffffffffffffffffffffffffffffffffffffffff16815250508060ff1660a08160ff1681525050506100e5565b600080fd5b600060ff82169050919050565b6100958161007f565b81146100a057600080fd5b50565b6000815190506100b28161008c565b92915050565b6000602082840312156100ce576100cd61007a565b5b60006100dc848285016100a3565b91505092915050565b60805160a0516101886101086000396000607901526000609d01526101886000f3fe608060405234801561001057600080fd5b50600436106100365760003560e01c80633fe3347a1461003b578063bfe1092814610059575b600080fd5b610043610077565b60405161005091906100db565b60405180910390f35b61006161009b565b60405161006e9190610137565b60405180910390f35b7f000000000000000000000000000000000000000000000000000000000000000081565b7f000000000000000000000000000000000000000000000000000000000000000081565b600060ff82169050919050565b6100d5816100bf565b82525050565b60006020820190506100f060008301846100cc565b92915050565b600073ffffffffffffffffffffffffffffffffffffffff82169050919050565b6000610121826100f6565b9050919050565b61013181610116565b82525050565b600060208201905061014c6000830184610128565b9291505056fea2646970667358221220f37d10168f3f75867ab4571ed3b5a360774b9feb82e6561b9c8d652ebad6e7ae64736f6c63430008110033",
  "immutableReferences": {
    "8696": [
      {
        "length": 32,
        "start": 157
      }
    ],
    "8698": [
      {
        "length": 32,
        "start": 121
      }
    ]
  },
  "source": "// SPDX-License-Identifier: MIT\npragma solidity ^0.8.5;\n\ncontract Asset{\n\n    address public immutable distributor;\n\n    uint8 public immutable assetType;\n\n    modifier onlyDistributor{\n        require(msg.sender == distributor, \"Only asset distributor can call this function.\");\n        _;\n    }\n\n    constructor(uint8 _assetType){\n        distributor = msg.sender;\n        assetType = _assetType;\n    }\n}",
  "sourcePath": "/home/stephensb/sb-labs/feed/contracts/nft-protocol/nft-types/Asset.sol",
  "compiler": {
    "name": "solc",
    "version": "0.8.17+commit.8df45f5f.Emscripten.clang"
  },
  "schemaVersion": "3.4.11",
  "updatedAt": "2023-03-09T01:48:30.768Z",
  "devdoc": {
    "kind": "dev",
    "methods": {},
    "version": 1
  },
  "userdoc": {
    "kind": "user",
    "methods": {},
    "version": 1
  }
}