{
  "contractName": "Feed",
  "abi": [
    {
      "inputs": [
        {
          "internalType": "address",
          "name": "_userRegister",
          "type": "address"
        }
      ],
      "stateMutability": "nonpayable",
      "type": "constructor"
    },
    {
      "anonymous": false,
      "inputs": [
        {
          "indexed": false,
          "internalType": "uint256",
          "name": "_postId",
          "type": "uint256"
        },
        {
          "indexed": false,
          "internalType": "uint256",
          "name": "_commentId",
          "type": "uint256"
        },
        {
          "indexed": false,
          "internalType": "address",
          "name": "_user",
          "type": "address"
        },
        {
          "indexed": false,
          "internalType": "string",
          "name": "_cid",
          "type": "string"
        }
      ],
      "name": "commented",
      "type": "event"
    },
    {
      "anonymous": false,
      "inputs": [
        {
          "indexed": false,
          "internalType": "uint256",
          "name": "_postId",
          "type": "uint256"
        },
        {
          "indexed": false,
          "internalType": "uint256",
          "name": "_commentId",
          "type": "uint256"
        },
        {
          "indexed": false,
          "internalType": "address",
          "name": "_user",
          "type": "address"
        },
        {
          "indexed": false,
          "internalType": "string",
          "name": "_cid",
          "type": "string"
        }
      ],
      "name": "donated_comment",
      "type": "event"
    },
    {
      "anonymous": false,
      "inputs": [
        {
          "indexed": false,
          "internalType": "uint256",
          "name": "_postId",
          "type": "uint256"
        },
        {
          "indexed": false,
          "internalType": "address",
          "name": "_user",
          "type": "address"
        },
        {
          "indexed": false,
          "internalType": "string",
          "name": "_cid",
          "type": "string"
        }
      ],
      "name": "donated_post",
      "type": "event"
    },
    {
      "anonymous": false,
      "inputs": [
        {
          "indexed": false,
          "internalType": "uint256",
          "name": "_postId",
          "type": "uint256"
        },
        {
          "indexed": false,
          "internalType": "address",
          "name": "_user",
          "type": "address"
        },
        {
          "indexed": false,
          "internalType": "string",
          "name": "_cid",
          "type": "string"
        }
      ],
      "name": "posted",
      "type": "event"
    },
    {
      "inputs": [
        {
          "internalType": "uint256",
          "name": "",
          "type": "uint256"
        }
      ],
      "name": "feed",
      "outputs": [
        {
          "internalType": "address",
          "name": "_user",
          "type": "address"
        },
        {
          "internalType": "string",
          "name": "_cid",
          "type": "string"
        },
        {
          "internalType": "uint256",
          "name": "_index",
          "type": "uint256"
        },
        {
          "internalType": "uint256",
          "name": "_totalComments",
          "type": "uint256"
        },
        {
          "internalType": "uint256",
          "name": "_totalDonations",
          "type": "uint256"
        },
        {
          "internalType": "uint256",
          "name": "_totalDonated",
          "type": "uint256"
        },
        {
          "internalType": "uint256",
          "name": "_reposts",
          "type": "uint256"
        },
        {
          "internalType": "uint256",
          "name": "_block",
          "type": "uint256"
        },
        {
          "internalType": "uint256",
          "name": "_timestamp",
          "type": "uint256"
        }
      ],
      "stateMutability": "view",
      "type": "function"
    },
    {
      "inputs": [],
      "name": "postId",
      "outputs": [
        {
          "internalType": "uint256",
          "name": "",
          "type": "uint256"
        }
      ],
      "stateMutability": "view",
      "type": "function"
    },
    {
      "inputs": [
        {
          "internalType": "address",
          "name": "",
          "type": "address"
        },
        {
          "internalType": "uint256",
          "name": "",
          "type": "uint256"
        }
      ],
      "name": "userFeed",
      "outputs": [
        {
          "internalType": "uint256",
          "name": "",
          "type": "uint256"
        }
      ],
      "stateMutability": "view",
      "type": "function"
    },
    {
      "inputs": [
        {
          "internalType": "uint256",
          "name": "_postId",
          "type": "uint256"
        }
      ],
      "name": "tokenURI",
      "outputs": [
        {
          "internalType": "string",
          "name": "",
          "type": "string"
        }
      ],
      "stateMutability": "view",
      "type": "function"
    },
    {
      "inputs": [
        {
          "internalType": "string",
          "name": "_cid",
          "type": "string"
        }
      ],
      "name": "submit",
      "outputs": [
        {
          "internalType": "uint256",
          "name": "_postId",
          "type": "uint256"
        }
      ],
      "stateMutability": "nonpayable",
      "type": "function"
    },
    {
      "inputs": [
        {
          "internalType": "uint256",
          "name": "_postId",
          "type": "uint256"
        }
      ],
      "name": "remove",
      "outputs": [],
      "stateMutability": "nonpayable",
      "type": "function"
    },
    {
      "inputs": [
        {
          "internalType": "uint256",
          "name": "_postId",
          "type": "uint256"
        }
      ],
      "name": "retrieve_post",
      "outputs": [
        {
          "internalType": "address",
          "name": "_user",
          "type": "address"
        },
        {
          "internalType": "string",
          "name": "_cid",
          "type": "string"
        },
        {
          "internalType": "uint256",
          "name": "_index",
          "type": "uint256"
        },
        {
          "internalType": "uint256",
          "name": "_totalComments",
          "type": "uint256"
        },
        {
          "internalType": "uint256",
          "name": "_totalDonations",
          "type": "uint256"
        },
        {
          "internalType": "uint256",
          "name": "_totalDonated",
          "type": "uint256"
        },
        {
          "internalType": "uint256",
          "name": "_reposts",
          "type": "uint256"
        },
        {
          "internalType": "uint256",
          "name": "_block",
          "type": "uint256"
        },
        {
          "internalType": "uint256",
          "name": "_timestamp",
          "type": "uint256"
        }
      ],
      "stateMutability": "view",
      "type": "function"
    },
    {
      "inputs": [
        {
          "internalType": "uint256",
          "name": "_postId",
          "type": "uint256"
        }
      ],
      "name": "repost",
      "outputs": [],
      "stateMutability": "nonpayable",
      "type": "function"
    },
    {
      "inputs": [
        {
          "internalType": "uint256",
          "name": "_index",
          "type": "uint256"
        }
      ],
      "name": "remove_repost",
      "outputs": [],
      "stateMutability": "nonpayable",
      "type": "function"
    },
    {
      "inputs": [
        {
          "internalType": "uint256",
          "name": "_postId",
          "type": "uint256"
        },
        {
          "internalType": "string",
          "name": "_cid",
          "type": "string"
        }
      ],
      "name": "submit_comment",
      "outputs": [],
      "stateMutability": "payable",
      "type": "function"
    },
    {
      "inputs": [
        {
          "internalType": "uint256",
          "name": "_postId",
          "type": "uint256"
        },
        {
          "internalType": "uint256",
          "name": "_commentId",
          "type": "uint256"
        }
      ],
      "name": "remove_comment",
      "outputs": [],
      "stateMutability": "nonpayable",
      "type": "function"
    },
    {
      "inputs": [
        {
          "internalType": "uint256",
          "name": "_postId",
          "type": "uint256"
        },
        {
          "internalType": "uint256",
          "name": "_commentId",
          "type": "uint256"
        }
      ],
      "name": "withdraw_comment",
      "outputs": [],
      "stateMutability": "nonpayable",
      "type": "function"
    },
    {
      "inputs": [
        {
          "internalType": "uint256",
          "name": "_postId",
          "type": "uint256"
        },
        {
          "internalType": "uint256",
          "name": "_commentId",
          "type": "uint256"
        }
      ],
      "name": "retrieve_comment",
      "outputs": [
        {
          "internalType": "address",
          "name": "_user",
          "type": "address"
        },
        {
          "internalType": "string",
          "name": "_cid",
          "type": "string"
        },
        {
          "internalType": "uint256",
          "name": "_totalDonations",
          "type": "uint256"
        },
        {
          "internalType": "uint256",
          "name": "_totalDonated",
          "type": "uint256"
        },
        {
          "internalType": "uint256",
          "name": "_block",
          "type": "uint256"
        },
        {
          "internalType": "uint256",
          "name": "_timestamp",
          "type": "uint256"
        }
      ],
      "stateMutability": "view",
      "type": "function"
    },
    {
      "inputs": [
        {
          "internalType": "uint256",
          "name": "_postId",
          "type": "uint256"
        },
        {
          "internalType": "uint256",
          "name": "_commentId",
          "type": "uint256"
        },
        {
          "internalType": "string",
          "name": "_cid",
          "type": "string"
        }
      ],
      "name": "donate",
      "outputs": [],
      "stateMutability": "payable",
      "type": "function"
    },
    {
      "inputs": [
        {
          "internalType": "uint256",
          "name": "_postId",
          "type": "uint256"
        },
        {
          "internalType": "string",
          "name": "_cid",
          "type": "string"
        }
      ],
      "name": "donate",
      "outputs": [],
      "stateMutability": "payable",
      "type": "function"
    },
    {
      "inputs": [
        {
          "internalType": "uint256",
          "name": "_postId",
          "type": "uint256"
        },
        {
          "internalType": "uint256",
          "name": "_donationId",
          "type": "uint256"
        }
      ],
      "name": "retrieve_post_donation",
      "outputs": [
        {
          "internalType": "address",
          "name": "_user",
          "type": "address"
        },
        {
          "internalType": "string",
          "name": "_cid",
          "type": "string"
        },
        {
          "internalType": "uint256",
          "name": "_value",
          "type": "uint256"
        },
        {
          "internalType": "uint256",
          "name": "_block",
          "type": "uint256"
        },
        {
          "internalType": "uint256",
          "name": "_timestamp",
          "type": "uint256"
        }
      ],
      "stateMutability": "view",
      "type": "function"
    },
    {
      "inputs": [
        {
          "internalType": "uint256",
          "name": "_postId",
          "type": "uint256"
        },
        {
          "internalType": "uint256",
          "name": "_commentId",
          "type": "uint256"
        },
        {
          "internalType": "uint256",
          "name": "_donationId",
          "type": "uint256"
        }
      ],
      "name": "retrieve_comment_donation",
      "outputs": [
        {
          "internalType": "address",
          "name": "_user",
          "type": "address"
        },
        {
          "internalType": "string",
          "name": "_cid",
          "type": "string"
        },
        {
          "internalType": "uint256",
          "name": "_value",
          "type": "uint256"
        },
        {
          "internalType": "uint256",
          "name": "_block",
          "type": "uint256"
        },
        {
          "internalType": "uint256",
          "name": "_timestamp",
          "type": "uint256"
        }
      ],
      "stateMutability": "view",
      "type": "function"
    },
    {
      "inputs": [
        {
          "internalType": "uint256",
          "name": "_postId",
          "type": "uint256"
        }
      ],
      "name": "validPost",
      "outputs": [
        {
          "internalType": "bool",
          "name": "",
          "type": "bool"
        }
      ],
      "stateMutability": "view",
      "type": "function"
    },
    {
      "inputs": [
        {
          "internalType": "uint256",
          "name": "_postId",
          "type": "uint256"
        },
        {
          "internalType": "uint256",
          "name": "_commentId",
          "type": "uint256"
        }
      ],
      "name": "validComment",
      "outputs": [
        {
          "internalType": "bool",
          "name": "",
          "type": "bool"
        }
      ],
      "stateMutability": "view",
      "type": "function"
    },
    {
      "inputs": [
        {
          "internalType": "uint256",
          "name": "_postId",
          "type": "uint256"
        },
        {
          "internalType": "uint256",
          "name": "_donationId",
          "type": "uint256"
        }
      ],
      "name": "validPostDonation",
      "outputs": [
        {
          "internalType": "bool",
          "name": "",
          "type": "bool"
        }
      ],
      "stateMutability": "view",
      "type": "function"
    },
    {
      "inputs": [
        {
          "internalType": "uint256",
          "name": "_postId",
          "type": "uint256"
        },
        {
          "internalType": "uint256",
          "name": "_commentId",
          "type": "uint256"
        },
        {
          "internalType": "uint256",
          "name": "_donationId",
          "type": "uint256"
        }
      ],
      "name": "validCommentDonation",
      "outputs": [
        {
          "internalType": "bool",
          "name": "",
          "type": "bool"
        }
      ],
      "stateMutability": "view",
      "type": "function"
    },
    {
      "inputs": [
        {
          "internalType": "uint256",
          "name": "_start",
          "type": "uint256"
        },
        {
          "internalType": "uint256",
          "name": "_end",
          "type": "uint256"
        },
        {
          "internalType": "uint256",
          "name": "_arrLen",
          "type": "uint256"
        }
      ],
      "name": "validStartEnd",
      "outputs": [
        {
          "internalType": "bool",
          "name": "",
          "type": "bool"
        }
      ],
      "stateMutability": "pure",
      "type": "function"
    },
    {
      "inputs": [
        {
          "internalType": "address",
          "name": "_user",
          "type": "address"
        }
      ],
      "name": "userFeedLength",
      "outputs": [
        {
          "internalType": "uint256",
          "name": "_length",
          "type": "uint256"
        }
      ],
      "stateMutability": "view",
      "type": "function"
    },
    {
      "inputs": [
        {
          "internalType": "uint256",
          "name": "_postId",
          "type": "uint256"
        }
      ],
      "name": "totalComments",
      "outputs": [
        {
          "internalType": "uint256",
          "name": "_totalComments",
          "type": "uint256"
        }
      ],
      "stateMutability": "view",
      "type": "function"
    },
    {
      "inputs": [
        {
          "internalType": "uint256",
          "name": "_postId",
          "type": "uint256"
        }
      ],
      "name": "totalDonations",
      "outputs": [
        {
          "internalType": "uint256",
          "name": "_totalDonations",
          "type": "uint256"
        }
      ],
      "stateMutability": "view",
      "type": "function"
    },
    {
      "inputs": [
        {
          "internalType": "uint256",
          "name": "_postId",
          "type": "uint256"
        },
        {
          "internalType": "uint256",
          "name": "_commentId",
          "type": "uint256"
        }
      ],
      "name": "totalCommentDonations",
      "outputs": [
        {
          "internalType": "uint256",
          "name": "_totalDonations",
          "type": "uint256"
        }
      ],
      "stateMutability": "view",
      "type": "function"
    }
  ],
  "bytecode": "0x608060405260006001553480156200001657600080fd5b50604051620044db380380620044db83398181016040528101906200003c9190620000ed565b806000806101000a81548173ffffffffffffffffffffffffffffffffffffffff021916908373ffffffffffffffffffffffffffffffffffffffff160217905550506200011f565b600080fd5b600073ffffffffffffffffffffffffffffffffffffffff82169050919050565b6000620000b58262000088565b9050919050565b620000c781620000a8565b8114620000d357600080fd5b50565b600081519050620000e781620000bc565b92915050565b60006020828403121562000106576200010562000083565b5b60006200011684828501620000d6565b91505092915050565b6143ac806200012f6000396000f3fe6080604052600436106101815760003560e01c80637954b3ef116100d1578063c5fe37191161008a578063e1a3ae5811610064578063e1a3ae5814610621578063e45b6c0f1461063d578063f59dfdfb1461067a578063fb18cd63146106bf57610181565b8063c5fe37191461056a578063c87b56dd146105a7578063d99a8dc3146105e457610181565b80637954b3ef1461040d5780638d59d1f11461044e5780638e54fad91461046a578063972e322c146104af5780639f1482e4146104f0578063bdf1a9a41461052d57610181565b80634629e7981161013e578063606e4f7b11610118578063606e4f7b1461033f57806360a0ecda1461036857806361329832146103935780636b732017146103d057610181565b80634629e798146102b05780634cc82215146102ed578063517bdd2d1461031657610181565b80630ea37c641461018657806316c3cdf5146101af5780631749dd9d146101cb5780631c56038d146101f45780632fb5f9ef146102315780633951689414610273575b600080fd5b34801561019257600080fd5b506101ad60048036038101906101a89190612fbc565b6106fc565b005b6101c960048036038101906101c4919061312f565b61087c565b005b3480156101d757600080fd5b506101f260048036038101906101ed9190612fbc565b610db4565b005b34801561020057600080fd5b5061021b6004803603810190610216919061319e565b611038565b60405161022891906131f9565b60405180910390f35b34801561023d57600080fd5b506102586004803603810190610253919061319e565b6110ae565b60405161026a969594939291906132e3565b60405180910390f35b34801561027f57600080fd5b5061029a60048036038101906102959190613377565b61128b565b6040516102a791906133b7565b60405180910390f35b3480156102bc57600080fd5b506102d760048036038101906102d291906133d2565b6112bc565b6040516102e491906133b7565b60405180910390f35b3480156102f957600080fd5b50610314600480360381019061030f9190612fbc565b611308565b005b34801561032257600080fd5b5061033d6004803603810190610338919061319e565b611594565b005b34801561034b57600080fd5b506103666004803603810190610361919061319e565b6117db565b005b34801561037457600080fd5b5061037d611a47565b60405161038a91906133b7565b60405180910390f35b34801561039f57600080fd5b506103ba60048036038101906103b591906133ff565b611a4d565b6040516103c791906131f9565b60405180910390f35b3480156103dc57600080fd5b506103f760048036038101906103f291906133ff565b611abe565b60405161040491906131f9565b60405180910390f35b34801561041957600080fd5b50610434600480360381019061042f91906133ff565b611b4a565b604051610445959493929190613452565b60405180910390f35b610468600480360381019061046391906134ac565b611d5f565b005b34801561047657600080fd5b50610491600480360381019061048c9190612fbc565b61213a565b6040516104a699989796959493929190613508565b60405180910390f35b3480156104bb57600080fd5b506104d660048036038101906104d1919061319e565b6122f1565b6040516104e7959493929190613452565b60405180910390f35b3480156104fc57600080fd5b5061051760048036038101906105129190612fbc565b6124a0565b60405161052491906133b7565b60405180910390f35b34801561053957600080fd5b50610554600480360381019061054f9190612fbc565b6124c0565b60405161056191906131f9565b60405180910390f35b34801561057657600080fd5b50610591600480360381019061058c919061319e565b6125b4565b60405161059e91906131f9565b60405180910390f35b3480156105b357600080fd5b506105ce60048036038101906105c99190612fbc565b61262a565b6040516105db919061359c565b60405180910390f35b3480156105f057600080fd5b5061060b600480360381019061060691906135be565b612683565b60405161061891906133b7565b60405180910390f35b61063b600480360381019061063691906134ac565b61297e565b005b34801561064957600080fd5b50610664600480360381019061065f919061319e565b612cff565b60405161067191906133b7565b60405180910390f35b34801561068657600080fd5b506106a1600480360381019061069c9190612fbc565b612d34565b6040516106b699989796959493929190613508565b60405180910390f35b3480156106cb57600080fd5b506106e660048036038101906106e19190612fbc565b612e2a565b6040516106f391906133b7565b60405180910390f35b60008054906101000a900473ffffffffffffffffffffffffffffffffffffffff1673ffffffffffffffffffffffffffffffffffffffff16634209fff1336040518263ffffffff1660e01b81526004016107559190613607565b602060405180830381865afa158015610772573d6000803e3d6000fd5b505050506040513d601f19601f82011682018060405250810190610796919061364e565b6107d5576040517f08c379a00000000000000000000000000000000000000000000000000000000081526004016107cc906136c7565b60405180910390fd5b6107de816124c0565b6107e757600080fd5b60036000828152602001908152602001600020600801600081548092919061080e90613716565b9190505550600260003373ffffffffffffffffffffffffffffffffffffffff1673ffffffffffffffffffffffffffffffffffffffff16815260200190815260200160002081908060018154018082558091505060019003906000526020600020016000909190919091505550565b60008054906101000a900473ffffffffffffffffffffffffffffffffffffffff1673ffffffffffffffffffffffffffffffffffffffff16634209fff1336040518263ffffffff1660e01b81526004016108d59190613607565b602060405180830381865afa1580156108f2573d6000803e3d6000fd5b505050506040513d601f19601f82011682018060405250810190610916919061364e565b610955576040517f08c379a000000000000000000000000000000000000000000000000000000000815260040161094c906136c7565b60405180910390fd5b61095f83836125b4565b61096857600080fd5b61097181612e4a565b6109b0576040517f08c379a00000000000000000000000000000000000000000000000000000000081526004016109a7906137aa565b60405180910390fd5b600073ffffffffffffffffffffffffffffffffffffffff1660036000858152602001908152602001600020600401600084815260200190815260200160002060000160009054906101000a900473ffffffffffffffffffffffffffffffffffffffff1673ffffffffffffffffffffffffffffffffffffffff1603610a69576040517f08c379a0000000000000000000000000000000000000000000000000000000008152600401610a6090613816565b60405180910390fd5b60008054906101000a900473ffffffffffffffffffffffffffffffffffffffff1673ffffffffffffffffffffffffffffffffffffffff1663cd251a9a3460036000878152602001908152602001600020600401600086815260200190815260200160002060000160009054906101000a900473ffffffffffffffffffffffffffffffffffffffff16336040518463ffffffff1660e01b8152600401610b0f929190613836565b60206040518083038185885af1158015610b2d573d6000803e3d6000fd5b50505050506040513d601f19601f82011682018060405250810190610b52919061364e565b610b5b57600080fd5b346003600085815260200190815260200160002060040160008481526020019081526020016000206004016000828254610b95919061385f565b9250508190555060006003600085815260200190815260200160002060040160008481526020019081526020016000206002016000815480929190610bd990613716565b91905055905033600360008681526020019081526020016000206004016000858152602001908152602001600020600301600083815260200190815260200160002060000160006101000a81548173ffffffffffffffffffffffffffffffffffffffff021916908373ffffffffffffffffffffffffffffffffffffffff160217905550346003600086815260200190815260200160002060040160008581526020019081526020016000206003016000838152602001908152602001600020600201819055508160036000868152602001908152602001600020600401600085815260200190815260200160002060030160008381526020019081526020016000206001019081610cea9190613a9f565b5043600360008681526020019081526020016000206004016000858152602001908152602001600020600301600083815260200190815260200160002060030181905550426003600086815260200190815260200160002060040160008581526020019081526020016000206003016000838152602001908152602001600020600401819055507fb7eee1f0447f71720de443a41946a65e77f2bba8d98be3955748f071d4156b8884843385604051610da69493929190613b71565b60405180910390a150505050565b60008054906101000a900473ffffffffffffffffffffffffffffffffffffffff1673ffffffffffffffffffffffffffffffffffffffff16634209fff1336040518263ffffffff1660e01b8152600401610e0d9190613607565b602060405180830381865afa158015610e2a573d6000803e3d6000fd5b505050506040513d601f19601f82011682018060405250810190610e4e919061364e565b610e8d576040517f08c379a0000000000000000000000000000000000000000000000000000000008152600401610e84906136c7565b60405180910390fd5b610e96336112bc565b8110610ed7576040517f08c379a0000000000000000000000000000000000000000000000000000000008152600401610ece90613c09565b60405180910390fd5b3373ffffffffffffffffffffffffffffffffffffffff1660036000600260003373ffffffffffffffffffffffffffffffffffffffff1673ffffffffffffffffffffffffffffffffffffffff1681526020019081526020016000208481548110610f4357610f42613c29565b5b9060005260206000200154815260200190815260200160002060000160009054906101000a900473ffffffffffffffffffffffffffffffffffffffff1673ffffffffffffffffffffffffffffffffffffffff1603610fd6576040517f08c379a0000000000000000000000000000000000000000000000000000000008152600401610fcd90613cca565b60405180910390fd5b600260003373ffffffffffffffffffffffffffffffffffffffff1673ffffffffffffffffffffffffffffffffffffffff168152602001908152602001600020818154811061102757611026613c29565b5b906000526020600020016000905550565b6000611043836124c0565b61104c57600080fd5b600360008481526020019081526020016000206005015482106110a4576040517f08c379a000000000000000000000000000000000000000000000000000000000815260040161109b90613d36565b60405180910390fd5b6001905092915050565b600060606000806000806110c288886125b4565b6110cb57600080fd5b60036000898152602001908152602001600020600401600088815260200190815260200160002060000160009054906101000a900473ffffffffffffffffffffffffffffffffffffffff169550600360008981526020019081526020016000206004016000888152602001908152602001600020600101805461114d906138c2565b80601f0160208091040260200160405190810160405280929190818152602001828054611179906138c2565b80156111c65780601f1061119b576101008083540402835291602001916111c6565b820191906000526020600020905b8154815290600101906020018083116111a957829003601f168201915b505050505094506003600089815260200190815260200160002060040160008881526020019081526020016000206002015493506003600089815260200190815260200160002060040160008881526020019081526020016000206004015492506003600089815260200190815260200160002060040160008881526020019081526020016000206005015491506003600089815260200190815260200160002060040160008881526020019081526020016000206006015490509295509295509295565b600260205281600052604060002081815481106112a757600080fd5b90600052602060002001600091509150505481565b6000600260008373ffffffffffffffffffffffffffffffffffffffff1673ffffffffffffffffffffffffffffffffffffffff168152602001908152602001600020805490509050919050565b60008054906101000a900473ffffffffffffffffffffffffffffffffffffffff1673ffffffffffffffffffffffffffffffffffffffff16634209fff1336040518263ffffffff1660e01b81526004016113619190613607565b602060405180830381865afa15801561137e573d6000803e3d6000fd5b505050506040513d601f19601f820116820180604052508101906113a2919061364e565b6113e1576040517f08c379a00000000000000000000000000000000000000000000000000000000081526004016113d8906136c7565b60405180910390fd5b6113ea816124c0565b6113f357600080fd5b3373ffffffffffffffffffffffffffffffffffffffff166003600083815260200190815260200160002060000160009054906101000a900473ffffffffffffffffffffffffffffffffffffffff1673ffffffffffffffffffffffffffffffffffffffff1614611497576040517f08c379a000000000000000000000000000000000000000000000000000000000815260040161148e90613da2565b60405180910390fd5b600260003373ffffffffffffffffffffffffffffffffffffffff1673ffffffffffffffffffffffffffffffffffffffff1681526020019081526020016000206003600083815260200190815260200160002060020154815481106114fe576114fd613c29565b5b906000526020600020016000905560036000828152602001908152602001600020600080820160006101000a81549073ffffffffffffffffffffffffffffffffffffffff02191690556001820160006115579190612f15565b600282016000905560038201600090556005820160009055600782016000905560088201600090556009820160009055600a820160009055505050565b60008054906101000a900473ffffffffffffffffffffffffffffffffffffffff1673ffffffffffffffffffffffffffffffffffffffff16634209fff1336040518263ffffffff1660e01b81526004016115ed9190613607565b602060405180830381865afa15801561160a573d6000803e3d6000fd5b505050506040513d601f19601f8201168201806040525081019061162e919061364e565b61166d576040517f08c379a0000000000000000000000000000000000000000000000000000000008152600401611664906136c7565b60405180910390fd5b611676826124c0565b61167f57600080fd5b60036000838152602001908152602001600020600301548111156116d8576040517f08c379a00000000000000000000000000000000000000000000000000000000081526004016116cf90613e0e565b60405180910390fd5b3373ffffffffffffffffffffffffffffffffffffffff1660036000848152602001908152602001600020600401600083815260200190815260200160002060000160009054906101000a900473ffffffffffffffffffffffffffffffffffffffff1673ffffffffffffffffffffffffffffffffffffffff1614611790576040517f08c379a000000000000000000000000000000000000000000000000000000000815260040161178790613e7a565b60405180910390fd5b6040518060200160405280600081525060036000848152602001908152602001600020600401600083815260200190815260200160002060010190816117d69190613a9f565b505050565b60008054906101000a900473ffffffffffffffffffffffffffffffffffffffff1673ffffffffffffffffffffffffffffffffffffffff16634209fff1336040518263ffffffff1660e01b81526004016118349190613607565b602060405180830381865afa158015611851573d6000803e3d6000fd5b505050506040513d601f19601f82011682018060405250810190611875919061364e565b6118b4576040517f08c379a00000000000000000000000000000000000000000000000000000000081526004016118ab906136c7565b60405180910390fd5b6118bd826124c0565b6118c657600080fd5b3373ffffffffffffffffffffffffffffffffffffffff166003600084815260200190815260200160002060000160009054906101000a900473ffffffffffffffffffffffffffffffffffffffff1673ffffffffffffffffffffffffffffffffffffffff161461196a576040517f08c379a000000000000000000000000000000000000000000000000000000000815260040161196190613da2565b60405180910390fd5b600360008381526020019081526020016000206003015481106119c2576040517f08c379a00000000000000000000000000000000000000000000000000000000081526004016119b990613e0e565b60405180910390fd5b600360008381526020019081526020016000206004016000828152602001908152602001600020600080820160006101000a81549073ffffffffffffffffffffffffffffffffffffffff0219169055600182016000611a219190612f15565b600282016000905560048201600090556005820160009055600682016000905550505050565b60015481565b60008383118015611a69575060648484611a679190613e9a565b105b8015611a7457508183105b611ab3576040517f08c379a0000000000000000000000000000000000000000000000000000000008152600401611aaa90613f1a565b60405180910390fd5b600190509392505050565b6000611aca84846125b4565b611ad357600080fd5b600360008581526020019081526020016000206004016000848152602001908152602001600020600201548210611b3f576040517f08c379a0000000000000000000000000000000000000000000000000000000008152600401611b3690613d36565b60405180910390fd5b600190509392505050565b600060606000806000611b5e888888611abe565b611b6757600080fd5b600360008981526020019081526020016000206004016000888152602001908152602001600020600301600087815260200190815260200160002060000160009054906101000a900473ffffffffffffffffffffffffffffffffffffffff16945060036000898152602001908152602001600020600401600088815260200190815260200160002060030160008781526020019081526020016000206001018054611c11906138c2565b80601f0160208091040260200160405190810160405280929190818152602001828054611c3d906138c2565b8015611c8a5780601f10611c5f57610100808354040283529160200191611c8a565b820191906000526020600020905b815481529060010190602001808311611c6d57829003601f168201915b50505050509350600360008981526020019081526020016000206004016000888152602001908152602001600020600301600087815260200190815260200160002060020154925060036000898152602001908152602001600020600401600088815260200190815260200160002060030160008781526020019081526020016000206003015491506003600089815260200190815260200160002060040160008881526020019081526020016000206003016000878152602001908152602001600020600401549050939792965093509350565b60008054906101000a900473ffffffffffffffffffffffffffffffffffffffff1673ffffffffffffffffffffffffffffffffffffffff16634209fff1336040518263ffffffff1660e01b8152600401611db89190613607565b602060405180830381865afa158015611dd5573d6000803e3d6000fd5b505050506040513d601f19601f82011682018060405250810190611df9919061364e565b611e38576040517f08c379a0000000000000000000000000000000000000000000000000000000008152600401611e2f906136c7565b60405180910390fd5b611e41826124c0565b611e4a57600080fd5b611e5381612e4a565b611e92576040517f08c379a0000000000000000000000000000000000000000000000000000000008152600401611e89906137aa565b60405180910390fd5b60008054906101000a900473ffffffffffffffffffffffffffffffffffffffff1673ffffffffffffffffffffffffffffffffffffffff1663cd251a9a346003600086815260200190815260200160002060000160009054906101000a900473ffffffffffffffffffffffffffffffffffffffff16336040518463ffffffff1660e01b8152600401611f24929190613836565b60206040518083038185885af1158015611f42573d6000803e3d6000fd5b50505050506040513d601f19601f82011682018060405250810190611f67919061364e565b611f7057600080fd5b34600360008481526020019081526020016000206007016000828254611f96919061385f565b925050819055506000600360008481526020019081526020016000206005016000815480929190611fc690613716565b9190505590503360036000858152602001908152602001600020600601600083815260200190815260200160002060000160006101000a81548173ffffffffffffffffffffffffffffffffffffffff021916908373ffffffffffffffffffffffffffffffffffffffff160217905550346003600085815260200190815260200160002060060160008381526020019081526020016000206002018190555081600360008581526020019081526020016000206006016000838152602001908152602001600020600101908161209b9190613a9f565b50436003600085815260200190815260200160002060060160008381526020019081526020016000206003018190555042600360008581526020019081526020016000206006016000838152602001908152602001600020600401819055507fe2e9235dd39e3f772881df2511af7e77c11f83062440e2f70c0ce1b72c88998283338460405161212d93929190613f3a565b60405180910390a1505050565b6000606060008060008060008060006121528a6124c0565b61215b57600080fd5b600360008b815260200190815260200160002060000160009054906101000a900473ffffffffffffffffffffffffffffffffffffffff169850600360008b815260200190815260200160002060010180546121b5906138c2565b80601f01602080910402602001604051908101604052809291908181526020018280546121e1906138c2565b801561222e5780601f106122035761010080835404028352916020019161222e565b820191906000526020600020905b81548152906001019060200180831161221157829003601f168201915b50505050509750600360008b8152602001908152602001600020600201549650600360008b8152602001908152602001600020600301549550600360008b8152602001908152602001600020600501549450600360008b8152602001908152602001600020600701549350600360008b8152602001908152602001600020600801549250600360008b8152602001908152602001600020600901549150600360008b8152602001908152602001600020600a015490509193959799909294969850565b6000606060008060006123048787611038565b61230d57600080fd5b60036000888152602001908152602001600020600601600087815260200190815260200160002060000160009054906101000a900473ffffffffffffffffffffffffffffffffffffffff169450600360008881526020019081526020016000206006016000878152602001908152602001600020600101805461238f906138c2565b80601f01602080910402602001604051908101604052809291908181526020018280546123bb906138c2565b80156124085780601f106123dd57610100808354040283529160200191612408565b820191906000526020600020905b8154815290600101906020018083116123eb57829003601f168201915b505050505093506003600088815260200190815260200160002060060160008781526020019081526020016000206002015492506003600088815260200190815260200160002060060160008781526020019081526020016000206003015491506003600088815260200190815260200160002060060160008781526020019081526020016000206004015490509295509295909350565b600060036000838152602001908152602001600020600501549050919050565b60006001548210612506576040517f08c379a00000000000000000000000000000000000000000000000000000000081526004016124fd90613fc4565b60405180910390fd5b600073ffffffffffffffffffffffffffffffffffffffff166003600084815260200190815260200160002060000160009054906101000a900473ffffffffffffffffffffffffffffffffffffffff1673ffffffffffffffffffffffffffffffffffffffff16036125ab576040517f08c379a00000000000000000000000000000000000000000000000000000000081526004016125a290614030565b60405180910390fd5b60019050919050565b60006125bf836124c0565b6125c857600080fd5b60036000848152602001908152602001600020600301548210612620576040517f08c379a00000000000000000000000000000000000000000000000000000000081526004016126179061409c565b60405180910390fd5b6001905092915050565b6060612635826124c0565b61263e57600080fd5b612646612ed8565b6003600084815260200190815260200160002060010160405160200161266d92919061417b565b6040516020818303038152906040529050919050565b60008060009054906101000a900473ffffffffffffffffffffffffffffffffffffffff1673ffffffffffffffffffffffffffffffffffffffff16634209fff1336040518263ffffffff1660e01b81526004016126df9190613607565b602060405180830381865afa1580156126fc573d6000803e3d6000fd5b505050506040513d601f19601f82011682018060405250810190612720919061364e565b61275f576040517f08c379a0000000000000000000000000000000000000000000000000000000008152600401612756906136c7565b60405180910390fd5b61276882612e4a565b6127a7576040517f08c379a000000000000000000000000000000000000000000000000000000000815260040161279e906141eb565b60405180910390fd5b600160008154809291906127ba90613716565b919050559050600260003373ffffffffffffffffffffffffffffffffffffffff1673ffffffffffffffffffffffffffffffffffffffff168152602001908152602001600020819080600181540180825580915050600190039060005260206000200160009091909190915055336003600083815260200190815260200160002060000160006101000a81548173ffffffffffffffffffffffffffffffffffffffff021916908373ffffffffffffffffffffffffffffffffffffffff1602179055508160036000838152602001908152602001600020600101908161289e9190613a9f565b506001600260003373ffffffffffffffffffffffffffffffffffffffff1673ffffffffffffffffffffffffffffffffffffffff168152602001908152602001600020805490506128ee9190613e9a565b60036000838152602001908152602001600020600201819055504360036000838152602001908152602001600020600901819055504260036000838152602001908152602001600020600a01819055507f8fbb910a53e3fc2339a2a5112d7ea9e88a99d2c7331d79b05143a26ff1793ca381338460405161297193929190613f3a565b60405180910390a1919050565b60008054906101000a900473ffffffffffffffffffffffffffffffffffffffff1673ffffffffffffffffffffffffffffffffffffffff16634209fff1336040518263ffffffff1660e01b81526004016129d79190613607565b602060405180830381865afa1580156129f4573d6000803e3d6000fd5b505050506040513d601f19601f82011682018060405250810190612a18919061364e565b612a57576040517f08c379a0000000000000000000000000000000000000000000000000000000008152600401612a4e906136c7565b60405180910390fd5b612a60826124c0565b612a6957600080fd5b612a7281612e4a565b612ab1576040517f08c379a0000000000000000000000000000000000000000000000000000000008152600401612aa890614257565b60405180910390fd5b60008054906101000a900473ffffffffffffffffffffffffffffffffffffffff1673ffffffffffffffffffffffffffffffffffffffff1663cd251a9a346003600086815260200190815260200160002060000160009054906101000a900473ffffffffffffffffffffffffffffffffffffffff16336040518463ffffffff1660e01b8152600401612b43929190613836565b60206040518083038185885af1158015612b61573d6000803e3d6000fd5b50505050506040513d601f19601f82011682018060405250810190612b86919061364e565b612b8f57600080fd5b6000600360008481526020019081526020016000206003016000815480929190612bb890613716565b9190505590503360036000858152602001908152602001600020600401600083815260200190815260200160002060000160006101000a81548173ffffffffffffffffffffffffffffffffffffffff021916908373ffffffffffffffffffffffffffffffffffffffff160217905550816003600085815260200190815260200160002060040160008381526020019081526020016000206001019081612c5e9190613a9f565b50436003600085815260200190815260200160002060040160008381526020019081526020016000206005018190555042600360008581526020019081526020016000206004016000838152602001908152602001600020600601819055507fbfc5bad8d8cf5676c1669df7486f1e3484a07fad54a2d620bcf4bb56cc9b6dca83823385604051612cf29493929190613b71565b60405180910390a1505050565b600060036000848152602001908152602001600020600401600083815260200190815260200160002060020154905092915050565b60036020528060005260406000206000915090508060000160009054906101000a900473ffffffffffffffffffffffffffffffffffffffff1690806001018054612d7d906138c2565b80601f0160208091040260200160405190810160405280929190818152602001828054612da9906138c2565b8015612df65780601f10612dcb57610100808354040283529160200191612df6565b820191906000526020600020905b815481529060010190602001808311612dd957829003601f168201915b50505050509080600201549080600301549080600501549080600701549080600801549080600901549080600a0154905089565b600060036000838152602001908152602001600020600301549050919050565b60007f6261676161696572610000000000000000000000000000000000000000000000604051602001612e7d91906142c4565b6040516020818303038152906040528051906020012082612e9d9061430f565b604051602001612ead91906142c4565b60405160208183030381529060405280519060200120148015612ed15750603d8251145b9050919050565b60606040518060400160405280600781526020017f697066733a2f2f00000000000000000000000000000000000000000000000000815250905090565b508054612f21906138c2565b6000825580601f10612f335750612f52565b601f016020900490600052602060002090810190612f519190612f55565b5b50565b5b80821115612f6e576000816000905550600101612f56565b5090565b6000604051905090565b600080fd5b600080fd5b6000819050919050565b612f9981612f86565b8114612fa457600080fd5b50565b600081359050612fb681612f90565b92915050565b600060208284031215612fd257612fd1612f7c565b5b6000612fe084828501612fa7565b91505092915050565b600080fd5b600080fd5b6000601f19601f8301169050919050565b7f4e487b7100000000000000000000000000000000000000000000000000000000600052604160045260246000fd5b61303c82612ff3565b810181811067ffffffffffffffff8211171561305b5761305a613004565b5b80604052505050565b600061306e612f72565b905061307a8282613033565b919050565b600067ffffffffffffffff82111561309a57613099613004565b5b6130a382612ff3565b9050602081019050919050565b82818337600083830152505050565b60006130d26130cd8461307f565b613064565b9050828152602081018484840111156130ee576130ed612fee565b5b6130f98482856130b0565b509392505050565b600082601f83011261311657613115612fe9565b5b81356131268482602086016130bf565b91505092915050565b60008060006060848603121561314857613147612f7c565b5b600061315686828701612fa7565b935050602061316786828701612fa7565b925050604084013567ffffffffffffffff81111561318857613187612f81565b5b61319486828701613101565b9150509250925092565b600080604083850312156131b5576131b4612f7c565b5b60006131c385828601612fa7565b92505060206131d485828601612fa7565b9150509250929050565b60008115159050919050565b6131f3816131de565b82525050565b600060208201905061320e60008301846131ea565b92915050565b600073ffffffffffffffffffffffffffffffffffffffff82169050919050565b600061323f82613214565b9050919050565b61324f81613234565b82525050565b600081519050919050565b600082825260208201905092915050565b60005b8381101561328f578082015181840152602081019050613274565b60008484015250505050565b60006132a682613255565b6132b08185613260565b93506132c0818560208601613271565b6132c981612ff3565b840191505092915050565b6132dd81612f86565b82525050565b600060c0820190506132f86000830189613246565b818103602083015261330a818861329b565b905061331960408301876132d4565b61332660608301866132d4565b61333360808301856132d4565b61334060a08301846132d4565b979650505050505050565b61335481613234565b811461335f57600080fd5b50565b6000813590506133718161334b565b92915050565b6000806040838503121561338e5761338d612f7c565b5b600061339c85828601613362565b92505060206133ad85828601612fa7565b9150509250929050565b60006020820190506133cc60008301846132d4565b92915050565b6000602082840312156133e8576133e7612f7c565b5b60006133f684828501613362565b91505092915050565b60008060006060848603121561341857613417612f7c565b5b600061342686828701612fa7565b935050602061343786828701612fa7565b925050604061344886828701612fa7565b9150509250925092565b600060a0820190506134676000830188613246565b8181036020830152613479818761329b565b905061348860408301866132d4565b61349560608301856132d4565b6134a260808301846132d4565b9695505050505050565b600080604083850312156134c3576134c2612f7c565b5b60006134d185828601612fa7565b925050602083013567ffffffffffffffff8111156134f2576134f1612f81565b5b6134fe85828601613101565b9150509250929050565b60006101208201905061351e600083018c613246565b8181036020830152613530818b61329b565b905061353f604083018a6132d4565b61354c60608301896132d4565b61355960808301886132d4565b61356660a08301876132d4565b61357360c08301866132d4565b61358060e08301856132d4565b61358e6101008301846132d4565b9a9950505050505050505050565b600060208201905081810360008301526135b6818461329b565b905092915050565b6000602082840312156135d4576135d3612f7c565b5b600082013567ffffffffffffffff8111156135f2576135f1612f81565b5b6135fe84828501613101565b91505092915050565b600060208201905061361c6000830184613246565b92915050565b61362b816131de565b811461363657600080fd5b50565b60008151905061364881613622565b92915050565b60006020828403121561366457613663612f7c565b5b600061367284828501613639565b91505092915050565b7f53656e646572206d75737420626520726567697374657265642e000000000000600082015250565b60006136b1601a83613260565b91506136bc8261367b565b602082019050919050565b600060208201905081810360008301526136e0816136a4565b9050919050565b7f4e487b7100000000000000000000000000000000000000000000000000000000600052601160045260246000fd5b600061372182612f86565b91507fffffffffffffffffffffffffffffffffffffffffffffffffffffffffffffffff8203613753576137526136e7565b5b600182019050919050565b7f496e76616c696420646f6e6174696f6e204a534f4e204349442e000000000000600082015250565b6000613794601a83613260565b915061379f8261375e565b602082019050919050565b600060208201905081810360008301526137c381613787565b9050919050565b7f436f6d6d656e74207761732064656c6574656400000000000000000000000000600082015250565b6000613800601383613260565b915061380b826137ca565b602082019050919050565b6000602082019050818103600083015261382f816137f3565b9050919050565b600060408201905061384b6000830185613246565b6138586020830184613246565b9392505050565b600061386a82612f86565b915061387583612f86565b925082820190508082111561388d5761388c6136e7565b5b92915050565b7f4e487b7100000000000000000000000000000000000000000000000000000000600052602260045260246000fd5b600060028204905060018216806138da57607f821691505b6020821081036138ed576138ec613893565b5b50919050565b60008190508160005260206000209050919050565b60006020601f8301049050919050565b600082821b905092915050565b6000600883026139557fffffffffffffffffffffffffffffffffffffffffffffffffffffffffffffffff82613918565b61395f8683613918565b95508019841693508086168417925050509392505050565b6000819050919050565b600061399c61399761399284612f86565b613977565b612f86565b9050919050565b6000819050919050565b6139b683613981565b6139ca6139c2826139a3565b848454613925565b825550505050565b600090565b6139df6139d2565b6139ea8184846139ad565b505050565b5b81811015613a0e57613a036000826139d7565b6001810190506139f0565b5050565b601f821115613a5357613a24816138f3565b613a2d84613908565b81016020851015613a3c578190505b613a50613a4885613908565b8301826139ef565b50505b505050565b600082821c905092915050565b6000613a7660001984600802613a58565b1980831691505092915050565b6000613a8f8383613a65565b9150826002028217905092915050565b613aa882613255565b67ffffffffffffffff811115613ac157613ac0613004565b5b613acb82546138c2565b613ad6828285613a12565b600060209050601f831160018114613b095760008415613af7578287015190505b613b018582613a83565b865550613b69565b601f198416613b17866138f3565b60005b82811015613b3f57848901518255600182019150602085019450602081019050613b1a565b86831015613b5c5784890151613b58601f891682613a65565b8355505b6001600288020188555050505b505050505050565b6000608082019050613b8660008301876132d4565b613b9360208301866132d4565b613ba06040830185613246565b8181036060830152613bb2818461329b565b905095945050505050565b7f496e76616c696420757365722066656564206c656e6774682e00000000000000600082015250565b6000613bf3601983613260565b9150613bfe82613bbd565b602082019050919050565b60006020820190508181036000830152613c2281613be6565b9050919050565b7f4e487b7100000000000000000000000000000000000000000000000000000000600052603260045260246000fd5b7f496e76616c696420706f737420757365722c205573652072656d6f766520746f60008201527f2072656d6f7665206e6f726d616c20706f73742e000000000000000000000000602082015250565b6000613cb4603483613260565b9150613cbf82613c58565b604082019050919050565b60006020820190508181036000830152613ce381613ca7565b9050919050565b7f496e76616c6964205f646f6e6174696f6e496400000000000000000000000000600082015250565b6000613d20601383613260565b9150613d2b82613cea565b602082019050919050565b60006020820190508181036000830152613d4f81613d13565b9050919050565b7f506f73742075736572206d7573742062652073656e6465722e00000000000000600082015250565b6000613d8c601983613260565b9150613d9782613d56565b602082019050919050565b60006020820190508181036000830152613dbb81613d7f565b9050919050565b7f496e76616c696420636f6d6d656e744964000000000000000000000000000000600082015250565b6000613df8601183613260565b9150613e0382613dc2565b602082019050919050565b60006020820190508181036000830152613e2781613deb565b9050919050565b7f496e76616c696420636f6d6d656e746572000000000000000000000000000000600082015250565b6000613e64601183613260565b9150613e6f82613e2e565b602082019050919050565b60006020820190508181036000830152613e9381613e57565b9050919050565b6000613ea582612f86565b9150613eb083612f86565b9250828203905081811115613ec857613ec76136e7565b5b92915050565b7f496e76616c6964205f7374617274202f205f656e642076616c7565732e000000600082015250565b6000613f04601d83613260565b9150613f0f82613ece565b602082019050919050565b60006020820190508181036000830152613f3381613ef7565b9050919050565b6000606082019050613f4f60008301866132d4565b613f5c6020830185613246565b8181036040830152613f6e818461329b565b9050949350505050565b7f496e76616c6964205f706f737449640000000000000000000000000000000000600082015250565b6000613fae600f83613260565b9150613fb982613f78565b602082019050919050565b60006020820190508181036000830152613fdd81613fa1565b9050919050565b7f506f7374207761732072656d6f76656400000000000000000000000000000000600082015250565b600061401a601083613260565b915061402582613fe4565b602082019050919050565b600060208201905081810360008301526140498161400d565b9050919050565b7f496e76616c6964205f636f6d6d656e7449640000000000000000000000000000600082015250565b6000614086601283613260565b915061409182614050565b602082019050919050565b600060208201905081810360008301526140b581614079565b9050919050565b600081905092915050565b60006140d282613255565b6140dc81856140bc565b93506140ec818560208601613271565b80840191505092915050565b60008154614105816138c2565b61410f81866140bc565b9450600182166000811461412a576001811461413f57614172565b60ff1983168652811515820286019350614172565b614148856138f3565b60005b8381101561416a5781548189015260018201915060208101905061414b565b838801955050505b50505092915050565b600061418782856140c7565b915061419382846140f8565b91508190509392505050565b7f496e76616c696420706f7374204a534f4e204349442e00000000000000000000600082015250565b60006141d5601683613260565b91506141e08261419f565b602082019050919050565b60006020820190508181036000830152614204816141c8565b9050919050565b7f496e76616c696420636f6d6d656e74204a534f4e204349442e00000000000000600082015250565b6000614241601983613260565b915061424c8261420b565b602082019050919050565b6000602082019050818103600083015261427081614234565b9050919050565b60007fffffffffffffffffff000000000000000000000000000000000000000000000082169050919050565b6000819050919050565b6142be6142b982614277565b6142a3565b82525050565b60006142d082846142ad565b60098201915081905092915050565b600081519050919050565b6000819050602082019050919050565b60006143068251614277565b80915050919050565b600061431a826142df565b82614324846142ea565b905061432f816142fa565b9250600982101561436f5761436a7fffffffffffffffffff000000000000000000000000000000000000000000000083600903600802613918565b831692505b505091905056fea2646970667358221220c1af4af189ca9bb67b2b4a64adda0cb9822c0e75a2679e59a3510d5c59b078f464736f6c63430008110033",
  "immutableReferences": {},
  "source": "\n// SPDX-License-Identifier: MIT\npragma solidity ^0.8.17;\n\nimport \"../user-register/UserRegister.sol\";\n\nimport \"../helper/Helper.sol\";\n\ncontract Feed {\n    \n    UserRegister userRegister;\n\n    uint public postId = 0;\n\n    mapping(address => uint[]) public userFeed;\n\n    mapping(uint => post) public feed;\n\n    struct post {\n        address _user;\n        string _cid;  \n        uint _index;   \n        uint _totalComments;\n        mapping(uint => comment) _comments;\n        uint _totalDonations;\n        mapping(uint => donation) _donations;\n        uint _totalDonated;\n        uint _reposts;\n        uint _block;\n        uint _timestamp;\n    }\n\n    struct comment {\n        address _user;\n        string _cid;\n        uint _totalDonations;\n        mapping(uint => donation) _donations;\n        uint _totalDonated;\n        uint _block;\n        uint _timestamp;\n    }\n\n    struct donation{\n        address _user;\n        string _cid;\n        uint _value;\n        uint _block;\n        uint _timestamp;\n    }\n\n    event posted (uint _postId, address _user, string _cid);\n\n    event commented (uint _postId, uint _commentId, address _user, string _cid);\n\n    event donated_post (uint _postId, address _user, string _cid);\n\n    event donated_comment (uint _postId, uint _commentId, address _user, string _cid);\n\n    modifier isUser(){\n        require(userRegister.isUser(msg.sender), \"Sender must be registered.\");\n        _;\n    }\n\n    constructor(address _userRegister){\n        userRegister = UserRegister(_userRegister);\n    }\n\n    function _baseURI() internal pure returns(string memory){\n        return \"ipfs://\";\n    }\n\n    function tokenURI(uint _postId) public view returns(string memory){\n        require(validPost(_postId));\n        return string(abi.encodePacked(_baseURI(), feed[_postId]._cid)); \n    }\n\n    function submit(string memory _cid) public isUser returns(uint _postId){\n        require(Helper.isV1JSONCID(_cid), \"Invalid post JSON CID.\");\n        _postId = postId++;\n        userFeed[msg.sender].push(_postId);\n        feed[_postId]._user = msg.sender;\n        feed[_postId]._cid = _cid;\n        feed[_postId]._index = userFeed[msg.sender].length - 1;\n        feed[_postId]._block = block.number;\n        feed[_postId]._timestamp = block.timestamp;\n        emit posted(_postId, msg.sender, _cid);\n    }\n\n    function remove(uint _postId) public isUser{\n        require(validPost(_postId));\n        require(feed[_postId]._user == msg.sender, \"Post user must be sender.\");\n        delete userFeed[msg.sender][feed[_postId]._index];\n        delete feed[_postId];\n    }\n\n    function retrieve_post(uint _postId) public view returns(address _user, string memory _cid, uint _index, uint _totalComments, uint _totalDonations, uint _totalDonated, uint _reposts, uint _block, uint _timestamp){\n        require(validPost(_postId));\n        _user = feed[_postId]._user;\n        _cid = feed[_postId]._cid;\n        _index = feed[_postId]._index;\n        _totalComments = feed[_postId]._totalComments;\n        _totalDonations = feed[_postId]._totalDonations;\n        _totalDonated = feed[_postId]._totalDonated;\n        _reposts = feed[_postId]._reposts;\n        _block = feed[_postId]._block;\n        _timestamp = feed[_postId]._timestamp;\n    }\n\n    function repost(uint _postId) public isUser{\n        require(validPost(_postId));\n        feed[_postId]._reposts++;\n        userFeed[msg.sender].push(_postId);\n    }\n\n    function remove_repost(uint _index) public isUser{\n        require(_index < userFeedLength(msg.sender), \"Invalid user feed length.\");\n        require(feed[userFeed[msg.sender][_index]]._user != msg.sender, \"Invalid post user, Use remove to remove normal post.\");\n        delete userFeed[msg.sender][_index];\n    }\n\n    function submit_comment(uint _postId, string memory _cid) public payable isUser{\n        require(validPost(_postId));\n        require(Helper.isV1JSONCID(_cid), \"Invalid comment JSON CID.\");\n        require(userRegister.validInteraction{value: msg.value}(feed[_postId]._user, msg.sender));\n        uint _totalComments = feed[_postId]._totalComments++;\n        feed[_postId]._comments[_totalComments]._user = msg.sender;\n        feed[_postId]._comments[_totalComments]._cid = _cid;\n        feed[_postId]._comments[_totalComments]._block = block.number;\n        feed[_postId]._comments[_totalComments]._timestamp = block.timestamp;\n        emit commented(_postId, _totalComments, msg.sender, _cid);\n    }\n\n    function remove_comment(uint _postId, uint _commentId) public isUser{\n        require(validPost(_postId));\n        require(feed[_postId]._user == msg.sender, \"Post user must be sender.\");\n        require(_commentId < feed[_postId]._totalComments, \"Invalid commentId\");\n        delete feed[_postId]._comments[_commentId];\n    }\n\n    function withdraw_comment(uint _postId, uint _commentId) public isUser{\n        require(validPost(_postId));\n        require(_commentId <= feed[_postId]._totalComments, \"Invalid commentId\");\n        require(feed[_postId]._comments[_commentId]._user == msg.sender, \"Invalid commenter\");\n        feed[_postId]._comments[_commentId]._cid = \"\";\n    }\n\n    function retrieve_comment(uint _postId, uint _commentId) public view returns(address _user, string memory _cid, uint _totalDonations, uint _totalDonated, uint _block, uint _timestamp){\n        require(validComment(_postId, _commentId));\n        _user = feed[_postId]._comments[_commentId]._user;\n        _cid = feed[_postId]._comments[_commentId]._cid;\n        _totalDonations = feed[_postId]._comments[_commentId]._totalDonations;\n        _totalDonated = feed[_postId]._comments[_commentId]._totalDonated;\n        _block = feed[_postId]._comments[_commentId]._block;\n        _timestamp = feed[_postId]._comments[_commentId]._timestamp;\n    }\n\n    function donate(uint _postId, string memory _cid) public payable isUser{\n        require(validPost(_postId));\n        require(Helper.isV1JSONCID(_cid), \"Invalid donation JSON CID.\");\n        require(userRegister.validInteraction{value: msg.value}(feed[_postId]._user, msg.sender));\n        feed[_postId]._totalDonated += msg.value;\n        uint _totalDonations = feed[_postId]._totalDonations++;\n        feed[_postId]._donations[_totalDonations]._user = msg.sender;\n        feed[_postId]._donations[_totalDonations]._value = msg.value;\n        feed[_postId]._donations[_totalDonations]._cid = _cid;\n        feed[_postId]._donations[_totalDonations]._block = block.number;\n        feed[_postId]._donations[_totalDonations]._timestamp = block.timestamp;\n        emit donated_post(_postId, msg.sender, _cid);\n    }\n    \n    function donate(uint _postId, uint _commentId, string memory _cid) public payable isUser{\n        require(validComment(_postId, _commentId));\n        require(Helper.isV1JSONCID(_cid), \"Invalid donation JSON CID.\");\n        require(feed[_postId]._comments[_commentId]._user != address(0), \"Comment was deleted\");\n        require(userRegister.validInteraction{value: msg.value}(feed[_postId]._comments[_commentId]._user, msg.sender));\n        feed[_postId]._comments[_commentId]._totalDonated += msg.value;\n        uint _totalDonations = feed[_postId]._comments[_commentId]._totalDonations++;\n        feed[_postId]._comments[_commentId]._donations[_totalDonations]._user = msg.sender;\n        feed[_postId]._comments[_commentId]._donations[_totalDonations]._value = msg.value;\n        feed[_postId]._comments[_commentId]._donations[_totalDonations]._cid = _cid;\n        feed[_postId]._comments[_commentId]._donations[_totalDonations]._block = block.number;\n        feed[_postId]._comments[_commentId]._donations[_totalDonations]._timestamp = block.timestamp;\n        emit donated_comment(_postId, _commentId, msg.sender, _cid);\n    }\n\n    function retrieve_post_donation(uint _postId, uint _donationId) public view returns(address _user, string memory _cid, uint _value, uint _block, uint _timestamp){\n        require(validPostDonation(_postId, _donationId));\n        _user = feed[_postId]._donations[_donationId]._user;\n        _cid = feed[_postId]._donations[_donationId]._cid;\n        _value = feed[_postId]._donations[_donationId]._value;\n        _block = feed[_postId]._donations[_donationId]._block;\n        _timestamp = feed[_postId]._donations[_donationId]._timestamp;\n    }\n\n    function retrieve_comment_donation(uint _postId, uint _commentId, uint _donationId) public view returns(address _user, string memory _cid, uint _value, uint _block, uint _timestamp){\n        require(validCommentDonation(_postId, _commentId, _donationId));\n        _user = feed[_postId]._comments[_commentId]._donations[_donationId]._user;\n        _cid = feed[_postId]._comments[_commentId]._donations[_donationId]._cid;\n        _value = feed[_postId]._comments[_commentId]._donations[_donationId]._value;\n        _block = feed[_postId]._comments[_commentId]._donations[_donationId]._block;\n        _timestamp = feed[_postId]._comments[_commentId]._donations[_donationId]._timestamp;\n    }\n\n    // helper methods\n    function validPost(uint _postId) public view returns(bool){\n        require(_postId < postId, \"Invalid _postId\");\n        require(feed[_postId]._user != address(0), \"Post was removed\");\n        return true;\n    }\n\n    function validComment(uint _postId, uint _commentId) public view returns(bool){\n        require(validPost(_postId));\n        require(_commentId < feed[_postId]._totalComments, \"Invalid _commentId\");\n        return true;\n    }\n\n    function validPostDonation(uint _postId, uint _donationId) public view returns(bool){\n        require(validPost(_postId));\n        require(_donationId < feed[_postId]._totalDonations, \"Invalid _donationId\");\n        return true;\n    }\n\n    function validCommentDonation(uint _postId, uint _commentId, uint _donationId) public view returns(bool){\n        require(validComment(_postId, _commentId));\n        require(_donationId < feed[_postId]._comments[_commentId]._totalDonations, \"Invalid _donationId\");\n        return true;\n    }\n\n    function validStartEnd(uint _start, uint _end, uint _arrLen) public pure returns(bool){\n        require(_end > _start && _end - _start < 100 && _end < _arrLen, \"Invalid _start / _end values.\");\n        return true;\n    }\n\n    function userFeedLength(address _user) public view returns(uint _length){\n        return userFeed[_user].length;\n    }\n\n    function totalComments(uint _postId) public view returns (uint _totalComments){\n        return feed[_postId]._totalComments;\n    }\n\n    function totalDonations(uint _postId) public view returns (uint _totalDonations){\n        return feed[_postId]._totalDonations;\n    }\n\n    function totalCommentDonations(uint _postId, uint _commentId) public view returns(uint _totalDonations){\n        return feed[_postId]._comments[_commentId]._totalDonations;\n    }\n    \n}",
  "sourcePath": "/home/stephensb/sb-labs/feed/contracts/dapp/feed/Feed.sol",
  "compiler": {
    "name": "solc",
    "version": "0.8.17+commit.8df45f5f.Emscripten.clang"
  },
  "schemaVersion": "3.4.11",
  "updatedAt": "2023-03-09T02:42:27.071Z",
  "devdoc": {
    "kind": "dev",
    "methods": {},
    "version": 1
  },
  "userdoc": {
    "kind": "user",
    "methods": {},
    "version": 1
  }
}