{
  "contractName": "NFT_Register",
  "abi": [
    {
      "inputs": [
        {
          "internalType": "uint256",
          "name": "_minimumRequestValue",
          "type": "uint256"
        },
        {
          "internalType": "address",
          "name": "_userRegister",
          "type": "address"
        }
      ],
      "stateMutability": "nonpayable",
      "type": "constructor"
    },
    {
      "anonymous": false,
      "inputs": [
        {
          "indexed": true,
          "internalType": "address",
          "name": "previousOwner",
          "type": "address"
        },
        {
          "indexed": true,
          "internalType": "address",
          "name": "newOwner",
          "type": "address"
        }
      ],
      "name": "OwnershipTransferred",
      "type": "event"
    },
    {
      "anonymous": false,
      "inputs": [
        {
          "components": [
            {
              "internalType": "bytes32",
              "name": "_prev",
              "type": "bytes32"
            },
            {
              "internalType": "bytes32",
              "name": "_root",
              "type": "bytes32"
            },
            {
              "internalType": "string",
              "name": "_cid",
              "type": "string"
            },
            {
              "internalType": "uint256",
              "name": "_block",
              "type": "uint256"
            }
          ],
          "indexed": false,
          "internalType": "struct NFT_Register.nftBlock",
          "name": "_block",
          "type": "tuple"
        }
      ],
      "name": "blockSubmitted",
      "type": "event"
    },
    {
      "anonymous": false,
      "inputs": [
        {
          "indexed": false,
          "internalType": "address",
          "name": "_contract",
          "type": "address"
        },
        {
          "indexed": false,
          "internalType": "address",
          "name": "_distributor",
          "type": "address"
        },
        {
          "indexed": false,
          "internalType": "uint8",
          "name": "_type",
          "type": "uint8"
        },
        {
          "indexed": false,
          "internalType": "string",
          "name": "_cid",
          "type": "string"
        },
        {
          "indexed": false,
          "internalType": "uint256",
          "name": "_block",
          "type": "uint256"
        }
      ],
      "name": "verificationRequest",
      "type": "event"
    },
    {
      "anonymous": false,
      "inputs": [
        {
          "indexed": false,
          "internalType": "address",
          "name": "_contract",
          "type": "address"
        },
        {
          "indexed": false,
          "internalType": "string",
          "name": "_cid",
          "type": "string"
        }
      ],
      "name": "verified",
      "type": "event"
    },
    {
      "inputs": [
        {
          "internalType": "bytes32",
          "name": "",
          "type": "bytes32"
        }
      ],
      "name": "blockMap",
      "outputs": [
        {
          "internalType": "bytes32",
          "name": "_prev",
          "type": "bytes32"
        },
        {
          "internalType": "bytes32",
          "name": "_root",
          "type": "bytes32"
        },
        {
          "internalType": "string",
          "name": "_cid",
          "type": "string"
        },
        {
          "internalType": "uint256",
          "name": "_block",
          "type": "uint256"
        }
      ],
      "stateMutability": "view",
      "type": "function"
    },
    {
      "inputs": [
        {
          "internalType": "string",
          "name": "",
          "type": "string"
        }
      ],
      "name": "cidToContract",
      "outputs": [
        {
          "internalType": "address",
          "name": "",
          "type": "address"
        }
      ],
      "stateMutability": "view",
      "type": "function"
    },
    {
      "inputs": [
        {
          "internalType": "address",
          "name": "",
          "type": "address"
        }
      ],
      "name": "contractInfo",
      "outputs": [
        {
          "internalType": "uint8",
          "name": "_type",
          "type": "uint8"
        },
        {
          "internalType": "address",
          "name": "_distributor",
          "type": "address"
        },
        {
          "internalType": "string",
          "name": "_baseCID",
          "type": "string"
        }
      ],
      "stateMutability": "view",
      "type": "function"
    },
    {
      "inputs": [
        {
          "internalType": "address",
          "name": "",
          "type": "address"
        },
        {
          "internalType": "uint256",
          "name": "",
          "type": "uint256"
        }
      ],
      "name": "distributorContracts",
      "outputs": [
        {
          "internalType": "address",
          "name": "",
          "type": "address"
        }
      ],
      "stateMutability": "view",
      "type": "function"
    },
    {
      "inputs": [],
      "name": "minimumRequestValue",
      "outputs": [
        {
          "internalType": "uint256",
          "name": "",
          "type": "uint256"
        }
      ],
      "stateMutability": "view",
      "type": "function"
    },
    {
      "inputs": [],
      "name": "networkId",
      "outputs": [
        {
          "internalType": "uint256",
          "name": "",
          "type": "uint256"
        }
      ],
      "stateMutability": "view",
      "type": "function"
    },
    {
      "inputs": [
        {
          "internalType": "uint256",
          "name": "",
          "type": "uint256"
        }
      ],
      "name": "nftBlocks",
      "outputs": [
        {
          "internalType": "bytes32",
          "name": "_prev",
          "type": "bytes32"
        },
        {
          "internalType": "bytes32",
          "name": "_root",
          "type": "bytes32"
        },
        {
          "internalType": "string",
          "name": "_cid",
          "type": "string"
        },
        {
          "internalType": "uint256",
          "name": "_block",
          "type": "uint256"
        }
      ],
      "stateMutability": "view",
      "type": "function"
    },
    {
      "inputs": [
        {
          "internalType": "address",
          "name": "",
          "type": "address"
        }
      ],
      "name": "nftSlashed",
      "outputs": [
        {
          "internalType": "bool",
          "name": "",
          "type": "bool"
        }
      ],
      "stateMutability": "view",
      "type": "function"
    },
    {
      "inputs": [],
      "name": "owner",
      "outputs": [
        {
          "internalType": "address",
          "name": "",
          "type": "address"
        }
      ],
      "stateMutability": "view",
      "type": "function"
    },
    {
      "inputs": [],
      "name": "renounceOwnership",
      "outputs": [],
      "stateMutability": "nonpayable",
      "type": "function"
    },
    {
      "inputs": [
        {
          "internalType": "address",
          "name": "newOwner",
          "type": "address"
        }
      ],
      "name": "transferOwnership",
      "outputs": [],
      "stateMutability": "nonpayable",
      "type": "function"
    },
    {
      "inputs": [
        {
          "internalType": "string",
          "name": "_cid",
          "type": "string"
        }
      ],
      "name": "requestVerification",
      "outputs": [],
      "stateMutability": "payable",
      "type": "function"
    },
    {
      "inputs": [
        {
          "internalType": "bytes32[]",
          "name": "_proof",
          "type": "bytes32[]"
        },
        {
          "internalType": "bytes32",
          "name": "_root",
          "type": "bytes32"
        },
        {
          "internalType": "bytes32",
          "name": "_transactionHash",
          "type": "bytes32"
        },
        {
          "components": [
            {
              "internalType": "address",
              "name": "_contract",
              "type": "address"
            },
            {
              "internalType": "address",
              "name": "_distributor",
              "type": "address"
            },
            {
              "internalType": "string[]",
              "name": "_cids",
              "type": "string[]"
            },
            {
              "internalType": "uint8",
              "name": "_type",
              "type": "uint8"
            }
          ],
          "internalType": "struct NFT_Register.transaction",
          "name": "_transaction",
          "type": "tuple"
        }
      ],
      "name": "verifyNFT",
      "outputs": [],
      "stateMutability": "nonpayable",
      "type": "function"
    },
    {
      "inputs": [
        {
          "components": [
            {
              "internalType": "bytes32",
              "name": "_prev",
              "type": "bytes32"
            },
            {
              "internalType": "bytes32",
              "name": "_root",
              "type": "bytes32"
            },
            {
              "internalType": "string",
              "name": "_cid",
              "type": "string"
            },
            {
              "internalType": "uint256",
              "name": "_block",
              "type": "uint256"
            }
          ],
          "internalType": "struct NFT_Register.nftBlock",
          "name": "_block",
          "type": "tuple"
        }
      ],
      "name": "submitBlock",
      "outputs": [],
      "stateMutability": "nonpayable",
      "type": "function"
    }
  ],
  "bytecode": "0x60806040523480156200001157600080fd5b5060405162002268380380620022688339818101604052810190620000379190620002b7565b620000576200004b6200014660201b60201c565b6200014e60201b60201c565b8160038190555080600160006101000a81548173ffffffffffffffffffffffffffffffffffffffff021916908373ffffffffffffffffffffffffffffffffffffffff160217905550600060405180608001604052806000801b81526020016000801b81526020016040518060200160405280600081525081526020014381525090506008819080600181540180825580915050600190039060005260206000209060040201600090919091909150600082015181600001556020820151816001015560408201518160020190816200013091906200056e565b5060608201518160030155505050505062000655565b600033905090565b60008060009054906101000a900473ffffffffffffffffffffffffffffffffffffffff169050816000806101000a81548173ffffffffffffffffffffffffffffffffffffffff021916908373ffffffffffffffffffffffffffffffffffffffff1602179055508173ffffffffffffffffffffffffffffffffffffffff168173ffffffffffffffffffffffffffffffffffffffff167f8be0079c531659141344cd1fd0a4f28419497f9722a3daafe3b4186f6b6457e060405160405180910390a35050565b600080fd5b6000819050919050565b6200022c8162000217565b81146200023857600080fd5b50565b6000815190506200024c8162000221565b92915050565b600073ffffffffffffffffffffffffffffffffffffffff82169050919050565b60006200027f8262000252565b9050919050565b620002918162000272565b81146200029d57600080fd5b50565b600081519050620002b18162000286565b92915050565b60008060408385031215620002d157620002d062000212565b5b6000620002e1858286016200023b565b9250506020620002f485828601620002a0565b9150509250929050565b600081519050919050565b7f4e487b7100000000000000000000000000000000000000000000000000000000600052604160045260246000fd5b7f4e487b7100000000000000000000000000000000000000000000000000000000600052602260045260246000fd5b600060028204905060018216806200038057607f821691505b60208210810362000396576200039562000338565b5b50919050565b60008190508160005260206000209050919050565b60006020601f8301049050919050565b600082821b905092915050565b600060088302620004007fffffffffffffffffffffffffffffffffffffffffffffffffffffffffffffffff82620003c1565b6200040c8683620003c1565b95508019841693508086168417925050509392505050565b6000819050919050565b60006200044f62000449620004438462000217565b62000424565b62000217565b9050919050565b6000819050919050565b6200046b836200042e565b620004836200047a8262000456565b848454620003ce565b825550505050565b600090565b6200049a6200048b565b620004a781848462000460565b505050565b5b81811015620004cf57620004c360008262000490565b600181019050620004ad565b5050565b601f8211156200051e57620004e8816200039c565b620004f384620003b1565b8101602085101562000503578190505b6200051b6200051285620003b1565b830182620004ac565b50505b505050565b600082821c905092915050565b6000620005436000198460080262000523565b1980831691505092915050565b60006200055e838362000530565b9150826002028217905092915050565b6200057982620002fe565b67ffffffffffffffff81111562000595576200059462000309565b5b620005a1825462000367565b620005ae828285620004d3565b600060209050601f831160018114620005e65760008415620005d1578287015190505b620005dd858262000550565b8655506200064d565b601f198416620005f6866200039c565b60005b828110156200062057848901518255600182019150602085019450602081019050620005f9565b868310156200064057848901516200063c601f89168262000530565b8355505b6001600288020188555050505b505050505050565b611c0380620006656000396000f3fe6080604052600436106100dd5760003560e01c8063715018a61161007f578063bee03c7a11610059578063bee03c7a146102cb578063e11eb98d146102f6578063e4f1b4c414610335578063f2fde38b1461035e576100dd565b8063715018a61461025e5780638da5cb5b146102755780639025e64c146102a0576100dd565b8063490a3fb8116100bb578063490a3fb814610199578063539975de146101d95780635dc3f9dd146102195780636cbff42a14610242576100dd565b80630f3f77c2146100e257806320c430751461011f5780632dd5cbdd1461015c575b600080fd5b3480156100ee57600080fd5b5061010960048036038101906101049190610b5b565b610387565b6040516101169190610ba3565b60405180910390f35b34801561012b57600080fd5b5061014660048036038101906101419190610bf4565b6103a7565b6040516101539190610c43565b60405180910390f35b34801561016857600080fd5b50610183600480360381019061017e9190610da4565b6103f5565b6040516101909190610c43565b60405180910390f35b3480156101a557600080fd5b506101c060048036038101906101bb9190610ded565b61043e565b6040516101d09493929190610ec1565b60405180910390f35b3480156101e557600080fd5b5061020060048036038101906101fb9190610f39565b610506565b6040516102109493929190610ec1565b60405180910390f35b34801561022557600080fd5b50610240600480360381019061023b919061117e565b6105be565b005b61025c60048036038101906102579190611278565b6105c5565b005b34801561026a57600080fd5b5061027361065c565b005b34801561028157600080fd5b5061028a610670565b6040516102979190610c43565b60405180910390f35b3480156102ac57600080fd5b506102b5610699565b6040516102c291906112c5565b60405180910390f35b3480156102d757600080fd5b506102e061069f565b6040516102ed91906112c5565b60405180910390f35b34801561030257600080fd5b5061031d60048036038101906103189190610b5b565b6106a5565b60405161032c939291906112ef565b60405180910390f35b34801561034157600080fd5b5061035c600480360381019061035791906113c1565b610784565b005b34801561036a57600080fd5b5061038560048036038101906103809190610b5b565b6108f9565b005b600b6020528060005260406000206000915054906101000a900460ff1681565b600660205281600052604060002081815481106103c357600080fd5b906000526020600020016000915091509054906101000a900473ffffffffffffffffffffffffffffffffffffffff1681565b6005818051602081018201805184825260208301602085012081835280955050505050506000915054906101000a900473ffffffffffffffffffffffffffffffffffffffff1681565b6008818154811061044e57600080fd5b906000526020600020906004020160009150905080600001549080600101549080600201805461047d90611439565b80601f01602080910402602001604051908101604052809291908181526020018280546104a990611439565b80156104f65780601f106104cb576101008083540402835291602001916104f6565b820191906000526020600020905b8154815290600101906020018083116104d957829003601f168201915b5050505050908060030154905084565b600960205280600052604060002060009150905080600001549080600101549080600201805461053590611439565b80601f016020809104026020016040519081016040528092919081815260200182805461056190611439565b80156105ae5780601f10610583576101008083540402835291602001916105ae565b820191906000526020600020905b81548152906001019060200180831161059157829003601f168201915b5050505050908060030154905084565b5050505050565b60035434101561060a576040517f08c379a0000000000000000000000000000000000000000000000000000000008152600401610601906114b6565b60405180910390fd5b6106133361097c565b610652576040517f08c379a000000000000000000000000000000000000000000000000000000000815260040161064990611522565b60405180910390fd5b6000339050505050565b61066461099f565b61066e6000610a1d565b565b60008060009054906101000a900473ffffffffffffffffffffffffffffffffffffffff16905090565b60025481565b60035481565b60046020528060005260406000206000915090508060000160009054906101000a900460ff16908060000160019054906101000a900473ffffffffffffffffffffffffffffffffffffffff169080600101805461070190611439565b80601f016020809104026020016040519081016040528092919081815260200182805461072d90611439565b801561077a5780601f1061074f5761010080835404028352916020019161077a565b820191906000526020600020905b81548152906001019060200180831161075d57829003601f168201915b5050505050905083565b61078c61099f565b60008160600151146107d3576040517f08c379a00000000000000000000000000000000000000000000000000000000081526004016107ca906115b4565b60405180910390fd5b438160600181815250506008819080600181540180825580915050600190039060005260206000209060040201600090919091909150600082015181600001556020820151816001015560408201518160020190816108329190611780565b50606082015181600301555050600860016008805490506108539190611881565b81548110610864576108636118b5565b5b906000526020600020906004020160096000836020015181526020019081526020016000206000820154816000015560018201548160010155600282018160020190816108b191906118fa565b50600382015481600301559050507ff0f7a747ddd719a9ee54b88bf6dcb480f8a468f59efc9b9a2b5d1da647488fff816040516108ee9190611aad565b60405180910390a150565b61090161099f565b600073ffffffffffffffffffffffffffffffffffffffff168173ffffffffffffffffffffffffffffffffffffffff1603610970576040517f08c379a000000000000000000000000000000000000000000000000000000000815260040161096790611b41565b60405180910390fd5b61097981610a1d565b50565b6000808273ffffffffffffffffffffffffffffffffffffffff163b119050919050565b6109a7610ae1565b73ffffffffffffffffffffffffffffffffffffffff166109c5610670565b73ffffffffffffffffffffffffffffffffffffffff1614610a1b576040517f08c379a0000000000000000000000000000000000000000000000000000000008152600401610a1290611bad565b60405180910390fd5b565b60008060009054906101000a900473ffffffffffffffffffffffffffffffffffffffff169050816000806101000a81548173ffffffffffffffffffffffffffffffffffffffff021916908373ffffffffffffffffffffffffffffffffffffffff1602179055508173ffffffffffffffffffffffffffffffffffffffff168173ffffffffffffffffffffffffffffffffffffffff167f8be0079c531659141344cd1fd0a4f28419497f9722a3daafe3b4186f6b6457e060405160405180910390a35050565b600033905090565b6000604051905090565b600080fd5b600080fd5b600073ffffffffffffffffffffffffffffffffffffffff82169050919050565b6000610b2882610afd565b9050919050565b610b3881610b1d565b8114610b4357600080fd5b50565b600081359050610b5581610b2f565b92915050565b600060208284031215610b7157610b70610af3565b5b6000610b7f84828501610b46565b91505092915050565b60008115159050919050565b610b9d81610b88565b82525050565b6000602082019050610bb86000830184610b94565b92915050565b6000819050919050565b610bd181610bbe565b8114610bdc57600080fd5b50565b600081359050610bee81610bc8565b92915050565b60008060408385031215610c0b57610c0a610af3565b5b6000610c1985828601610b46565b9250506020610c2a85828601610bdf565b9150509250929050565b610c3d81610b1d565b82525050565b6000602082019050610c586000830184610c34565b92915050565b600080fd5b600080fd5b6000601f19601f8301169050919050565b7f4e487b7100000000000000000000000000000000000000000000000000000000600052604160045260246000fd5b610cb182610c68565b810181811067ffffffffffffffff82111715610cd057610ccf610c79565b5b80604052505050565b6000610ce3610ae9565b9050610cef8282610ca8565b919050565b600067ffffffffffffffff821115610d0f57610d0e610c79565b5b610d1882610c68565b9050602081019050919050565b82818337600083830152505050565b6000610d47610d4284610cf4565b610cd9565b905082815260208101848484011115610d6357610d62610c63565b5b610d6e848285610d25565b509392505050565b600082601f830112610d8b57610d8a610c5e565b5b8135610d9b848260208601610d34565b91505092915050565b600060208284031215610dba57610db9610af3565b5b600082013567ffffffffffffffff811115610dd857610dd7610af8565b5b610de484828501610d76565b91505092915050565b600060208284031215610e0357610e02610af3565b5b6000610e1184828501610bdf565b91505092915050565b6000819050919050565b610e2d81610e1a565b82525050565b600081519050919050565b600082825260208201905092915050565b60005b83811015610e6d578082015181840152602081019050610e52565b60008484015250505050565b6000610e8482610e33565b610e8e8185610e3e565b9350610e9e818560208601610e4f565b610ea781610c68565b840191505092915050565b610ebb81610bbe565b82525050565b6000608082019050610ed66000830187610e24565b610ee36020830186610e24565b8181036040830152610ef58185610e79565b9050610f046060830184610eb2565b95945050505050565b610f1681610e1a565b8114610f2157600080fd5b50565b600081359050610f3381610f0d565b92915050565b600060208284031215610f4f57610f4e610af3565b5b6000610f5d84828501610f24565b91505092915050565b600080fd5b600080fd5b60008083601f840112610f8657610f85610c5e565b5b8235905067ffffffffffffffff811115610fa357610fa2610f66565b5b602083019150836020820283011115610fbf57610fbe610f6b565b5b9250929050565b600080fd5b600080fd5b600067ffffffffffffffff821115610feb57610fea610c79565b5b602082029050602081019050919050565b600061100f61100a84610fd0565b610cd9565b9050808382526020820190506020840283018581111561103257611031610f6b565b5b835b8181101561107957803567ffffffffffffffff81111561105757611056610c5e565b5b8086016110648982610d76565b85526020850194505050602081019050611034565b5050509392505050565b600082601f83011261109857611097610c5e565b5b81356110a8848260208601610ffc565b91505092915050565b600060ff82169050919050565b6110c7816110b1565b81146110d257600080fd5b50565b6000813590506110e4816110be565b92915050565b600060808284031215611100576110ff610fc6565b5b61110a6080610cd9565b9050600061111a84828501610b46565b600083015250602061112e84828501610b46565b602083015250604082013567ffffffffffffffff81111561115257611151610fcb565b5b61115e84828501611083565b6040830152506060611172848285016110d5565b60608301525092915050565b60008060008060006080868803121561119a57611199610af3565b5b600086013567ffffffffffffffff8111156111b8576111b7610af8565b5b6111c488828901610f70565b955095505060206111d788828901610f24565b93505060406111e888828901610f24565b925050606086013567ffffffffffffffff81111561120957611208610af8565b5b611215888289016110ea565b9150509295509295909350565b60008083601f84011261123857611237610c5e565b5b8235905067ffffffffffffffff81111561125557611254610f66565b5b60208301915083600182028301111561127157611270610f6b565b5b9250929050565b6000806020838503121561128f5761128e610af3565b5b600083013567ffffffffffffffff8111156112ad576112ac610af8565b5b6112b985828601611222565b92509250509250929050565b60006020820190506112da6000830184610eb2565b92915050565b6112e9816110b1565b82525050565b600060608201905061130460008301866112e0565b6113116020830185610c34565b81810360408301526113238184610e79565b9050949350505050565b60006080828403121561134357611342610fc6565b5b61134d6080610cd9565b9050600061135d84828501610f24565b600083015250602061137184828501610f24565b602083015250604082013567ffffffffffffffff81111561139557611394610fcb565b5b6113a184828501610d76565b60408301525060606113b584828501610bdf565b60608301525092915050565b6000602082840312156113d7576113d6610af3565b5b600082013567ffffffffffffffff8111156113f5576113f4610af8565b5b6114018482850161132d565b91505092915050565b7f4e487b7100000000000000000000000000000000000000000000000000000000600052602260045260246000fd5b6000600282049050600182168061145157607f821691505b6020821081036114645761146361140a565b5b50919050565b7f496e76616c696420726571756573742076616c75652e00000000000000000000600082015250565b60006114a0601683610e3e565b91506114ab8261146a565b602082019050919050565b600060208201905081810360008301526114cf81611493565b9050919050565b7f53656e646572206d757374206265206120636f6e747261637400000000000000600082015250565b600061150c601983610e3e565b9150611517826114d6565b602082019050919050565b6000602082019050818103600083015261153b816114ff565b9050919050565b7f426c6f636b206d757374206265203020666f7220696e697469616c697a61746960008201527f6f6e2e0000000000000000000000000000000000000000000000000000000000602082015250565b600061159e602383610e3e565b91506115a982611542565b604082019050919050565b600060208201905081810360008301526115cd81611591565b9050919050565b60008190508160005260206000209050919050565b60006020601f8301049050919050565b600082821b905092915050565b6000600883026116367fffffffffffffffffffffffffffffffffffffffffffffffffffffffffffffffff826115f9565b61164086836115f9565b95508019841693508086168417925050509392505050565b6000819050919050565b600061167d61167861167384610bbe565b611658565b610bbe565b9050919050565b6000819050919050565b61169783611662565b6116ab6116a382611684565b848454611606565b825550505050565b600090565b6116c06116b3565b6116cb81848461168e565b505050565b5b818110156116ef576116e46000826116b8565b6001810190506116d1565b5050565b601f82111561173457611705816115d4565b61170e846115e9565b8101602085101561171d578190505b611731611729856115e9565b8301826116d0565b50505b505050565b600082821c905092915050565b600061175760001984600802611739565b1980831691505092915050565b60006117708383611746565b9150826002028217905092915050565b61178982610e33565b67ffffffffffffffff8111156117a2576117a1610c79565b5b6117ac8254611439565b6117b78282856116f3565b600060209050601f8311600181146117ea57600084156117d8578287015190505b6117e28582611764565b86555061184a565b601f1984166117f8866115d4565b60005b82811015611820578489015182556001820191506020850194506020810190506117fb565b8683101561183d5784890151611839601f891682611746565b8355505b6001600288020188555050505b505050505050565b7f4e487b7100000000000000000000000000000000000000000000000000000000600052601160045260246000fd5b600061188c82610bbe565b915061189783610bbe565b92508282039050818111156118af576118ae611852565b5b92915050565b7f4e487b7100000000000000000000000000000000000000000000000000000000600052603260045260246000fd5b6000815490506118f381611439565b9050919050565b8181036119085750506119e0565b611911826118e4565b67ffffffffffffffff81111561192a57611929610c79565b5b6119348254611439565b61193f8282856116f3565b6000601f83116001811461196e576000841561195c578287015490505b6119668582611764565b8655506119d9565b601f19841661197c876115d4565b9650611987866115d4565b60005b828110156119af5784890154825560018201915060018501945060208101905061198a565b868310156119cc57848901546119c8601f891682611746565b8355505b6001600288020188555050505b5050505050505b565b6119eb81610e1a565b82525050565b600082825260208201905092915050565b6000611a0d82610e33565b611a1781856119f1565b9350611a27818560208601610e4f565b611a3081610c68565b840191505092915050565b611a4481610bbe565b82525050565b6000608083016000830151611a6260008601826119e2565b506020830151611a7560208601826119e2565b5060408301518482036040860152611a8d8282611a02565b9150506060830151611aa26060860182611a3b565b508091505092915050565b60006020820190508181036000830152611ac78184611a4a565b905092915050565b7f4f776e61626c653a206e6577206f776e657220697320746865207a65726f206160008201527f6464726573730000000000000000000000000000000000000000000000000000602082015250565b6000611b2b602683610e3e565b9150611b3682611acf565b604082019050919050565b60006020820190508181036000830152611b5a81611b1e565b9050919050565b7f4f776e61626c653a2063616c6c6572206973206e6f7420746865206f776e6572600082015250565b6000611b97602083610e3e565b9150611ba282611b61565b602082019050919050565b60006020820190508181036000830152611bc681611b8a565b905091905056fea2646970667358221220540d0c5b3ffd33bd1cdb4f9db8e4bf0de8f9061ad7713845139674158fa0bfe064736f6c63430008110033",
  "immutableReferences": {},
  "source": "pragma solidity ^0.8.5 ;\n\nimport \"@openzeppelin/contracts/access/Ownable.sol\";\n\nimport \"@openzeppelin/contracts/utils/Address.sol\";\n\n// SPDX-License-Identifier: MIT\nimport \"@openzeppelin/contracts/utils/cryptography/MerkleProof.sol\";\n\nimport \"../dapp/user-register/UserRegister.sol\";\n\nimport \"./nft-types/Asset.sol\";\n\ncontract NFT_Register is Ownable{\n\n    // User register filter metadata register participants\n    UserRegister userRegister;\n\n    // ID of the current network\n    uint public networkId;\n\n    // Minimum value for a cid validation/ host request.\n    uint public minimumRequestValue;\n\n    mapping(address => nftInfo) public contractInfo;\n\n    mapping(string => address) public cidToContract;\n\n    // Mapping to determine all contracts verified at one time to a distributor. \n    // WARNING! array may contain contracts containing subCIDs not distributed by distributor. \n    // contractInfo will determine if the distributor is the rightful distributor of the NFT!\n    mapping(address => address[]) public distributorContracts;\n\n    // Array to hold all nfts contracts verified at one time.\n    // WARNING! array may contain contracts no longer verified.\n    address[] nftContracts;\n    \n    // Struct to contain necesarry info on validated contracts.\n    struct nftInfo{\n        uint8    _type;                 // 0: single,  1: collection, 2: dynamic.\n        address  _distributor;          // distributor of the NFT.\n        string   _baseCID;              // baseCID for single and collection assets.\n        string[] _subCIDs;              // array of subCIDS owned by the contract.\n        mapping(string => uint) _block; // block numbers of cid requests.\n    }\n\n    struct nftBlock{\n        bytes32 _prev;          // previous nft block hash\n        bytes32 _root;          // merkle root of transactions\n        string _cid;            // cid of nftBlock containing transactions\n        uint _block;            // base network block when submitted\n    }\n\n    struct transaction{\n        address _contract;      // contract owner of the cid.\n        address _distributor;   // distributor of NFT\n        string[] _cids;         // cids transaction is validating\n        uint8 _type;            // contract type.\n    }\n\n    nftBlock[] public nftBlocks;\n\n    mapping(bytes32 => nftBlock) public blockMap;\n\n    // Event emitted when a new nft block is submitted.\n    event blockSubmitted(nftBlock _block);\n\n    // Event emitted when a verification request is submitted.\n    event verificationRequest(address _contract, address _distributor, uint8 _type, string _cid, uint _block);\n\n    // Event emitted when an nft cid has been verifed!\n    event verified(address _contract, string _cid);\n\n    // Mapping to hold transactions that have been verified.\n    mapping(bytes32 => bool) transactionVerified;\n\n    // Mapping to hold contracts that have been slashed.\n    mapping(address => bool) public nftSlashed;\n    \n    constructor(uint _minimumRequestValue, address _userRegister){\n        minimumRequestValue = _minimumRequestValue;\n        userRegister = UserRegister(_userRegister);\n        nftBlock memory n = nftBlock(bytes32(0), bytes32(0) , \"\", block.number);\n        nftBlocks.push(n);\n    }\n\n    function requestVerification(string calldata _cid) public payable {\n        require(msg.value >= minimumRequestValue, \"Invalid request value.\");\n\n        require(Address.isContract(msg.sender), \"Sender must be a contract\");\n\n        Asset asset = Asset(msg.sender);\n\n    }\n\n    function verifyNFT(bytes32[] calldata _proof, bytes32 _root, bytes32 _transactionHash, transaction memory _transaction) public {\n\n    }\n\n    function submitBlock(nftBlock memory _block) public onlyOwner{\n        require(_block._block == 0, \"Block must be 0 for initialization.\");\n        _block._block = block.number;\n        nftBlocks.push(_block);\n        blockMap[_block._root] = nftBlocks[nftBlocks.length-1];\n        emit blockSubmitted(_block);\n    }\n}",
  "sourcePath": "/home/stephensb/sb-labs/feed/contracts/nft-protocol/NFT_Register.sol",
  "compiler": {
    "name": "solc",
    "version": "0.8.17+commit.8df45f5f.Emscripten.clang"
  },
  "schemaVersion": "3.4.11",
  "updatedAt": "2023-03-09T02:42:27.107Z",
  "devdoc": {
    "kind": "dev",
    "methods": {
      "owner()": {
        "details": "Returns the address of the current owner."
      },
      "renounceOwnership()": {
        "details": "Leaves the contract without owner. It will not be possible to call `onlyOwner` functions anymore. Can only be called by the current owner. NOTE: Renouncing ownership will leave the contract without an owner, thereby removing any functionality that is only available to the owner."
      },
      "transferOwnership(address)": {
        "details": "Transfers ownership of the contract to a new account (`newOwner`). Can only be called by the current owner."
      }
    },
    "version": 1
  },
  "userdoc": {
    "kind": "user",
    "methods": {},
    "version": 1
  }
}